:1000000009C1000038C1000036C1000034C1000041
:1000100032C1000030C100002EC100002CC1000020
:100020002AC1000028C1000026C1000024C1000030
:1000300022C1000020C100001EC100001CC1000040
:100040001AC1000044C3000016C1000014C1000022
:1000500012C1000010C100000EC1000060C7000006
:100060000AC100000C94B30A0C94E90A04C1000010
:1000700002C1000000C10000FEC00000FCC0000082
:1000800053C30000F8C00000F6C00000F4C0000038
:10009000F2C00000F0C00000EEC0000012C6000078
:1000A000EAC00000E8C000006CC30000E4C000002B
:1000B000E2C00000E0C00000DEC000008FC300000E
:1000C000DAC00000D8C00000D6C00000D4C00000D4
:1000D000D2C00000D0C00000CEC00000CCC00000E4
:1000E000CAC000009B089E088D0891089708D50893
:1000F000A208A608AC08B008B408BA08BE08C2082E
:10010000D508C808CC08D00800000A0B02090C0D5D
:100110000E080703040100000000000000000000BA
:1001200000000000000000000000000000000000CF
:10013000000000001211100000000000000000008C
:1001400000000000000000000000000000000102AC
:1001500010202008081020401020408002010201D9
:100160000804020101020408102040808040201091
:1001700008040201800402018040201008040201EA
:100180000804020101020408102040800102040852
:10019000102040800505050507050808080802022B
:1001A00002020A0A08080404040401010101010111
:1001B00001010303030303030303040707070C0CF4
:1001C0000C0C0C0C0C0C02020202060606060606BB
:1001D00006060B0B0B0B0B0B0B0B00002200250074
:1001E00028002B002E003100340002010000050120
:1001F00008010B0100002100240027002A002D0027
:100200003000330001010000040107010A01A502CA
:1002100019061B0B11241FBECFEFD1E2DEBFCDBFED
:1002200000E00CBF12E0A0E0B2E0EAE2FAE100E098
:100230000BBF02C007900D92A635B107D9F724E095
:10024000A6E5B2E001C01D92A136B207E1F712E0C7
:10025000C4E1D2E000E006C022970109FE010BBF15
:100260000E94D30CCE30D10780E00807A9F70E9486
:100270005F0B0C94130DC4CEB0D04FEF64E680E654
:10028000BBD040E060EE8FE0B7C00F931F93CF93D9
:10029000DF93EC018CE28CD080FF29C040E061E06C
:1002A0008CE2AAD081E684D0182F110F110F110F04
:1002B000188382E67DD0829586958770812B88830E
:1002C00085E676D08F70898300E010E0898190E028
:1002D0000817190754F486E6800F6AD0FE01E00F74
:1002E000F11F82830F5F1F4FF1CF80E001C082E0DA
:1002F000DF91CF911F910F910895CF92DF92EF92EE
:10030000FF920F931F93CF93DF93CDB7DEB72A975A
:100310000FB6F894DEBF0FBECDBF7C018B016A0122
:10032000CE010196B2DF811117C09981913031F071
:10033000923091F49B81F60190830EC06B815C81B9
:100340004D813E812F819885F70160835183F801AB
:1003500040833183228393832A960FB6F894DEBFBD
:100360000FBECDBFDF91CF911F910F91FF90EF9006
:10037000DF90CF90089561E089E318D761E085E3CD
:1003800015D761E08BE312D761E08CE30FD760E013
:1003900089E345D761E08BE342D761E08CE33FC757
:1003A00028980895289A0895FBDF80EC46D0FACF6C
:1003B0001F93CF93DF931F92CDB7DEB7182FF0DFD7
:1003C00083E03BD0812F39D03DD08983EBDF898119
:1003D0000F90DF91CF911F91089529D0E5DF8EE036
:1003E000E7DF807E803831F084E092E00E94E60C06
:1003F00081E0089580E008951F93CF93DF931F92CB
:100400001F92CDB7DEB7182F4A836983C9DF85E015
:1004100014D0812F12D06981862F0FD04A81842F6A
:100420000CD00F900F90DF91CF911F91BBCF84B173
:10043000876084B982E58CBD08958EBD0DB407FE3A
:10044000FDCF0895CF93DF931F92CDB7DEB78FEF27
:100450008EBD0DB407FEFDCF8EB5898389810F90C7
:10046000DF91CF91089587DF26E040E855E260E014
:1004700070E08EEB93E00E94530AFEDE24E338E046
:1004800044E853E069E070E087E592E0F0D186EF60
:1004900092E0C6D361E08DE089D661E08DE0BFC611
:1004A000AF92BF92CF92DF92EF92FF920F931F9382
:1004B0004AE552E06BE572E08FE592E01EDF8111C4
:1004C0003BC060915F0270E080E090E01F921F925D
:1004D0001F9224EB2F93A12CB12C6501E12CF12C60
:1004E0008701EA9420E030E0A9010E94240C609387
:1004F000560270E087E592E09BD24AE050E06091BE
:1005000056028EEB93E00E940F0C61E08DE087D6DF
:1005100068EE73E080E090E06FD50F900F900F9041
:100520000F9060E08DE01F910F91FF90EF90DF90B2
:10053000CF90BF90AF9073C61F910F91FF90EF9037
:10054000DF90CF90BF90AF90089587E592E073C1A0
:10055000CF92DF92EF92FF920F931F93CF93DF938F
:100560006C018B017A01EC01CE59DD4F888187FF48
:1005700004C0FB011182108223C02CE02C9DC0011D
:100580002D9D900D11242881AC01420F511D27FD96
:100590005A952091610230E0421753078CF428816C
:1005A000AC01420F511D27FD5A959A01FA01EE0F39
:1005B000FF1FE20FF31FEA59FD4F208126FD19C0EE
:1005C00088818F5F88838CE08C9D90018D9D300D9C
:1005D00011248881A901480F511D87FD5A958091EA
:1005E000610290E048175907ACF488818C3034F1EF
:1005F00011C02881820F911D27FD9A95FC01EE0FF5
:10060000FF1FE80FF91FEA59FD4F808160E08F73EB
:1006100006D6D6CFF80180819181049680349C491A
:1006200018F480E49CE904C0F8018081918104966B
:10063000F701918380838FEF888340C0F801808128
:1006400091814881B901640F711D47FD7A95AB0115
:10065000FB01EE0FFF1FE40FF51FEA59FD4F41812B
:100660005281840F951FF701918380838881A901AE
:10067000480F511D87FD5A95FA01EE0FFF1FE40F39
:10068000F51FEA59FD4F808186FF18C08881280F29
:10069000311D87FD3A95F901EE0FFF1FE20FF31FA1
:1006A000EA59FD4F808161E08F73DF91CF911F91F7
:1006B0000F91FF90EF90DF90CF90B1C5DF91CF9178
:1006C0001F910F91FF90EF90DF90CF9008951F92B0
:1006D0000F920FB60F9211240BB60F922F933F93E8
:1006E0004F935F936F937F938F939F93AF93BF933A
:1006F000EF93FF9348E850E064E870E081E090E019
:1007000027DFFF91EF91BF91AF919F918F917F91E3
:100710006F915F914F913F912F910F900BBE0F9072
:100720000FBE0F901F9018951F920F920FB60F9249
:1007300011240BB60F922F933F934F935F936F93B8
:100740007F938F939F93AF93BF93EF93FF9348E96A
:1007500050E064E970E082E090E0FADEFF91EF9112
:10076000BF91AF919F918F917F916F915F914F91C9
:100770003F912F910F900BBE0F900FBE0F901F90C7
:1007800018951F920F920FB60F9211240BB60F926D
:100790002F933F934F935F936F937F938F939F9389
:1007A000AF93BF93EF93FF9348EA50E064EA70E0A1
:1007B00083E090E0CDDEFF91EF91BF91AF919F91EB
:1007C0008F917F916F915F914F913F912F910F90FA
:1007D0000BBE0F900FBE0F901F9018951F920F9297
:1007E0000FB60F9211240BB60F922F933F934F9396
:1007F0005F936F937F938F939F93AF93BF93EF9389
:10080000FF9348E251E064E271E080E090E0A0DE16
:10081000FF91EF91BF91AF919F918F917F916F91D8
:100820005F914F913F912F910F900BBE0F900FBE94
:100830000F901F901895209161022033A0F431E0B1
:10084000320F30936102FC012083822F90E0FC0183
:10085000EE0FFF1FE80FF91FEA59FD4F88EB9BE0F1
:100860009283818308952FEFFC0120830895DF9206
:10087000EF92FF920F931F93CF93DF93EC01D62E4D
:100880007A0189018881803308F067C061E08D2D8D
:100890008DD48881A82FB0E0FD01EE0FFF1FEA0F75
:1008A000FB1FEA59FD4F2D2D2F739081907C922BC9
:1008B000908360E272E06E197F0977FF02C06D5F7E
:1008C0007F4F7595679575956795698340E659E003
:1008D000401B510B57FF02C04D5F5F4F5595479529
:1008E000559547954A836CE00E94790C9CE0899F5E
:1008F000B001112420E030E0A901460F571FFA0192
:10090000EE0FFF1FE40FF51FEA59FD4F908196FD92
:1009100018C02F5F3F4F2C30310571F790E08130C8
:10092000910521F51092800082E080938100109261
:10093000850010928400B19A80916F00826080934C
:100940006F00888190E0FC01EE0FFF1FE80FF91F98
:10095000EA59FD4F8081806480838881DF91CF9147
:100960001F910F91FF90EF90DF90089582309105D5
:1009700069F41092900082E08093910010929500AB
:100980001092940088BB80937100DBCF8330910577
:1009900069F41092A00082E08093A1001092A5005B
:1009A0001092A40089BB80937200CBCF892B49F6AB
:1009B0001092200182E08093210110922501109273
:1009C00024018ABB80937300BCCFFC0180818033FB
:1009D00070F5918128E830E0291B310997FD3395A6
:1009E000220F331F220F331F621773077CF092818F
:1009F00028E532E0291B310997FD3395220F331F7B
:100A0000220F331F621773070CF49B012250310928
:100A1000220F331F4FB7F89490E0FC01EE0FFF1F39
:100A2000E80FF91FEA59FD4F328321834FBF089524
:100A30004F925F926F927F92AF92BF92CF92DF926E
:100A4000EF92FF920F931F93CF93DF93EC016032ED
:100A500082E078070CF03FC077FD06C0653B71056A
:100A60002CF064EB70E002C060E070E0898128E85F
:100A700030E0281B310987FD3395220F331F220FE9
:100A8000331F5901CC24B7FCC094DC2C882777FD98
:100A90008095982F2A8148E552E0421B510927FD95
:100AA0005395440F551F440F551F2A01662457FCC8
:100AB0006094762C7F926F925F924F9214EBE12EAE
:100AC000F12C00E010E020E030E0A901BDD60F904D
:100AD0000F900F900F90CE01DF91CF911F910F914A
:100AE000FF90EF90DF90CF90BF90AF907F906F908E
:100AF0005F904F906ACF8091250390E0209126036C
:100B0000821B9109089520912603809125032817BF
:100B100050F4E22FF0E0E95DFC4F808190E02F5F20
:100B20002093260308958FEF9FEF0895E091260309
:100B300080912503E81730F4F0E0E95DFC4F8081F7
:100B400090E008958FEF9FEF08950895CF92DF9280
:100B5000EF92FF920F931F93CF93DF937C01CB0112
:100B60008A0120910203222389F0EB016B01C40E5C
:100B7000D51ECC15DD0561F06991D701ED91FC9191
:100B80000190F081E02DC7011995F3CF642F70D04B
:100B9000C801DF91CF911F910F91FF90EF90DF90EF
:100BA000CF900895CF93DF931F92CDB7DEB76983BF
:100BB000209102032223D1F020910303203240F040
:100BC00021E030E0FC013383228380E090E014C018
:100BD00080910403E82FF0E0EB5FFC4F9981908354
:100BE0008F5F809304038093030304C061E0CE0110
:100BF00001963ED081E090E00F90DF91CF91089573
:100C0000FC011382128248EE53E060E070E04483FE
:100C100055836683778388E292E091838083089589
:100C200010922603109225031092040310920303DE
:100C300003C086EF92E0E4CF1092B40381E080938A
:100C4000B2031092B10361E084E1E9D261E085E191
:100C5000E6D2E9EBF0E080818E7F808380818D7F1A
:100C6000808388E48093B80085E48093BC00089575
:100C7000613298F42091B403243089F460936903BD
:100C8000FC018BE693E0DC012A2F281B261718F4C1
:100C900021912D93F9CF80E0089581E0089582E0BD
:100CA000089585ED8093BC008091BC0084FDFCCF4D
:100CB0001092B403089585EC8093BC001092B403A5
:100CC00008951F920F920FB60F9211240BB60F9238
:100CD0002F933F934F935F936F937F938F939F9344
:100CE000AF93BF93EF93FF938091B900887F8036D5
:100CF00009F49CC068F5883209F45BC090F4803137
:100D000009F454C038F4882309F4F3C0883009F496
:100D10004DC0F2C0883109F44CC0803209F45DC086
:100D2000EBC0803409F468C048F4803309F455C03E
:100D3000883309F0E1C080934703A7C0803509F4E8
:100D40004FC0883509F45DC0883409F0D5C0D3C0E0
:100D5000883909F4C4C0A8F4883709F467C038F4A6
:100D6000883609F463C0803709F460C0C5C088388C
:100D700009F4B5C0803909F45FC0803809F0BCC0FF
:100D80005BC0803B09F483C038F4803A09F466C044
:100D9000883A09F47CC0B0C0803C09F4A4C0883C07
:100DA00009F4A1C0883B09F487C0A6C08091B303B1
:100DB00010C090918C0380918B03981770F5E0918F
:100DC0008C0381E08E0F80938C03F0E0E357FC4F9F
:100DD00080818093BB0085EC83C0809347038BC0E8
:100DE000E0918C0381E08E0F80938C038091BB0097
:100DF000F0E0E357FC4F808390918C0380918B034C
:100E00006BC0E0918C0381E08E0F80938C03809106
:100E1000BB00F0E0E357FC4F80838091B203811167
:100E20006AC081E08093B10384EA5EC083E080936E
:100E3000B40310924803CFCF80914803803208F06A
:100E40004EC0E091480381E08E0F8093480380916B
:100E5000BB00F0E0E75BFC4F8083BDCF809148038F
:100E6000803230F4E0914803F0E0E75BFC4F108201
:100E700018DF6091480370E0E091AD03F091AE039C
:100E800089E493E019951092480315DF35C084E09A
:100E90008093B40310926A0310926903E091AF0348
:100EA000F091B003199580916903811105C081E02B
:100EB0008093690310926B03E0916A0381E08E0FC7
:100EC00080936A03F0E0E559FC4F80818093BB007A
:100ED00090916A0380916903981708F47CCF85E8A4
:100EE0008093BC0009C085EC8093BC001092B403D1
:100EF00003C010924703D5DEFF91EF91BF91AF91F0
:100F00009F918F917F916F915F914F913F912F9121
:100F10000F900BBE0F900FBE0F901F9018951F9251
:100F20000F920FB60F9211242F933F938F939F939D
:100F3000AF93BF938091B6039091B703A091B8038C
:100F4000B091B9033091B50323E0230F2D3720F47E
:100F50000196A11DB11D05C026E8230F0296A11D13
:100F6000B11D2093B5038093B6039093B703A0936C
:100F7000B803B093B9038091BA039091BB03A091D9
:100F8000BC03B091BD030196A11DB11D8093BA03AE
:100F90009093BB03A093BC03B093BD03BF91AF91EB
:100FA0009F918F913F912F910F900FBE0F901F90A7
:100FB00018953FB7F8948091BA039091BB03A09124
:100FC000BC03B091BD0326B5A89B05C02F3F19F007
:100FD0000196A11DB11D3FBF6627782F892F9A2F3B
:100FE000620F711D811D911D42E0660F771F881FE2
:100FF000991F4A95D1F70895CF92DF92EF92FF9211
:10100000CF93DF936B017C01D4DFEB01C114D104DA
:10101000E104F10479F05DD4CCDF6C1B7D0B683EFC
:101020007340A0F381E0C81AD108E108F108C85163
:10103000DC4FECCFDF91CF91FF90EF90DF90CF901E
:101040000895789484B5826084BD84B5816084BD40
:1010500085B5826085BD85B5816085BDEEE6F0E031
:10106000808181608083E1E8F0E01082808182608D
:101070008083808181608083E0E8F0E0808181600E
:101080008083E1EBF0E0808184608083E0EBF0E03E
:10109000808181608083E1E9F0E0808182608083EB
:1010A000808181608083E0E9F0E0808181608083DD
:1010B000E1EAF0E0808182608083808181608083CA
:1010C000E0EAF0E0808181608083E1E2F1E080810C
:1010D00082608083808181608083E0E2F1E08081B2
:1010E00081608083EAE7F0E0808184608083808192
:1010F000826080838081816080838081806880833A
:101100001092C100089590E0FC013197E231F105A1
:1011100008F04BC0EE58FF4F36C4809180008F77A7
:1011200003C0809180008F7D80938000089580911E
:101130008000877FF9CF84B58F7702C084B58F7D1B
:1011400084BD08958091B0008F7703C08091B00076
:101150008F7D8093B0000895809190008F7707C0B5
:10116000809190008F7D03C080919000877F809355
:10117000900008958091A0008F7707C08091A00013
:101180008F7D03C08091A000877F8093A000089589
:10119000809120018F7707C0809120018F7D03C04F
:1011A00080912001877F809320010895CF93DF9362
:1011B00090E0FC01E25BFE4F2491FC01EC56FE4FF7
:1011C0008491882349F190E0880F991FFC01EC502D
:1011D000FE4FA591B49186529E4FFC01C591D491CA
:1011E0009FB7611108C0F8948C91209582238C934D
:1011F000888182230AC0623051F4F8948C91322F96
:10120000309583238C938881822B888304C0F89443
:101210008C91822B8C939FBFDF91CF9108950F9378
:101220001F93CF93DF931F92CDB7DEB7282F30E007
:10123000F901E85FFE4F8491F901E25BFE4F1491E2
:10124000F901EC56FE4F04910023C1F0882319F0F8
:10125000698359DF6981E02FF0E0EE0FFF1FE6524E
:10126000FE4FA591B4919FB7F8948C91611103C082
:101270001095812301C0812B8C939FBF0F90DF912C
:10128000CF911F910F910895FC01818D228D90E0E7
:10129000805C9F4F821B91098F7399270895FC01F1
:1012A000918D828D981731F0828DE80FF11D858D1B
:1012B00090E008958FEF9FEF0895FC01918D828D4E
:1012C000981761F0828DDF01A80FB11D5D968C919A
:1012D000928D9F5F9F73928F90E008958FEF9FEFA5
:1012E000089582E19BE0892B39F080E090E0892B22
:1012F00019F098D1811125C080E090E0892B41F050
:1013000080E090E0892B21F00E94000081111CC038
:1013100080E090E0892B41F080E090E0892B21F083
:101320000E940000811113C080E090E0892BA1F0A1
:1013300080E090E0892B81F00E94000081110AC0BA
:1013400008950E940000D8CF0E940000E1CF0E94C3
:101350000000EACF0C9400000895FC01848DDF01A9
:10136000A80FB11DA35ABF4F2C91848D90E0019618
:101370008F739927848FA689B7892C93A089B18907
:101380008C9180648C93938D848D981306C0028811
:10139000F389E02D80818F7D80830895CF93DF9343
:1013A000EC01888D8823C1F0EA89FB89808185FD65
:1013B00005C0A889B9898C9186FD0EC00FB607FCBF
:1013C000F5CF808185FFF2CFA889B9898C9185FFFF
:1013D000EDCFCE01C2DFE8CFDF91CF910895CF925C
:1013E000DF92FF920F931F93CF93DF931F92CDB79E
:1013F000DEB76C0181E0D60158968C9358975B96C6
:101400009C915B975C968C915C97981307C0509663
:10141000ED91FC915197808185FD2DC0F601038DE2
:1014200010E00F5F1F4F0F731127F02EF601848D10
:10143000F81210C00FB607FCF9CFD6015096ED9107
:10144000FC915197808185FFF1CFC601698385DFCB
:101450006981ECCF838DE80FF11DE35AFF4F608364
:10146000D6015B960C935B975296ED91FC91539746
:10147000808180620CC0D6015696ED91FC91579701
:1014800060835096ED91FC915197808180648083B8
:1014900081E090E00F90DF91CF911F910F91FF902D
:1014A000DF90CF900895BF92CF92DF92EF92FF929C
:1014B000CF93DF93EC016A017B01B22EE889F989B1
:1014C00082E08083411581EE58076105710599F02E
:1014D00060E079E08DE390E0A701960116D22150FB
:1014E0003109410951095695479537952795211599
:1014F00080E1380790F0E889F989108260E874E8A3
:101500008EE190E0A701960100D2215031094109F6
:1015100051095695479537952795EC85FD8530837C
:10152000EE85FF852083188EEC89FD89B082EA89DB
:10153000FB89808180618083EA89FB898081886062
:101540008083EA89FB89808180688083EA89FB89BE
:1015500080818F7D8083DF91CF91FF90EF90DF902E
:10156000CF90BF9008951F920F920FB60F92112443
:101570000BB60F922F938F939F93EF93FF93E0916E
:10158000CE03F091CF038081E091D403F091D50395
:1015900082FD12C090818091D7038F5F8F7320915D
:1015A000D803821751F0E091D703F0E0E254FC4FEA
:1015B000958F8093D70301C08081FF91EF919F9118
:1015C0008F912F910F900BBE0F900FBE0F901F9019
:1015D00018951F920F920FB60F9211240BB60F920F
:1015E0002F933F934F935F936F937F938F939F932B
:1015F000AF93BF93EF93FF938EEB93E0AEDEFF913B
:10160000EF91BF91AF919F918F917F916F915F917A
:101610004F913F912F910F900BBE0F900FBE0F90E7
:101620001F9018958EEB93E02FDE21E0892B09F4B3
:1016300020E0822F08951092C1031092C00388EE1B
:1016400093E0A0E0B0E08093C2039093C303A09323
:10165000C403B093C50388E392E09093BF038093E3
:10166000BE0385EC90E09093CB038093CA0384EC97
:1016700090E09093CD038093CC0380EC90E0909326
:10168000CF038093CE0381EC90E09093D1038093BD
:10169000D00382EC90E09093D3038093D20386EC46
:1016A00090E09093D5038093D4031092D7031092C7
:1016B000D8031092D9031092DA0308950895C1DC7B
:1016C000FDDF0E943302C1E7D9E00E94500220975B
:1016D000E1F307DEFACFCF92DF92EF92FF920F9302
:1016E0001F93CF93DF936C017A01EB01E60EF71E97
:1016F00000E010E0CE15DF0561F06991D601ED91B3
:10170000FC910190F081E02DC6011995080F191F79
:10171000F1CFC801DF91CF911F910F91FF90EF9012
:10172000DF90CF9008956115710581F0DB010D9078
:101730000020E9F7AD0141505109461B570BDC0170
:10174000ED91FC910280F381E02D199480E090E00E
:10175000089564E472E0E7CF8F929F92AF92BF92B8
:10176000CF92DF92EF92FF920F931F93CF93DF936D
:10177000CDB7DEB7A1970FB6F894DEBF0FBECDBFD1
:101780007C01C42EE52FCB01D22E19A221E02D150C
:1017900010F02AE0D22E8E010F5D1F4F8D2C912C60
:1017A000A12CB12C6C2D7E2FA5019401AED08C2DD7
:1017B000D29E80191124015011098A3014F4805DE1
:1017C00001C0895CF801808321153105410551056F
:1017D00021F0C22EE32FCA01E5CFB801C701A3DF74
:1017E000A1960FB6F894DEBF0FBECDBFDF91CF91AB
:1017F0001F910F91FF90EF90DF90CF90BF90AF902F
:101800009F908F9008952115310541F4DC01ED91F1
:10181000FC910190F081E02D642F19949DCF0F93DE
:101820001F93CF93DF93EC019A01462F50E060E0C5
:1018300070E0E9DF8C01CE018CDF800F911FDF911A
:10184000CF911F910F9108954F925F926F927F9267
:10185000AF92BF92CF92DF92EF92FF920F931F93BE
:10186000CF93DF93CDB7DEB729013A01621B730B2B
:10187000840B950B2A893B894C895D892A193B0980
:101880004C095D092A8B3B8B4C8B5D8B9B01AC011A
:101890006A897B898C899D891DD0E418F508060921
:1018A0001709A801970153D02A0D3B1D4C1D5D1D42
:1018B000CA01B901DF91CF911F910F91FF90EF9075
:1018C000DF90CF90BF90AF907F906F905F904F90E0
:1018D00008950895DB018F939F935BD0BF91AF91E3
:1018E000A29F800D911DA39F900DB29F900D11247A
:1018F0000895991B79E004C0991F961708F0961B6C
:10190000881F7A95C9F780950895A1E21A2EAA1B1F
:10191000BB1BFD010DC0AA1FBB1FEE1FFF1FA2179F
:10192000B307E407F50720F0A21BB30BE40BF50B9C
:10193000661F771F881F991F1A9469F76095709525
:10194000809590959B01AC01BD01CF010895052EB6
:1019500097FB16F400940FD057FD05D0D6DF07FC97
:1019600002D046F408C050954095309521953F4FE0
:101970004F4F5F4F089590958095709561957F4F7B
:101980008F4F9F4F0895EE0FFF1F0590F491E02DAC
:1019900019940DD0A59F900DB49F900DA49F800D1C
:1019A000911D112408950790F691E02D1994A29F9E
:1019B000B001B39FC001A39F700D811D1124911D23
:1019C000B29F700D811D1124911D08950F931F93D7
:1019D000CF93DF93E0915D04F0915E04238121FFBA
:1019E0001BC0EC0100E010E0899160915D047091F2
:1019F0005E04DB011896ED91FC911997882331F074
:101A00001995892B89F30FEF1FEFEECF8AE0199517
:101A1000892B11F4C80102C08FEF9FEFDF91CF91A6
:0A1A20001F910F910895F894FFCF75
:101A2A00010000004D435032353135204E4F5420CD
:101A3A00636F6E666967757265642070726F706530
:101A4A00726C790000000000D205A6057B058305AB
:101A5A009605A50500000000EF096B0B44095D0916
:101A6A004F09CE090D0A006E616E00696E66006F3D
:061A7A007666002E00005C
:00000001FF
