:1000000011C1000040C100003EC100003CC1000021
:100010003AC1000038C1000036C1000034C1000000
:1000200032C1000030C100002EC100002CC1000010
:100030002AC1000028C1000026C1000024C1000020
:1000400022C10000EEC700001EC100001CC100005C
:100050001AC1000018C1000016C100000C94AB0CBE
:1000600012C100000C940B100C9441100CC1000044
:100070000AC1000008C1000006C1000004C1000060
:10008000FDC7000000C10000FEC00000FCC0000071
:10009000FAC00000F8C00000F6C000000C947D0B10
:1000A000F2C00000F0C000000C946B08ECC000002F
:1000B000EAC00000E8C00000E6C000000C94980808
:1000C000E2C00000E0C00000DEC00000DCC00000B4
:1000D000DAC00000D8C00000D6C00000D4C00000C4
:1000E000D2C0000027060C06270632067B06E8066B
:1000F000ED060807F30DF60DE50DE90DEF0D2D0EDC
:10010000FA0DFE0D040E080E0C0E120E160E1A0E2F
:100110002D0E200E240E280E00000A0B02090C0DD5
:100120000E080703040100000000000000000000AA
:1001300000000000000000000000000000000000BF
:10014000000000001211100000000000000000007C
:10015000000000000000000000000000000001029C
:1001600010202008081020401020408002010201C9
:100170000804020101020408102040808040201081
:1001800008040201800402018040201008040201DA
:100190000804020101020408102040800102040842
:1001A000102040800505050507050808080802021B
:1001B00002020A0A08080404040401010101010101
:1001C00001010303030303030303040707070C0CE4
:1001D0000C0C0C0C0C0C02020202060606060606AB
:1001E00006060B0B0B0B0B0B0B0B00002200250064
:1001F00028002B002E003100340002010000050110
:1002000008010B0100002100240027002A002D0016
:100210003000330001010000040107010A01330727
:10022000E20A731011241FBECFEFD1E2DEBFCDBFB3
:1002300000E00CBF12E0A0E0B2E0E0EFF9E200E085
:100240000BBF02C007900D92A436B107D9F724E086
:10025000A4E6B2E001C01D92AB38B207E1F712E0AC
:10026000C4E2D2E000E006C022970109FE010BBF04
:100270000E945A14CE31D10780E00807A9F70E94E6
:10028000B7100C94F614BCCEF9D34FEF64E680E6B9
:1002900019D440E060EE8FE015C4BF92CF92DF9298
:1002A000EF92FF920F931F93CF93DF93CDB7DEB7FB
:1002B0002A970FB6F894DEBF0FBECDBF0983C12EBB
:1002C0001A832B833C834D835E836F837887898772
:1002D0009A8780E3BED3982F9870B92E83FD29C0EA
:1002E000602F6295660F607E82E3D7D3602F70E047
:1002F00083E0759567958A95E1F781E3CED3612F09
:100300006F7085E3CAD37E01E3E0EE0EF11C00E0DE
:1003100010E0D12C0C151D054CF4F70161917F0103
:1003200086E3800FBAD30F5F1F4FF4CF81E0E5D390
:1003300002C0BB24B3948B2D2A960FB6F894DEBF6F
:100340000FBECDBFDF91CF911F910F91FF90EF9026
:10035000DF90CF90BF9008950F931F93CF93DF93BB
:10036000EC018CE276D380FF2CC040E061E08CE2AF
:10037000A9D381E66ED3880F880F880F888382E621
:1003800068D390E025E0959587952A95E1F7288137
:10039000822B888385E65DD38F70898300E010E02F
:1003A000898190E00817190754F486E6800F51D32D
:1003B000FE01E00FF11F82830F5F1F4FF1CF80E03E
:1003C00001C082E0DF91CF911F910F910895CF92EC
:1003D000DF92EF92FF920F931F93CF93DF93CDB7EE
:1003E000DEB72A970FB6F894DEBF0FBECDBF7C01F3
:1003F0008B016A01CE010196AFDF811117C099818F
:10040000913031F0923091F49B81F60190830EC0CF
:100410006B815C814D813E812F819885F7016083DE
:100420005183F80140833183228393832A960FB648
:10043000F894DEBF0FBECDBFDF91CF911F910F911A
:10044000FF90EF90DF90CF900895982F80916402F5
:10045000811103C081E0913009F080E09093640243
:1004600008950F931F93CF93DF93CDB7DEB72A97ED
:100470000FB6F894DEBF0FBECDBF05E010E02B81B4
:100480003C814D815E816F81788589859A8505DF04
:100490002A960FB6F894DEBF0FBECDBFDF91CF9185
:1004A0001F910F9108950F931F93CF93DF93CDB7B3
:1004B000DEB72A970FB6F894DEBF0FBECDBF1A8203
:1004C00025E030E040E050E060E070E0CB010E94C9
:1004D000E211162F2FEF30E040E050E060E070E0D6
:1004E000CB010E94E211123099F030F4112371F027
:1004F000113099F487E00DC0133069F0143069F4BD
:100500008AE0898381E08A836B8307C086E001C02B
:1005100088E0898302C089E0FCCF09811A812B81A0
:100520003C814D815E816F81788589859A85B5DEB4
:100530002A960FB6F894DEBF0FBECDBFDF91CF91E4
:100540001F910F91089561E089E30E942E0E61E0F2
:1005500085E30E942E0E61E08BE30E942E0E61E087
:100560008CE30E942E0E61E08AE30E942E0E61E071
:100570008DE30E942E0E61E08AE30E94670E61E027
:100580008BE30E94670E61E08CE30E94670E10927D
:100590000701089580917202909173020895CF939C
:1005A000DF93EC01613011F460E003C0623021F4AC
:1005B00061E089E30E94670E4091110250E0CE0194
:1005C0004C175D0708F4CA01DF91CF911AC2982F2A
:1005D00028E030E080E0880F492F4170842B969509
:1005E00021503109C1F708950F931F93CF93DF93E3
:1005F00000D01F92CDB7DEB760E08DE30E94670E9A
:1006000060E08BE30E94670E84E190E00E94490D58
:1006100006E011E0F80180818C838C81D8DF8C8327
:1006200061E08BE30E94670E84E190E00E94490D37
:10063000F80180818B838B81CADF8B8361E08DE33E
:100640000E94670E2C818B8190E0922B9A83898384
:1006500089819A810F900F900F900F90DF91CF9129
:100660001F910F9108958091110261E090E097DF52
:100670006CED75E080E090E00E94240D60E08CE37A
:100680000E94670E61E070E080E090E00E94240D1F
:1006900061E08CE30E94670EA7DF90937102809364
:1006A00070028091110262E090E079DF6CED75E0FC
:1006B00080E090E00E94240D97DF90937302809376
:1006C000720208954F925F926F927F928F929F92E3
:1006D000AF92BF92CF92DF92EF92FF920F931F9350
:1006E000982E82DFE0907202F09073020027F7FCF0
:1006F0000095102F2091700230917102442737FD30
:100700004095542FBC01882777FD8095982F1F9224
:100710001F921F92EFEFEF93A12CB12C65010E9465
:10072000FD11292D30E0261B370BB901882777FDF5
:100730008095982F0E94DA126B017C010F900F9028
:100740000F900F9020E030E0A9010E94A81287FFCF
:1007500002C081E001C082E08093650220E030E0C9
:10076000A901C701B6010E948A13181624F0F7FAEE
:10077000F094F7F8F09460910402772767FD709584
:10078000872F972F0E94DA129B01AC01C701B60197
:100790000E94A81287FF10C06091650280E090E07F
:1007A000FEDE10926A0210926B0210926C0210929E
:1007B0006D0280E090E063C0209105023091060256
:1007C0004091070250910802C701B6010E948E13A2
:1007D00020916A0230916B0240916C0250916D023F
:1007E0000E9444124B015C0160936A0270936B0299
:1007F00080936C0290936D0220910D0230910E0255
:1008000040910F0250911002C701B6010E948E1351
:100810002B013C012091090230910A0240910B0208
:1008200050910C02C501B4010E948E139B01AC01D2
:10083000C301B2010E9444124B015C0120E030E090
:10084000A9010E948A1318161CF4C501B40103C043
:10085000C501B40190580E94AC12CB0170936F0295
:1008600060936E02C0926602D0926702E0926802C4
:10087000F09269026091650292DE81E090E01F9142
:100880000F91FF90EF90DF90CF90BF90AF909F902F
:100890008F907F906F905F904F900895CF93DF93EC
:1008A000FC01C081D0E0C958D109D7FF04C0613034
:1008B000710541F405C0209731F06130710511F0E8
:1008C00042E001C041E0D7FF03C0D195C195D109F5
:1008D000642FCE0164DE8C2FDF91CF910895609359
:1008E0000D0270930E0280930F02909310022093DA
:1008F000090230930A0240930B0250930C020895B0
:10090000AF92BF92CF92DF92EF92FF920F931F931D
:100910009B01682F70E080E090E02130310549F4C0
:100920001F921F921F9224EB2F93A12CB12C6501D3
:1009300009C01F921F921F921F9234EBA32EB12C5D
:10094000C12CD12CE12CF12C8701EA9420E030E07D
:10095000A9010E94FD110F900F900F900F90862F0C
:100960001F910F91FF90EF90DF90CF90BF90AF90CD
:100970000895AF92BF92CF92DF92EF92FF920F93C2
:100980001F939B01682F70E080E090E021303105DB
:1009900049F41F921F921F921F92A12CB12C650146
:1009A000AA9408C01F921F921F922FEF2F93A12C81
:1009B000B12C6501E12CF12C8701EA9420E030E0B4
:1009C000A9010E94FD110F900F900F900F90862F9C
:1009D0001F910F91FF90EF90DF90CF90BF90AF905D
:1009E0000895809304020895809311020895DC0114
:1009F000ED91FC910190F081E02D19948FE193E04D
:100A0000B9C5CF93C82F68E270E08FE193E0C5D5F8
:100A100060E070E08FE193E0EADF6C2F772767FDFD
:100A200070958FE193E0E3DF8FE193E0CF91C8C54C
:100A300087E30E94B60D21E0059708F020E0822FA1
:100A4000089528980895289A0895FBDF80EC14D221
:100A5000FACF1F93CF93DF931F92CDB7DEB7182F36
:100A6000F0DF83E009D2812F07D20BD28983EBDF3D
:100A700089810F90DF91CF911F910895F7D1E5DF24
:100A80008EE0E7DF807E803831F083E192E00E94E3
:100A9000C31481E0089580E008951F93CF93DF93FE
:100AA0001F92CDB7DEB7182F6983CBDF82E0E4D188
:100AB000812FE2D16981862FDFD10F90DF91CF9115
:100AC0001F91C1CF1F93CF93DF931F921F92CDB77A
:100AD000DEB7182F4A836983B4DF85E0CDD1812F3B
:100AE000CBD16981862FC8D14A81842FC5D10F907F
:100AF0000F90DF91CF911F91A6CFCF93DF931F92DD
:100B0000CDB7DEB789839DDF898187708068B4D1D6
:100B10000F90DF91CF9197CF16DD26E040E855E2A8
:100B200060E070E088EE93E00E94AB0FADDB24E361
:100B300038E044E853E069E070E080E892E041D3B7
:100B40005DDF91DD27DD90937B0280937A0268EE72
:100B500073E080E090E078D761E080E090E01FDD16
:100B600061E087E00E942E0E61E087E00E94670E40
:100B70001092830210927F0210927E028FE7809380
:100B8000880280938902809384028093850280E0AA
:100B9000EDD7BC01882777FD8095982F0C94B9116B
:100BA000AF92BF92CF92DF92EF92FF920F931F937B
:100BB00043E852E064E872E088E892E008DC8111E2
:100BC00012C08091860241DC813069F460E087E0E8
:100BD0000E94670E62E370E080E090E035D761E04C
:100BE00087E00E94670E24DF882349F0809183020A
:100BF000882329F080918302863008F427C18091F0
:100C0000830290E0FC013197E830F10508F022C141
:100C1000EE58FF4F0C944A1460917E0270917F024F
:100C200088E892E03BDE8091890260917E027091BB
:100C30007F0266DE682F70E080E892E01F910F91DE
:100C4000FF90EF90DF90CF90BF90AF909BC38091CB
:100C5000840260917E0270917F028BDE33DD809191
:100C60008802E3CF6091850270E080E090E01F92FF
:100C70001F921F9226E92F93A12CB12C6501E12C24
:100C8000F12C8701EA9420E030E0A9010E94FD11D7
:100C9000862F60937502A8DE83E0A3DE8091840234
:100CA00060917E0270917F0264DE0CDD90937D0284
:100CB00080937C028091880260917E0270917F0215
:100CC0001FDE682F70E080E892E05CD30F900F90F9
:100CD0000F900F9020E030E040E250E463E373E3D4
:100CE00083E590E41F910F91FF90EF90DF90CF90FC
:100CF000BF90AF90F4CD79D628EE33E040E050E0DD
:100D00000E940C14CA01B90124E130E040E050E037
:100D10000E940C14AB01BC01409376025093770201
:100D200060937802709379022AE030E088EE93E0D5
:100D30000E94A9118091760290917702A091780289
:100D4000B09179024497A105B1050CF0ACDB2FEF0F
:100D500030E040E050E060E070E0CB010E94E21142
:100D60001F921F921F9226E92F93A12CB12C65018F
:100D7000E12CF12C8701EA9420E030E0A9010E94E7
:100D8000FD116093740288E72FDE83E02ADE20E005
:100D900030E040E250E463E373E383E590E49FDDF9
:100DA0008091840260917E0270917F02E2DD8ADC94
:100DB00090937D0280937C028091880260917E02F4
:100DC00070917F029DDD0F900F900F900F9032CFAA
:100DD00010927F0210927E0206C081E090E0909314
:100DE0007F0280937E0226E636E646E65FE36AE906
:100DF00079E989ED9FE373DD8FE0F3DD84E61F91F0
:100E00000F91FF90EF90DF90CF90BF90AF90ECCD1F
:100E100028DB60917E0270917F028DE771DD682F83
:100E200070E080E892E0AED28FE74CDC892BE1F7EE
:100E30001092830284E6D8DD8FE01F910F91FF901E
:100E4000EF90DF90CF90BF90AF90CBCD88E08093B4
:100E50008302D5CE1F910F91FF90EF90DF90CF903E
:100E6000BF90AF90089580E892E08FC184B1876011
:100E700084B982E58CBD08958EBD0DB407FEFDCF0B
:100E80000895CF93DF931F92CDB7DEB78FEF8EBD5E
:100E90000DB407FEFDCF8EB5898389810F90DF9158
:100EA000CF910895CF92DF92EF92FF920F931F930D
:100EB000CF93DF936C018B017A01EC01C557DD4FB5
:100EC000888187FF04C0FB011182108223C02CE0BF
:100ED0002C9DC0012D9D900D11242881AC01420F45
:100EE000511D27FD5A9520918A0230E04217530781
:100EF0008CF42881AC01420F511D27FD5A959A01AF
:100F0000FA01EE0FFF1FE20FF31FE157FD4F2081A3
:100F100026FD19C088818F5F88838CE08C9D9001AD
:100F20008D9D300D11248881A901480F511D87FD29
:100F30005A9580918A0290E048175907ACF488814D
:100F40008C3034F111C02881820F911D27FD9A95B4
:100F5000FC01EE0FFF1FE80FF91FE157FD4F8081E5
:100F600060E08F73B4D6D6CFF8018081918104966A
:100F700080349C4918F480E49CE904C0F801808125
:100F800091810496F701918380838FEF888340C01D
:100F9000F801808191814881B901640F711D47FD7D
:100FA0007A95AB01FB01EE0FFF1FE40FF51FE15730
:100FB000FD4F41815281840F951FF70191838083FA
:100FC0008881A901480F511D87FD5A95FA01EE0F3E
:100FD000FF1FE40FF51FE157FD4F808186FF18C00A
:100FE0008881280F311D87FD3A95F901EE0FFF1F0B
:100FF000E20FF31FE157FD4F808161E08F73DF91B6
:10100000CF911F910F91FF90EF90DF90CF905FC62F
:10101000DF91CF911F910F91FF90EF90DF90CF90D4
:1010200008951F920F920FB60F9211240BB60F92D4
:101030002F933F934F935F936F937F938F939F93E0
:10104000AF93BF93EF93FF9348E850E064E870E0FC
:1010500081E090E027DFFF91EF91BF91AF919F91E9
:101060008F917F916F915F914F913F912F910F9051
:101070000BBE0F900FBE0F901F9018951F920F92EE
:101080000FB60F9211240BB60F922F933F934F93ED
:101090005F936F937F938F939F93AF93BF93EF93E0
:1010A000FF9348E950E064E970E082E090E0FADE06
:1010B000FF91EF91BF91AF919F918F917F916F9130
:1010C0005F914F913F912F910F900BBE0F900FBEEC
:1010D0000F901F9018951F920F920FB60F92112428
:1010E0000BB60F922F933F934F935F936F937F9322
:1010F0008F939F93AF93BF93EF93FF9348EA50E092
:1011000064EA70E083E090E0CDDEFF91EF91BF9163
:10111000AF919F918F917F916F915F914F913F918F
:101120002F910F900BBE0F900FBE0F901F90189530
:101130001F920F920FB60F9211240BB60F922F939E
:101140003F934F935F936F937F938F939F93AF934F
:10115000BF93EF93FF9348E251E064E271E080E0D7
:1011600090E0A0DEFF91EF91BF91AF919F918F91A1
:101170007F916F915F914F913F912F910F900BBE97
:101180000F900FBE0F901F90189520918A02203368
:10119000A0F431E0320F30938A02FC012083822FC9
:1011A00090E0FC01EE0FFF1FE80FF91FE157FD4F24
:1011B00088EB9BE09283818308952FEFFC012083CD
:1011C0000895DF92EF92FF920F931F93CF93DF93D7
:1011D000EC01D62E7A0189018881803308F067C03E
:1011E00061E08D2D3BD58881A82FB0E0FD01EE0F89
:1011F000FF1FEA0FFB1FE157FD4F2D2D2F7390812D
:10120000907C922B908360E272E06E197F0977FFE9
:1012100002C06D5F7F4F759567957595679569837A
:1012200040E659E0401B510B57FF02C04D5F5F4F36
:1012300055954795559547954A836CE00E94001453
:101240009CE0899FB001112420E030E0A901460F05
:10125000571FFA01EE0FFF1FE40FF51FE157FD4F77
:10126000908196FD18C02F5F3F4F2C30310571F7EC
:1012700090E08130910521F51092800082E080930A
:1012800081001092850010928400B19A80916F00C5
:10129000826080936F00888190E0FC01EE0FFF1F59
:1012A000E80FF91FE157FD4F8081806480838881BA
:1012B000DF91CF911F910F91FF90EF90DF900895F4
:1012C0008230910569F41092900082E08093910041
:1012D000109295001092940088BB80937100DBCF30
:1012E0008330910569F41092A00082E08093A10000
:1012F0001092A5001092A40089BB80937200CBCFFE
:10130000892B49F61092200182E0809321011092EE
:101310002501109224018ABB80937300BCCFFC018D
:101320008081803370F5918128E830E0291B3109F4
:1013300097FD3395220F331F220F331F6217730758
:101340007CF0928128E532E0291B310997FD339525
:10135000220F331F220F331F621773070CF49B01F8
:1013600022503109220F331F4FB7F89490E0FC014F
:10137000EE0FFF1FE80FF91FE157FD4F3283218366
:101380004FBF08954F925F926F927F92AF92BF923C
:10139000CF92DF92EF92FF920F931F93CF93DF9341
:1013A000EC01603282E078070CF03FC077FD06C0A8
:1013B000653B71052CF064EB70E002C060E070E00A
:1013C000898128E830E0281B310987FD3395220FF9
:1013D000331F220F331F5901CC24B7FCC094DC2CDF
:1013E000882777FD8095982F2A8148E552E0421B97
:1013F000510927FD5395440F551F440F551F2A01CE
:10140000662457FC6094762C7F926F925F924F9285
:1014100014EBE12EF12C00E010E020E030E0A90117
:10142000ECD70F900F900F900F90CE01DF91CF91DE
:101430001F910F91FF90EF90DF90CF90BF90AF90F2
:101440007F906F905F904F906ACF80914F0390E0B4
:1014500020915003821B910908952091500380919F
:101460004F03281750F4E22FF0E0EF5AFC4F808131
:1014700090E02F5F2093500308958FEF9FEF089522
:10148000E091500380914F03E81730F4F0E0EF5AF9
:10149000FC4F808190E008958FEF9FEF08950895AD
:1014A000CF92DF92EF92FF920F931F93CF93DF9330
:1014B0007C01CB018A0120912B03222389F0EB01CF
:1014C0006B01C40ED51ECC15DD0561F06991D70105
:1014D000ED91FC910190F081E02DC7011995F3CFBA
:1014E000642FE2D0C801DF91CF911F910F91FF903F
:1014F000EF90DF90CF900895CF93DF931F92CDB7F9
:10150000DEB7698320912B032223D1F020912C0395
:10151000203240F021E030E0FC013383228380E080
:1015200090E014C080912D03E82FF0E0E25DFC4FC5
:10153000998190838F5F80932D0380932C0304C047
:1015400061E0CE010196B0D081E090E00F90DF9194
:10155000CF910895FC011382128248EE53E060E0BF
:1015600070E0448355836683778387E392E09183B9
:10157000808308951092500310924F0310922D0310
:1015800010922C0322C081E080932B0360934E03C2
:1015900010922D0310922C030895F5CF0F93062F70
:1015A00021E040912C036EE273E080914E0329D03C
:1015B00010922D0310922C0310922B030F9108957B
:1015C00061E0ECCF8FE193E0C5CF1092DE0381E0C4
:1015D0008093DC031092DB0361E084E178D361E067
:1015E00085E175D3E9EBF0E080818E7F8083808197
:1015F0008D7F808388E48093B80085E48093BC006D
:1016000008950F93413208F046C09091DE03911186
:10161000FCCF92E09093DE030093DC039FEF909366
:1016200071031092B6034093B503FB0167EB73E0BF
:10163000DB019A2F961B941718F491919D93F9CF83
:101640001092DD039091DD03880F892B8093DD03D9
:101650008091DB03813041F41092DB038091DD0344
:101660008093BB0085EC01C085EE8093BC002223F3
:1016700021F08091DE038230E1F3809171038F3F8E
:1016800061F080917103803251F080917103803359
:1016900041F483E007C081E005C080E003C082E040
:1016A00001C084E00F910895613298F42091DE0327
:1016B000243089F460939303FC0185E993E0DC0115
:1016C0002A2F281B261718F421912D93F9CF80E09B
:1016D000089581E0089582E0089585ED8093BC002F
:1016E0008091BC0084FDFCCF1092DE03089585EC50
:1016F0008093BC001092DE0308951F920F920FB6E4
:101700000F9211240BB60F922F933F934F935F9339
:101710006F937F938F939F93AF93BF93EF93FF93B9
:101720008091B900887F803609F49CC068F58832C2
:1017300009F45BC090F4803109F454C038F4882374
:1017400009F4F3C0883009F44DC0F2C0883109F4BF
:101750004CC0803209F45DC0EBC0803409F468C02D
:1017600048F4803309F455C0883309F0E1C0809310
:101770007103A7C0803509F44FC0883509F45DC0F6
:10178000883409F0D5C0D3C0883909F4C4C0A8F49E
:10179000883709F467C038F4883609F463C08037A5
:1017A00009F460C0C5C0883809F4B5C0803909F4AF
:1017B0005FC0803809F0BCC05BC0803B09F483C0C7
:1017C00038F4803A09F466C0883A09F47CC0B0C0A5
:1017D000803C09F4A4C0883C09F4A1C0883B09F40A
:1017E00087C0A6C08091DD0310C09091B6038091A0
:1017F000B503981770F5E091B60381E08E0F8093E2
:10180000B603F0E0E954FC4F80818093BB0085EC87
:1018100083C0809371038BC0E091B60381E08E0F8B
:101820008093B6038091BB00F0E0E954FC4F8083C5
:101830009091B6038091B5036BC0E091B60381E04F
:101840008E0F8093B6038091BB00F0E0E954FC4F0B
:1018500080838091DC0381116AC081E08093DB0387
:1018600084EA5EC083E08093DE0310927203CFCFE0
:1018700080917203803208F04EC0E091720381E0E3
:101880008E0F809372038091BB00F0E0ED58FC4F07
:101890008083BDCF80917203803230F4E091720377
:1018A000F0E0ED58FC4F108218DF6091720370E099
:1018B000E091D703F091D80383E793E01995109254
:1018C000720315DF35C084E08093DE031092940329
:1018D00010929303E091D903F091DA031995809166
:1018E0009303811105C081E08093930310929503C7
:1018F000E091940381E08E0F80939403F0E0EB5627
:10190000FC4F80818093BB0090919403809193035E
:10191000981708F47CCF85E88093BC0009C085EC5B
:101920008093BC001092DE0303C010927103D5DED9
:10193000FF91EF91BF91AF919F918F917F916F91A7
:101940005F914F913F912F910F900BBE0F900FBE63
:101950000F901F9018951F920F920FB60F9211249F
:101960002F933F938F939F93AF93BF938091E00307
:101970009091E103A091E203B091E3033091DF0382
:1019800023E0230F2D3720F40196A11DB11D05C0C2
:1019900026E8230F0296A11DB11D2093DF0380933B
:1019A000E0039093E103A093E203B093E3038091FB
:1019B000E4039091E503A091E603B091E70301965B
:1019C000A11DB11D8093E4039093E503A093E6036A
:1019D000B093E703BF91AF919F918F913F912F916A
:1019E0000F900FBE0F901F9018952FB7F89460912D
:1019F000E0037091E1038091E2039091E3032FBF34
:101A000008953FB7F8948091E4039091E503A09185
:101A1000E603B091E70326B5A89B05C02F3F19F058
:101A20000196A11DB11D3FBF6627782F892F9A2FE0
:101A3000620F711D811D911D42E0660F771F881F87
:101A4000991F4A95D1F70895CF92DF92EF92FF92B6
:101A5000CF93DF936B017C01D4DFEB01C114D10480
:101A6000E104F10479F00ED5CCDF6C1B7D0B683EF0
:101A70007340A0F381E0C81AD108E108F108C85109
:101A8000DC4FECCFDF91CF91FF90EF90DF90CF90C4
:101A900008958230910538F0880F991F880F991F9B
:101AA00005970197F1F70895789484B5826084BD15
:101AB00084B5816084BD85B5826085BD85B5816052
:101AC00085BDEEE6F0E0808181608083E1E8F0E0B2
:101AD0001082808182608083808181608083E0E8E1
:101AE000F0E0808181608083E1EBF0E080818460C0
:101AF0008083E0EBF0E0808181608083E1E9F0E0C9
:101B0000808182608083808181608083E0E9F0E071
:101B1000808181608083E1EAF0E08081826080835F
:101B2000808181608083E0EAF0E080818160808351
:101B3000E1E2F1E080818260808380818160808346
:101B4000E0E2F1E0808181608083EAE7F0E080817B
:101B500084608083808182608083808181608083D3
:101B60008081806880831092C1000895863308F0D8
:101B7000865320917B00982F9870277F922B90930B
:101B80007B0087702091120290E4299F900111241C
:101B9000822B80937C0080917A00806480937A000D
:101BA00080917A0086FDFCCF8091780020917900A9
:101BB00090E0922B089590E0FC013197E231F1051D
:101BC00008F04BC0E658FF4F65C6809180008F77C4
:101BD00003C0809180008F7D809380000895809164
:101BE0008000877FF9CF84B58F7702C084B58F7D61
:101BF00084BD08958091B0008F7703C08091B000BC
:101C00008F7D8093B0000895809190008F7707C0FA
:101C1000809190008F7D03C080919000877F80939A
:101C2000900008958091A0008F7707C08091A00058
:101C30008F7D03C08091A000877F8093A0000895CE
:101C4000809120018F7707C0809120018F7D03C094
:101C500080912001877F809320010895CF93DF93A7
:101C600090E0FC01E25AFE4F2491FC01EC55FE4F3E
:101C70008491882349F190E0880F991FFC01EC5F63
:101C8000FD4FA591B49186519E4FFC01C591D49111
:101C90009FB7611108C0F8948C91209582238C9392
:101CA000888182230AC0623051F4F8948C91322FDB
:101CB000309583238C938881822B888304C0F89489
:101CC0008C91822B8C939FBFDF91CF9108950F93BE
:101CD0001F93CF93DF931F92CDB7DEB7282F30E04D
:101CE000F901E85EFE4F8491F901E25AFE4F14912A
:101CF000F901EC55FE4F04910023C1F0882319F03F
:101D0000698359DF6981E02FF0E0EE0FFF1FE65194
:101D1000FE4FA591B4919FB7F8948C91611103C0C7
:101D20001095812301C0812B8C939FBF0F90DF9171
:101D3000CF911F910F910895FC01818D228D90E02C
:101D4000805C9F4F821B91098F7399270895FC0136
:101D5000918D828D981731F0828DE80FF11D858D60
:101D600090E008958FEF9FEF0895FC01918D828D93
:101D7000981761F0828DDF01A80FB11D5D968C91DF
:101D8000928D9F5F9F73928F90E008958FEF9FEFEA
:101D900008958AE690E1892B39F080E090E0892B64
:101DA00019F098D1811125C080E090E0892B41F095
:101DB00080E090E0892B21F00E94000081111CC07E
:101DC00080E090E0892B41F080E090E0892B21F0C9
:101DD0000E940000811113C080E090E0892BA1F0E7
:101DE00080E090E0892B81F00E94000081110AC000
:101DF00008950E940000D8CF0E940000E1CF0E9409
:101E00000000EACF0C9400000895FC01848DDF01EE
:101E1000A80FB11DA35ABF4F2C91848D90E001965D
:101E20008F739927848FA689B7892C93A089B1894C
:101E30008C9180648C93938D848D981306C0028856
:101E4000F389E02D80818F7D80830895CF93DF9388
:101E5000EC01888D8823C1F0EA89FB89808185FDAA
:101E600005C0A889B9898C9186FD0EC00FB607FC04
:101E7000F5CF808185FFF2CFA889B9898C9185FF44
:101E8000EDCFCE01C2DFE8CFDF91CF910895CF92A1
:101E9000DF92FF920F931F93CF93DF931F92CDB7E3
:101EA000DEB76C0181E0D60158968C9358975B960B
:101EB0009C915B975C968C915C97981307C05096A9
:101EC000ED91FC915197808185FD2DC0F601038D28
:101ED00010E00F5F1F4F0F731127F02EF601848D56
:101EE000F81210C00FB607FCF9CFD6015096ED914D
:101EF000FC915197808185FFF1CFC601698385DF11
:101F00006981ECCF838DE80FF11DE35AFF4F6083A9
:101F1000D6015B960C935B975296ED91FC9153978B
:101F2000808180620CC0D6015696ED91FC91579746
:101F300060835096ED91FC915197808180648083FD
:101F400081E090E00F90DF91CF911F910F91FF9072
:101F5000DF90CF900895BF92CF92DF92EF92FF92E1
:101F6000CF93DF93EC016A017B01B22EE889F989F6
:101F700082E08083411581EE58076105710599F073
:101F800060E079E08DE390E0A701960145D421500F
:101F900031094109510956954795379527952115DE
:101FA00080E1380790F0E889F989108260E874E8E8
:101FB0008EE190E0A70196012FD42150310941090B
:101FC00051095695479537952795EC85FD853083C2
:101FD000EE85FF852083188EEC89FD89B082EA8921
:101FE000FB89808180618083EA89FB8980818860A8
:101FF0008083EA89FB89808180688083EA89FB8904
:1020000080818F7D8083DF91CF91FF90EF90DF9073
:10201000CF90BF9008951F920F920FB60F92112488
:102020000BB60F922F938F939F93EF93FF93E091B3
:10203000F803F091F9038081E091FE03F091FF0332
:1020400082FD12C09081809101048F5F8F73209177
:102050000204821751F0E0910104F0E0E851FC4FD6
:10206000958F8093010401C08081FF91EF919F9132
:102070008F912F910F900BBE0F900FBE0F901F905E
:1020800018951F920F920FB60F9211240BB60F9254
:102090002F933F934F935F936F937F938F939F9370
:1020A000AF93BF93EF93FF9388EE93E0AEDEFF9183
:1020B000EF91BF91AF919F918F917F916F915F91C0
:1020C0004F913F912F910F900BBE0F900FBE0F902D
:1020D0001F90189588EE93E02FDE21E0892B09F4FC
:1020E00020E0822F08951092EB031092EA0388EE0D
:1020F00093E0A0E0B0E08093EC039093ED03A09315
:10210000EE03B093EF0387E492E09093E9038093AA
:10211000E80385EC90E09093F5038093F40384EC5E
:1021200090E09093F7038093F60380EC90E0909317
:10213000F9038093F80381EC90E09093FB03809384
:10214000FA0382EC90E09093FD038093FC0386EC0D
:1021500090E09093FF038093FE031092010410928D
:1021600002041092030410920404089508959CDC64
:10217000FDDF0E948C05C9ECDEE00E94D0052097AF
:10218000E1F307DEFACFCF92DF92EF92FF920F9347
:102190001F93CF93DF936C017A01EB01E60EF71EDC
:1021A00000E010E0CE15DF0561F06991D601ED91F8
:1021B000FC910190F081E02DC6011995080F191FBF
:1021C000F1CFC801DF91CF911F910F91FF90EF9058
:1021D000DF90CF9008956115710581F0DB010D90BE
:1021E0000020E9F7AD0141505109461B570BDC01B6
:1021F000ED91FC910280F381E02D199480E090E054
:102200000895DC01ED91FC910190F081E02D19948D
:1022100063E572E0E0CF8F929F92AF92BF92CF9230
:10222000DF92EF92FF920F931F93CF93DF93CDB77F
:10223000DEB7A1970FB6F894DEBF0FBECDBF7C010D
:10224000C42EE52FCB01D22E19A221E02D1510F0BE
:102250002AE0D22E8E010F5D1F4F8D2C912CA12CC8
:10226000B12C6C2D7E2FA5019401D6D28C2DD29E3F
:1022700080191124015011098A3014F4805D01C0C5
:10228000895CF8018083211531054105510521F054
:10229000C22EE32FCA01E5CFB801C7019CDFA1968A
:1022A0000FB6F894DEBF0FBECDBFDF91CF911F9167
:1022B0000F91FF90EF90DF90CF90BF90AF909F90E5
:1022C0008F900895CF92DF92EF92FF920F931F931A
:1022D000CF93DF93EC016A017B012115310579F47D
:1022E000E881F9810190F081E02D642FDF91CF9199
:1022F0001F910F91FF90EF90DF90CF9019942A30AB
:102300003105D9F477FF18C06DE27BDF8C014427DB
:102310005527BA014C195D096E097F092AE0CE01E3
:102320007ADF800F911FDF91CF911F910F91FF9066
:10233000EF90DF90CF9008952AE0B701A601CE017B
:10234000DF91CF911F910F91FF90EF90DF90CF9091
:1023500062CF0F931F93CF93DF93EC01B3DF8C0118
:10236000CE0156DF800F911FDF91CF911F910F910A
:102370000895611571058105910509F0FBC2089565
:10238000CF93DF9300D01F92CDB7DEB79B01AC0196
:10239000611571058105910559F069833A834B8375
:1023A0005C83E5D229813A814B815C8157D203C09D
:1023B00060E070E0CB010F900F900F900F90DF91D5
:1023C000CF910895CF92DF92EF92FF926B017C0143
:1023D00062177307840795075CF4CA01B9016C1989
:1023E0007D098E099F09CCDF6C0D7D1D8E1D9F1D03
:1023F000FF90EF90DF90CF9008954F925F926F9291
:102400007F92AF92BF92CF92DF92EF92FF920F93A3
:102410001F93CF93DF93CDB7DEB729013A01621B3B
:10242000730B840B950B2A893B894C895D892A198A
:102430003B094C095D092A8B3B8B4C8B5D8B9B01C7
:10244000AC016A897B898C899D89CBD1E418F50818
:1024500006091709A801970101D22A0D3B1D4C1D41
:102460005D1DCA01B901DF91CF911F910F91FF90BE
:10247000EF90DF90CF90BF90AF907F906F905F9084
:102480004F90089508955058BB27AA270ED008C131
:10249000F9D030F0FED020F031F49F3F11F41EF45B
:1024A000EEC00EF4E095E7FBE4C0E92F0AD180F31B
:1024B000BA17620773078407950718F071F49EF541
:1024C00022C10EF4E0950B2EBA2FA02D0B01B901FD
:1024D00090010C01CA01A0011124FF27591B99F09A
:1024E000593F50F4503E68F11A16F040A22F232FA6
:1024F000342F4427585FF3CF469537952795A795F6
:10250000F0405395C9F77EF41F16BA0B620B730B9C
:10251000840BBAF09150A1F0FF0FBB1F661F771F0D
:10252000881FC2F70EC0BA0F621F731F841F48F4C2
:10253000879577956795B795F7959E3F08F0B3CF48
:102540009395880F08F09927EE0F97958795089532
:102550006CD008F481E00895BCD088F09F5790F0CB
:10256000B92F9927B751A0F0D1F0660F771F881FB8
:10257000991F1AF0BA95C9F712C0B13081F0C3D0D3
:10258000B1E00895C0C0672F782F8827B85F39F071
:10259000B93FCCF3869577956795B395D9F73EF417
:1025A00090958095709561957F4F8F4F9F4F0895BF
:1025B000E89409C097FB3EF49095809570956195DD
:1025C0007F4F8F4F9F4F9923A9F0F92F96E9BB2793
:1025D0009395F695879577956795B795F111F8CF0F
:1025E000FAF4BB0F11F460FF1BC06F5F7F4F8F4F7A
:1025F0009F4F16C0882311F096E911C0772321F070
:102600009EE8872F762F05C0662371F096E8862F07
:1026100070E060E02AF09A95660F771F881FDAF75E
:10262000880F9695879597F90895990F0008550F8B
:10263000AA0BE0E8FEEF16161706E807F907C0F048
:1026400012161306E407F50798F0621B730B840B50
:10265000950B39F40A2661F0232B242B252B21F42A
:1026600008950A2609F4A140A6958FEF811D811DCA
:10267000089597F99F6780E870E060E008959FEF04
:1026800080EC089500240A94161617061806090609
:10269000089500240A9412161306140605060895D8
:1026A000092E0394000C11F4882352F0BB0F40F460
:1026B000BF2B11F460FF04C06F5F7F4F8F4F9F4FA0
:1026C000089557FD9058440F551F59F05F3F71F022
:1026D0004795880F97FB991F61F09F3F79F0879589
:1026E0000895121613061406551FF2CF4695F1DF12
:1026F00008C0161617061806991FF1CF86957105A2
:10270000610508940895E894BB2766277727CB01D5
:1027100097F908958ADF08F48FEF08950BD0C0CFA2
:10272000B1DF28F0B6DF18F0952309F0A2CFA7CFCC
:102730001124EACFC6DFA0F3959FD1F3950F50E0A7
:10274000551F629FF001729FBB27F00DB11D639F63
:10275000AA27F00DB11DAA1F649F6627B00DA11D09
:10276000661F829F2227B00DA11D621F739FB00DAF
:10277000A11D621F839FA00D611D221F749F33271F
:10278000A00D611D231F849F600D211D822F762FB8
:102790006A2F11249F5750408AF0E1F088234AF0B5
:1027A000EE0FFF1FBB1F661F771F881F9150504001
:1027B000A9F79E3F510570F05CCFA6CF5F3FECF3C9
:1027C000983EDCF3869577956795B795F795E795ED
:1027D0009F5FC1F7FE2B880F911D9695879597F9FE
:1027E0000895DB018F939F935BD0BF91AF91A29F20
:1027F000800D911DA39F900DB29F900D11240895FF
:10280000991B79E004C0991F961708F0961B881F42
:102810007A95C9F780950895A1E21A2EAA1BBB1BD1
:10282000FD010DC0AA1FBB1FEE1FFF1FA217B3079C
:10283000E407F50720F0A21BB30BE40BF50B661FB2
:10284000771F881F991F1A9469F760957095809576
:1028500090959B01AC01BD01CF010895052E97FB1A
:1028600016F400940FD057FD05D0D6DF07FC02D038
:1028700046F408C050954095309521953F4F4F4FF5
:102880005F4F089590958095709561957F4F8F4F1C
:102890009F4F0895EE0FFF1F0590F491E02D1994BE
:1028A0000DD0A59F900DB49F900DA49F800D911DFC
:1028B000112408950790F691E02D1994A29FB0017C
:1028C000B39FC001A39F700D811D1124911DB29F64
:1028D000700D811D1124911D08958F929F92AF92CA
:1028E000BF92CF92DF92EF92FF92CF93DF93EC01F2
:1028F000688179818A819B816115710581059105C6
:1029000021F464E279ED8BE597E02DE133EF41E0CE
:1029100050E0A4DF49015A019B01AC01A7EAB1E4F0
:10292000BFDF6B017C01ACEEB4EFA50194015AD07E
:10293000C60ED71EE81EF91EF7FE06C081E0C81AB3
:10294000D108E10880E8F80AC882D982EA82FB82CD
:10295000C701B6019F77DF91CF91FF90EF90DF9095
:10296000CF90BF90AF909F908F900895B6CF80E0AA
:1029700092E0B3CF60930002709301028093020251
:102980009093030208950F931F93CF93DF93E091E9
:102990008704F0918804238121FF1BC0EC0100E033
:1029A00010E089916091870470918804DB0118968A
:1029B000ED91FC911997882331F01995892B89F3B2
:1029C0000FEF1FEFEECF8AE01995892B11F4C801A4
:1029D00002C08FEF9FEFDF91CF911F910F9108956C
:1029E000B7FF5ECF5DDF821B930B0895F894FFCF96
:1029F000010000000F0AD7233C6666663F9A99994A
:102A00003F64014D435032353135204E4F542063E1
:102A10006F6E666967757265642070726F7065723B
:102A20006C7900000000007C0A500A250A2D0A403B
:102A30000A4F0A00000000470FC3109C0EB50EA7F6
:102A40000E260F0D0A006E616E00696E66006F76CD
:042A500066002E00EE
:00000001FF
