:10000000D2C00000FEC00000FCC00000FAC000002A
:10001000F8C00000F6C00000F4C00000F2C000000C
:10002000F0C00000EEC00000ECC00000EAC000001C
:10003000E8C00000E6C00000E4C00000E2C000002C
:10004000E0C00000DEC00000DCC00000DAC000003C
:10005000D8C00000D6C00000D4C0000099C5000080
:10006000D0C0000024C4000058C40000CAC0000072
:10007000C8C00000C6C00000C4C00000C2C000006C
:10008000C0C00000BEC00000BCC00000BAC000007C
:10009000B8C00000B6C00000B4C00000B2C000008C
:1000A000B0C00000AEC00000ACC00000AAC000009C
:1000B000A8C00000A6C00000A4C00000A2C00000AC
:1000C000A0C000009EC000009CC000009AC00000BC
:1000D00098C0000096C0000094C0000092C00000CC
:1000E00090C00000010210202008081020401020BD
:1000F00040800201020108040201010204081020EC
:1001000040808040201008040201800402018040E9
:100110002010080402010804020101020408102052
:1001200040800102040810204080050505050705F0
:1001300008080808020202020A0A08080404040463
:10014000010101010101010103030303030303038F
:10015000040707070C0C0C0C0C0C0C0C020202021E
:1001600006060606060606060B0B0B0B0B0B0B0B07
:1001700000002200250028002B002E003100340052
:1001800002010000050108010B010000210024000C
:1001900027002A002D003000330001010000040177
:1001A00007010A01BF0411241FBECFEFD1E2DEBF59
:1001B000CDBF00E00CBF12E0A0E0B2E0E2E9FDE05C
:1001C00000E00BBF02C007900D92A434B107D9F72D
:1001D00022E0A4E4B2E001C01D92AC3FB207E1F717
:1001E00011E0C6EAD1E000E005C022970109FE0156
:1001F0000BBF9CD5C43AD10780E00807B1F703D400
:10020000C6C5FECEF4D04FEF64E680E613D140E0E1
:1002100060EE8FE00FC1BF92CF92DF92EF92FF921C
:100220000F931F93CF93DF93CDB7DEB72A970FB607
:10023000F894DEBF0FBECDBF0983C12E1A832B8376
:100240003C834D835E836F83788789879A8780E3B9
:10025000B9D0982F9870B92E83FD26C0602F629573
:10026000660F607E82E3D1D0602F669566956695B5
:1002700081E3CBD0612F6F7085E3C7D07E01E3E0CF
:10028000EE0EF11C00E010E0D12C0C151D054CF415
:10029000F70161917F0186E3800FB7D00F5F1F4F99
:1002A000F4CF81E0E2D002C0BB24B3948B2D2A9618
:1002B0000FB6F894DEBF0FBECDBFDF91CF911F9177
:1002C0000F91FF90EF90DF90CF90BF9008950F9324
:1002D0001F93CF93DF93EC018CE274D080FF29C091
:1002E00040E061E08CE2A6D081E66CD0182F110FBF
:1002F000110F110F188382E665D08295869587705D
:10030000812B888385E65ED08F70898300E010E0C2
:10031000898190E00817190754F486E6800F52D0BF
:10032000FE01E00FF11F82830F5F1F4FF1CF80E0CE
:1003300001C082E0DF91CF911F910F9108950F933B
:100340001F93CF93DF93CDB7DEB72A970FB6F894FC
:10035000DEBF0FBECDBF8C01CE010196B8DF81118B
:100360001EC09B81F801908390819083908190833F
:10037000908190839F8191839181918391819183D9
:10038000918191839081943618F490819F5F90833E
:10039000F8019181943618F491819F5F91832A9698
:1003A0000FB6F894DEBF0FBECDBFDF91CF911F9186
:1003B0000F91089528980895289A0895FBDF80ECFE
:1003C00069D0FACF1F93CF93DF931F92CDB7DEB7DB
:1003D000182FF0DF83E05ED0812F5CD060D089835E
:1003E000EBDF89810F90DF91CF911F9108954CD061
:1003F000E5DF8EE0E7DF807E803829F080E092E064
:1004000099D481E0089580E008951F93CF93DF93FE
:100410001F92CDB7DEB7182F6983CCDF82E03AD0C8
:10042000812F38D06981862F35D00F90DF91CF9101
:100430001F91C2CF1F93CF93DF931F921F92CDB70F
:10044000DEB7182F4A836983B5DF85E023D0812F7B
:1004500021D06981862F1ED04A81842F1BD00F9016
:100460000F90DF91CF911F91A7CFCF93DF931F9272
:10047000CDB7DEB789839EDF8981877080680AD017
:100480000F90DF91CF9198CF84B1876084B982E5D6
:100490008CBD08958EBD0DB407FEFDCF0895CF939A
:1004A000DF931F92CDB7DEB78FEF8EBD0DB407FE81
:1004B000FDCF8EB5898389810F90DF91CF9108950B
:1004C00061E085E34CD026E040E855E260E070E072
:1004D00080E592E08CD196DE82E18093460281E055
:1004E0008093470282E98093480208950F931F93F7
:1004F0000091460210914702209148023091490232
:1005000040914A0250914B0260914C0270914D0211
:1005100080914E0290914F027EDE84E492E00FDFE4
:1005200081111AC0609144024AE050E080E592E0F7
:1005300029D360E272E080E592E0ADD2609145029D
:100540004AE050E080E592E01DD363E272E080E58E
:1005500092E01F910F91A3C21F910F910895CF9325
:10056000DF9390E0FC01EC51FF4F2491FC01E65D2C
:10057000FE4F8491882349F190E0880F991FFC0178
:10058000E657FE4FA591B49180599E4FFC01C5914D
:10059000D4919FB7611108C0F8948C912095822363
:1005A0008C93888182230AC0623051F4F8948C9134
:1005B000322F309583238C938881822B888304C0CB
:1005C000F8948C91822B8C939FBFDF91CF910895EB
:1005D000FC01818D228D90E0805C9F4F821B9109F0
:1005E0008F7399270895FC01918D828D981731F0B2
:1005F000828DE80FF11D858D90E008958FEF9FEFBC
:100600000895FC01918D828D981761F0828DDF0134
:10061000A80FB11D5D968C91928D9F5F9F73928FF5
:1006200090E008958FEF9FEF089586EB94E0892B7B
:1006300039F080E090E0892B19F098D1811125C024
:1006400080E090E0892B41F080E090E0892B21F060
:100650000E94000081111CC080E090E0892B41F0D5
:1006600080E090E0892B21F00E940000811113C0EE
:1006700080E090E0892BA1F080E090E0892B81F070
:100680000E94000081110AC008950E940000D8CF86
:100690000E940000E1CF0E940000EACF0C9400000D
:1006A0000895FC01848DDF01A80FB11DA35ABF4F2F
:1006B0002C91848D90E001968F739927848FA68961
:1006C000B7892C93A089B1898C9180648C93938D88
:1006D000848D981306C00288F389E02D80818F7D78
:1006E00080830895CF93DF93EC01888D8823C1F038
:1006F000EA89FB89808185FD05C0A889B9898C912B
:1007000086FD0EC00FB607FCF5CF808185FFF2CFC6
:10071000A889B9898C9185FFEDCFCE01C2DFE8CFE2
:10072000DF91CF910895CF92DF92FF920F931F93A5
:10073000CF93DF931F92CDB7DEB76C0181E0D60176
:1007400058968C9358975B969C915B975C968C918E
:100750005C97981307C05096ED91FC91519780815A
:1007600085FD2DC0F601038D10E00F5F1F4F0F7345
:100770001127F02EF601848DF81210C00FB607FC79
:10078000F9CFD6015096ED91FC915197808185FF6C
:10079000F1CFC601698385DF6981ECCF838DE80FD6
:1007A000F11DE35AFF4F6083D6015B960C935B9774
:1007B0005296ED91FC915397808180620CC0D601D6
:1007C0005696ED91FC91579760835096ED91FC9170
:1007D000519780818064808381E090E00F90DF9169
:1007E000CF911F910F91FF90DF90CF900895BF920E
:1007F000CF92DF92EF92FF92CF93DF93EC016A01E9
:100800007B01B22EE889F98982E08083411581EE6F
:1008100058076105710599F060E079E08DE390E09B
:10082000A701960161D2215031094109510956951C
:10083000479537952795211580E1380790F0E8898D
:10084000F989108260E874E88EE190E0A7019601D2
:100850004BD2215031094109510956954795379599
:100860002795EC85FD853083EE85FF852083188EE6
:10087000EC89FD89B082EA89FB898081806180836F
:10088000EA89FB89808188608083EA89FB8980818D
:1008900080688083EA89FB8980818F7D8083DF91F6
:1008A000CF91FF90EF90DF90CF90BF9008951F926F
:1008B0000F920FB60F9211240BB60F922F938F93B6
:1008C0009F93EF93FF93E0916002F091610280812A
:1008D000E0916602F091670282FD12C090818091E2
:1008E00069028F5F8F7320916A02821751F0E09145
:1008F0006902F0E0E05BFD4F958F8093690201C0D3
:100900008081FF91EF919F918F912F910F900BBE5E
:100910000F900FBE0F901F9018951F920F920FB659
:100920000F9211240BB60F922F933F934F935F9327
:100930006F937F938F939F93AF93BF93EF93FF93A7
:1009400080E592E0AEDEFF91EF91BF91AF919F9174
:100950008F917F916F915F914F913F912F910F9068
:100960000BBE0F900FBE0F901F90189580E592E080
:100970002FDE21E0892B09F420E0822F08951092C8
:1009800053021092520288EE93E0A0E0B0E0809310
:10099000540290935502A0935602B093570289E2F5
:1009A00092E0909351028093500285EC90E09093F6
:1009B0005D0280935C0284EC90E090935F028093F0
:1009C0005E0280EC90E0909361028093600281EC83
:1009D00090E0909363028093620282EC90E09093A7
:1009E00065028093640286EC90E0909367028093A6
:1009F00066021092690210926A0210926B021092C3
:100A00006C02089508950ED1FDDF5ADDC5E1D3E0F3
:100A10006DDD2097E9F309DEFBCFCF92DF92EF92F5
:100A2000FF920F931F93CF93DF936C017A01EB0139
:100A3000E60EF71E00E010E0CE15DF0561F06991CB
:100A4000D601ED91FC910190F081E02DC601199540
:100A5000080F191FF1CFC801DF91CF911F910F919E
:100A6000FF90EF90DF90CF9008956115710581F0B0
:100A7000DB010D900020E9F7AD0141505109461B03
:100A8000570BDC01ED91FC910280F381E02D19946C
:100A900080E090E00895E9CF65E372E0E6CF0F9340
:100AA0001F93CF93DF93EC01E0DF8C01CE01F4DFE5
:100AB000800F911FDF91CF911F910F9108958F9219
:100AC0009F92AF92BF92CF92DF92EF92FF920F93DD
:100AD0001F93CF93DF93CDB7DEB7A1970FB6F894EE
:100AE000DEBF0FBECDBF7C01C42EE52FCB01D22EC1
:100AF00019A221E02D1510F02AE0D22E8E010F5DF3
:100B00001F4F8D2C912CA12CB12C6C2D7E2FA5016B
:100B10009401EAD08C2DD29E801911240150110924
:100B20008A3014F4805D01C0895CF801808321154E
:100B300031054105510521F0C22EE32FCA01E5CF51
:100B4000B801C70192DFA1960FB6F894DEBF0FBEC1
:100B5000CDBFDF91CF911F910F91FF90EF90DF906C
:100B6000CF90BF90AF909F908F9008952115310541
:100B700041F4DC01ED91FC910190F081E02D642FB6
:100B800019949DCF9A01462F50E060E070E0EECFBF
:100B90001F920F920FB60F9211242F933F938F93B2
:100BA0009F93AF93BF938091EE029091EF02A0913B
:100BB000F002B091F1023091ED0223E0230F2D37C6
:100BC00020F40196A11DB11D05C026E8230F029651
:100BD000A11DB11D2093ED028093EE029093EF02D0
:100BE000A093F002B093F1028091F2029091F3028F
:100BF000A091F402B091F5020196A11DB11D809360
:100C0000F2029093F302A093F402B093F502BF9125
:100C1000AF919F918F913F912F910F900FBE0F90A9
:100C20001F901895789484B5826084BD84B58160E6
:100C300084BD85B5826085BD85B5816085BDEEE6E4
:100C4000F0E0808181608083E1E8F0E010828081C3
:100C500082608083808181608083E0E8F0E0808131
:100C600081608083E1EBF0E0808184608083E0EB51
:100C7000F0E0808181608083E1E9F0E08081826042
:100C80008083808181608083E0E9F0E08081816001
:100C90008083E1EAF0E080818260808380818160EE
:100CA0008083E0EAF0E0808181608083E1E2F1E02E
:100CB000808182608083808181608083E0E2F1E0D6
:100CC000808181608083EAE7F0E0808184608083B6
:100CD0008081826080838081816080838081806860
:100CE00080831092C1000895A1E21A2EAA1BBB1B9B
:100CF000FD010DC0AA1FBB1FEE1FFF1FA217B307E8
:100D0000E407F50720F0A21BB30BE40BF50B661FFD
:100D1000771F881F991F1A9469F7609570958095C1
:100D200090959B01AC01BD01CF0108950790F6910C
:100D3000E02D19940F931F93CF93DF93E091F80266
:100D4000F091F902238121FF1BC0EC0100E010E0CB
:100D500089916091F8027091F902DB011896ED918A
:100D6000FC911997882331F01995892B89F30FEF9E
:100D70001FEFEECF8AE01995892B11F4C80102C04C
:100D80008FEF9FEFDF91CF911F910F910895F8940E
:020D9000FFCF93
:100D92004D435032353135204E4F5420636F6E66CD
:100DA2006967757265642070726F7065726C790024
:100DB2002C20002E000000000093030D05E8020124
:100DC20003F30272030D0A006E616E00696E660023
:040DD2006F766600D2
:00000001FF
