:1000000010C100003FC100003DC100003BC1000025
:1000100039C1000037C1000035C1000033C1000004
:1000200031C100002FC100002DC100002BC1000014
:1000300029C1000027C1000025C1000023C1000024
:1000400021C1000013C600001DC100001BC100003B
:1000500019C1000017C1000015C100000C94D00A9E
:1000600011C100000C94FF0D0C94350E0BC1000063
:1000700009C1000007C1000005C1000003C1000064
:1000800022C60000FFC00000FDC00000FBC0000051
:10009000F9C00000F7C00000F5C000000C94A209F0
:1000A000F1C00000EFC000003BC60000EBC0000044
:1000B000E9C00000E7C00000E5C000005EC6000027
:1000C000E1C00000DFC00000DDC00000DBC00000B8
:1000D000D9C00000D7C00000D5C00000D3C00000C8
:1000E000D1C0000016051B05200525052A052F0592
:1000F0003405E70BEA0BD90BDD0BE30B210CEE0B00
:10010000F20BF80BFC0B000C060C0A0C0E0C210C6D
:10011000140C180C1C0C00000A0B02090C0D0E0824
:1001200007030401000000000000000000000000C0
:1001300000000000000000000000000000000000BF
:10014000000012111000000000000000000000007C
:10015000000000000000000000000000010210206C
:1001600020080810204010204080020102010804ED
:100170000201010204081020408080402010080481
:1001800002018004020180402010080402010804DA
:10019000020101020408102040800102040810201E
:1001A0004080050505050705080808080202020247
:1001B0000A0A080804040404010101010101010103
:1001C0000303030303030303040707070C0C0C0CCE
:1001D0000C0C0C0C020202020606060606060606B7
:1001E0000B0B0B0B0B0B0B0B000022002500280048
:1001F0002B002E003100340002010000050108012F
:100200000B0100002100240027002A002D003000EF
:10021000330001010000040107010A015805070924
:10022000670E11241FBECFEFD1E2DEBFCDBF00E0CD
:100230000CBF12E0A0E0B2E0E6EEF4E200E00BBF9B
:1002400002C007900D92A436B107D9F724E0A4E6C6
:10025000B2E001C01D92A338B207E1F712E0C2E29A
:10026000D2E000E006C022970109FE010BBF0E9408
:100270003112CC31D10780E00807A9F70E94AB0EFC
:100280000C947112BDCEF6D24FEF64E680E616D321
:1002900040E060EE8FE012C3BF92CF92DF92EF9208
:1002A000FF920F931F93CF93DF93CDB7DEB72A97BB
:1002B0000FB6F894DEBF0FBECDBF0983C12E1A83DF
:1002C0002B833C834D835E836F83788789879A87EE
:1002D00080E3BBD2982F9870B92E83FD29C0602F80
:1002E0006295660F607E82E3D4D2602F70E083E077
:1002F000759567958A95E1F781E3CBD2612F6F7091
:1003000085E3C7D27E01E3E0EE0EF11C00E010E0D1
:10031000D12C0C151D054CF4F70161917F0186E38A
:10032000800FB7D20F5F1F4FF4CF81E0E2D202C03F
:10033000BB24B3948B2D2A960FB6F894DEBF0FBE64
:10034000CDBFDF91CF911F910F91FF90EF90DF9084
:10035000CF90BF9008950F931F93CF93DF93EC013D
:100360008CE273D280FF2CC040E061E08CE2A6D228
:1003700081E66BD2880F880F880F888382E665D26A
:1003800090E025E0959587952A95E1F72881822BC5
:10039000888385E65AD28F70898300E010E08981D6
:1003A00090E00817190754F486E6800F4ED2FE013C
:1003B000E00FF11F82830F5F1F4FF1CF80E001C07C
:1003C00082E0DF91CF911F910F910895CF92DF923C
:1003D000EF92FF920F931F93CF93DF93CDB7DEB7CA
:1003E0002A970FB6F894DEBF0FBECDBF7C018B01FC
:1003F0006A01CE010196AFDF811117C0998191305A
:1004000031F0923091F49B81F60190830EC06B81A4
:100410005C814D813E812F819885F70160835183F6
:10042000F80140833183228393832A960FB6F89490
:10043000DEBF0FBECDBFDF91CF911F910F91FF9017
:10044000EF90DF90CF900895982F809164028111F2
:1004500003C081E0913009F080E090936402089538
:100460000F931F93CF93DF93CDB7DEB72A970FB6C5
:10047000F894DEBF0FBECDBF05E010E02B813C81BC
:100480004D815E816F81788589859A8505DF2A9601
:100490000FB6F894DEBF0FBECDBFDF91CF911F9195
:1004A0000F91089561E089E30E94220C61E085E3E9
:1004B0000E94220C61E08BE30E94220C61E08CE33D
:1004C0000E94220C61E08AE30E94220C61E08DE32D
:1004D0000E94220C61E08AE30E945B0C61E08BE3E6
:1004E0000E945B0C61E08CE30E945B0C10920701A0
:1004F000089580917202909173020895CF93DF93D3
:10050000EC01613011F460E003C0623021F461E07D
:1005100089E30E945B0C4091110250E0CE014C1720
:100520005D0708F4CA01DF91CF9170C1982F28E0D0
:1005300030E080E0880F492F4170842B9695215040
:100540003109C1F708950F931F93CF93DF9300D024
:100550001F92CDB7DEB760E08DE30E945B0C60E0D8
:100560008BE30E945B0C84E190E00E94620B06E04A
:1005700011E0F80180818C838C81D8DF8C8361E06D
:100580008BE30E945B0C84E190E00E94620BF80117
:1005900080818B838B81CADF8B8361E08DE30E9436
:1005A0005B0C2C818B8190E0922B9A8389838981CB
:1005B0009A810F900F900F900F90DF91CF911F9124
:1005C0000F9108958091110261E090E097DF6CED4A
:1005D00075E080E090E00E943D0B60E08CE30E94BB
:1005E0005B0C61E070E080E090E00E943D0B61E018
:1005F0008CE30E945B0CA7DF9093710280937002E2
:100600008091110262E090E079DF6CED75E080E0AE
:1006100090E00E943D0B97DF9093730280937202EB
:1006200008954F925F926F927F928F929F92AF92B6
:10063000BF92CF92DF92EF92FF920F931F93982E6B
:1006400082DFE0907202F09073020027F7FC0095C1
:10065000102F2091700230917102442737FD409590
:10066000542FBC01882777FD8095982F1F921F92E9
:100670001F92EFEFEF93A12CB12C65010E94D40FD4
:10068000292D30E0261B370BB901882777FD80958F
:10069000982F0E94B1106B017C010F900F900F906A
:1006A0000F9020E030E0A9010E947F1087FF02C078
:1006B00081E001C082E08093650220E030E0A90182
:1006C000C701B6010E946111181624F0F7FAF094E0
:1006D000F7F8F09460910402772767FD7095872FF3
:1006E000972F0E94B1109B01AC01C701B6010E9477
:1006F0007F1087FF0DC06091650280E090E0FEDE14
:1007000010926A0210926B0210926C0210926D02AB
:100710002091050230910602409107025091080293
:10072000C701B6010E94651120916A0230916B02E7
:1007300040916C0250916D020E941B104B015C01B4
:1007400060936A0270936B0280936C0290936D02C7
:1007500020910D0230910E0240910F025091100233
:10076000C701B6010E9465112B013C0120910902CD
:1007700030910A0240910B0250910C02C501B40164
:100780000E9465119B01AC01C301B2010E941B10C4
:100790004B015C0120E030E0A9010E9461111816B4
:1007A0001CF4C501B40103C0C501B40190580E94F6
:1007B0008310CB0170936F0260936E02C092660249
:1007C000D0926702E0926802F0926902609165023D
:1007D00095DE80916E0290916F021F910F91FF90B4
:1007E000EF90DF90CF90BF90AF909F908F907F90D1
:1007F0006F905F904F900895DC01ED91FC91019016
:10080000F081E02D199487E193E0D9C4CF93C82FEC
:1008100068E270E087E193E0E5D460E070E087E1B2
:1008200093E0EADF6C2F772767FD709587E193E00F
:10083000E3DF87E193E0CF91E8C428980895289AF0
:100840000895FBDF80EC3DD1FACF1F93CF93DF9368
:100850001F92CDB7DEB7182FF0DF83E032D1812FA2
:1008600030D134D18983EBDF89810F90DF91CF9133
:100870001F91089520D1E5DF8EE0E7DF807E80388C
:1008800031F082E192E00E94441281E0089580E01C
:1008900008951F93CF93DF931F92CDB7DEB7182F24
:1008A0006983CBDF82E00DD1812F0BD16981862F47
:1008B00008D10F90DF91CF911F91C1CF1F93CF939C
:1008C000DF931F921F92CDB7DEB7182F4A8369833B
:1008D000B4DF85E0F6D0812FF4D06981862FF1D086
:1008E0004A81842FEED00F900F90DF91CF911F910E
:1008F000A6CFCF93DF931F92CDB7DEB789839DDF5D
:10090000898187708068DDD00F90DF91CF9197CF7C
:10091000C9DD26E040E855E260E070E080EE93E05B
:100920000E949F0DB0DC24E338E044E853E069E026
:1009300070E088E792E06AD266DF44DEDADD909309
:100940007502809374024AE050E0BC0180EE93E0AF
:100950000E949D0F68EE73E080E090E08ED662E02A
:1009600080E090E0CBDD61E087E06CD761E087E07C
:10097000A2D710927B020895AF92BF92CF92DF92DE
:10098000EF92FF920F931F934BE752E06CE772E0F8
:1009900080E892E01BDD81112EC06091800270E042
:1009A00080E090E01F921F921F921F9224EBA22ED4
:1009B000B12CC12CD12CE12CF12C8701EA9420E040
:1009C00030E0A9010E94D40F88E792E000D3809123
:1009D0007E023ADD0F900F900F900F90813059F406
:1009E00060E087E068D762E370E080E090E045D6A1
:1009F00061E087E060D760917B024AE050E080EEE2
:100A000093E00E94BF0F80917C020BDE90937702EF
:100A10008093760280917B0290E0FC013197E73071
:100A2000F105B0F5EE58FF4F0C9421124AE050E06A
:100A300061E070E031C04AE050E062E070E02CC05C
:100A40004AE050E063E070E027C04AE050E064E034
:100A500070E022C04AE050E065E070E01DC04AE06E
:100A600050E066E070E018C0FBDC4AE050E067E070
:100A700070E080EE93E00E949D0F10927B021F9128
:100A80000F91FF90EF90DF90CF90BF90AF900895BF
:100A90004AE050E068E070E080EE93E01F910F9133
:100AA000FF90EF90DF90CF90BF90AF900C949D0F90
:100AB00088E792E08FC184B1876084B982E58CBDFC
:100AC00008958EBD0DB407FEFDCF0895CF93DF933B
:100AD0001F92CDB7DEB78FEF8EBD0DB407FEFDCFF1
:100AE0008EB5898389810F90DF91CF910895CF9240
:100AF000DF92EF92FF920F931F93CF93DF936C01DE
:100B00008B017A01EC01CD57DD4F888187FF04C04E
:100B1000FB011182108223C02CE02C9DC0012D9D71
:100B2000900D11242881AC01420F511D27FD5A95CB
:100B30002091820230E0421753078CF42881AC01E7
:100B4000420F511D27FD5A959A01FA01EE0FFF1F22
:100B5000E20FF31FE957FD4F208126FD19C0888160
:100B60008F5F88838CE08C9D90018D9D300D1124CA
:100B70008881A901480F511D87FD5A9580918202F5
:100B800090E048175907ACF488818C3034F111C0DB
:100B90002881820F911D27FD9A95FC01EE0FFF1F02
:100BA000E80FF91FE957FD4F808160E08F7383D60E
:100BB000D6CFF80180819181049680349C4918F445
:100BC00080E49CE904C0F801808191810496F701DA
:100BD000918380838FEF888340C0F8018081918169
:100BE0004881B901640F711D47FD7A95AB01FB0186
:100BF000EE0FFF1FE40FF51FE957FD4F41815281B2
:100C0000840F951FF701918380838881A901480F84
:100C1000511D87FD5A95FA01EE0FFF1FE40FF51FD6
:100C2000E957FD4F808186FF18C08881280F311D4C
:100C300087FD3A95F901EE0FFF1FE20FF31FE95709
:100C4000FD4F808161E08F73DF91CF911F910F91F4
:100C5000FF90EF90DF90CF902EC6DF91CF911F9144
:100C60000F91FF90EF90DF90CF9008951F920F9219
:100C70000FB60F9211240BB60F922F933F934F9301
:100C80005F936F937F938F939F93AF93BF93EF93F4
:100C9000FF9348E850E064E870E081E090E027DFEF
:100CA000FF91EF91BF91AF919F918F917F916F9144
:100CB0005F914F913F912F910F900BBE0F900FBE00
:100CC0000F901F9018951F920F920FB60F9211243C
:100CD0000BB60F922F933F934F935F936F937F9336
:100CE0008F939F93AF93BF93EF93FF9348E950E0A7
:100CF00064E970E082E090E0FADEFF91EF91BF914D
:100D0000AF919F918F917F916F915F914F913F91A3
:100D10002F910F900BBE0F900FBE0F901F90189544
:100D20001F920F920FB60F9211240BB60F922F93B2
:100D30003F934F935F936F937F938F939F93AF9363
:100D4000BF93EF93FF9348EA50E064EA70E083E0DA
:100D500090E0CDDEFF91EF91BF91AF919F918F9188
:100D60007F916F915F914F913F912F910F900BBEAB
:100D70000F900FBE0F901F9018951F920F920FB6F5
:100D80000F9211240BB60F922F933F934F935F93C3
:100D90006F937F938F939F93AF93BF93EF93FF9343
:100DA00048E251E064E271E080E090E0A0DEFF9173
:100DB000EF91BF91AF919F918F917F916F915F91D3
:100DC0004F913F912F910F900BBE0F900FBE0F9040
:100DD0001F901895209182022033A0F431E0320F49
:100DE00030938202FC012083822F90E0FC01EE0F01
:100DF000FF1FE80FF91FE957FD4F88EB9BE0928337
:100E0000818308952FEFFC0120830895DF92EF92F4
:100E1000FF920F931F93CF93DF93EC01D62E7A01AD
:100E200089018881803308F067C061E08D2D0AD583
:100E30008881A82FB0E0FD01EE0FFF1FEA0FFB1F16
:100E4000E957FD4F2D2D2F739081907C922B90832D
:100E500060E272E06E197F0977FF02C06D5F7F4F1D
:100E60007595679575956795698340E659E0401BD0
:100E7000510B57FF02C04D5F5F4F559547955595F4
:100E800047954A836CE00E94D7119CE0899FB0018E
:100E9000112420E030E0A901460F571FFA01EE0FA0
:100EA000FF1FE40FF51FE957FD4F908196FD18C015
:100EB0002F5F3F4F2C30310571F790E08130910565
:100EC00021F51092800082E08093810010928500CD
:100ED00010928400B19A80916F00826080936F00BD
:100EE000888190E0FC01EE0FFF1FE80FF91FE95722
:100EF000FD4F8081806480838881DF91CF911F9135
:100F00000F91FF90EF90DF9008958230910569F482
:100F10001092900082E080939100109295001092C0
:100F2000940088BB80937100DBCF8330910569F416
:100F30001092A00082E08093A1001092A500109270
:100F4000A40089BB80937200CBCF892B49F6109205
:100F5000200182E08093210110922501109224014A
:100F60008ABB80937300BCCFFC018081803370F515
:100F7000918128E830E0291B310997FD3395220F34
:100F8000331F220F331F621773077CF0928128E50D
:100F900032E0291B310997FD3395220F331F220FB1
:100FA000331F621773070CF49B0122503109220F83
:100FB000331F4FB7F89490E0FC01EE0FFF1FE80FCE
:100FC000F91FE957FD4F328321834FBF08954F9298
:100FD0005F926F927F92AF92BF92CF92DF92EF9229
:100FE000FF920F931F93CF93DF93EC01603282E067
:100FF00078070CF03FC077FD06C0653B71052CF00B
:1010000064EB70E002C060E070E0898128E830E0C5
:10101000281B310987FD3395220F331F220F331F01
:101020005901CC24B7FCC094DC2C882777FD80952F
:10103000982F2A8148E552E0421B510927FD53951C
:10104000440F551F440F551F2A01662457FC609416
:10105000762C7F926F925F924F9214EBE12EF12CDF
:1010600000E010E020E030E0A9019ED70F900F9043
:101070000F900F90CE01DF91CF911F910F91FF90B4
:10108000EF90DF90CF90BF90AF907F906F905F9088
:101090004F906ACF8091470390E020914803821BD4
:1010A000910908952091480380914703281750F42F
:1010B000E22FF0E0E75BFC4F808190E02F5F209310
:1010C000480308958FEF9FEF0895E09148038091C2
:1010D0004703E81730F4F0E0E75BFC4F808190E0D5
:1010E00008958FEF9FEF08950895CF92DF92EF92CA
:1010F000FF920F931F93CF93DF937C01CB018A0163
:1011000020912303222389F0EB016B01C40ED51E2D
:10111000CC15DD0561F06991D701ED91FC9101904D
:10112000F081E02DC7011995F3CF642FE2D0C801FB
:10113000DF91CF911F910F91FF90EF90DF90CF90B3
:101140000895CF93DF931F92CDB7DEB769832091C7
:1011500023032223D1F020912403203240F021E008
:1011600030E0FC013383228380E090E014C0809162
:101170002503E82FF0E0EA5DFC4F998190838F5FB3
:10118000809325038093240304C061E0CE0101967F
:10119000B0D081E090E00F90DF91CF910895FC01F5
:1011A0001382128248EE53E060E070E0448355837E
:1011B0006683778386E392E091838083089510921B
:1011C000480310924703109225031092240322C073
:1011D00081E08093230360934603109225031092CD
:1011E00024030895F5CF0F93062F21E040912403A7
:1011F00066E273E08091460329D010922503109295
:101200002403109223030F91089561E0ECCF87E14E
:1012100093E0C5CF1092D60381E08093D40310925F
:10122000D30361E084E147D361E085E144D3E9EB96
:10123000F0E080818E7F808380818D7F808388E451
:101240008093B80085E48093BC0008950F934132E9
:1012500008F046C09091D6039111FCCF92E0909394
:10126000D6030093D4039FEF909369031092AE03CB
:101270004093AD03FB016FEA73E0DB019A2F961BED
:10128000941718F491919D93F9CF1092D5039091F2
:10129000D503880F892B8093D5038091D3038130A8
:1012A00041F41092D3038091D5038093BB0085EC69
:1012B00001C085EE8093BC00222321F08091D603EB
:1012C0008230E1F3809169038F3F61F0809169037F
:1012D000803251F080916903803341F483E007C08C
:1012E00081E005C080E003C082E001C084E00F918E
:1012F0000895613298F42091D603243089F46093E4
:101300008B03FC018DE893E0DC012A2F281B2617B4
:1013100018F421912D93F9CF80E0089581E008958C
:1013200082E0089585ED8093BC008091BC0084FD2F
:10133000FCCF1092D603089585EC8093BC001092E8
:10134000D60308951F920F920FB60F9211240BB679
:101350000F922F933F934F935F936F937F938F934E
:101360009F93AF93BF93EF93FF938091B900887FD2
:10137000803609F49CC068F5883209F45BC090F4AB
:10138000803109F454C038F4882309F4F3C088305C
:1013900009F44DC0F2C0883109F44CC0803209F420
:1013A0005DC0EBC0803409F468C048F4803309F4B0
:1013B00055C0883309F0E1C080936903A7C0803528
:1013C00009F44FC0883509F45DC0883409F0D5C0F0
:1013D000D3C0883909F4C4C0A8F4883709F467C0B9
:1013E00038F4883609F463C0803709F460C0C5C09A
:1013F000883809F4B5C0803909F45FC0803809F035
:10140000BCC05BC0803B09F483C038F4803A09F467
:1014100066C0883A09F47CC0B0C0803C09F4A4C01E
:10142000883C09F4A1C0883B09F487C0A6C080911C
:10143000D50310C09091AE038091AD03981770F55D
:10144000E091AE0381E08E0F8093AE03F0E0E155B2
:10145000FC4F80818093BB0085EC83C0809369033F
:101460008BC0E091AE0381E08E0F8093AE0380913C
:10147000BB00F0E0E155FC4F80839091AE0380917A
:10148000AD036BC0E091AE0381E08E0F8093AE039D
:101490008091BB00F0E0E155FC4F80838091D40344
:1014A00081116AC081E08093D30384EA5EC083E047
:1014B0008093D60310926A03CFCF80916A03803263
:1014C00008F04EC0E0916A0381E08E0F80936A03BA
:1014D0008091BB00F0E0E559FC4F8083BDCF809147
:1014E0006A03803230F4E0916A03F0E0E559FC4F82
:1014F000108218DF60916A0370E0E091CF03F091F1
:10150000D0038BE693E0199510926A0315DF35C07E
:1015100084E08093D60310928C0310928B03E091A9
:10152000D103F091D203199580918B03811105C0ED
:1015300081E080938B0310928D03E0918C0381E016
:101540008E0F80938C03F0E0E357FC4F80818093F3
:10155000BB0090918C0380918B03981708F47CCF8B
:1015600085E88093BC0009C085EC8093BC00109294
:10157000D60303C010926903D5DEFF91EF91BF91AE
:10158000AF919F918F917F916F915F914F913F911B
:101590002F910F900BBE0F900FBE0F901F901895BC
:1015A0001F920F920FB60F9211242F933F938F9398
:1015B0009F93AF93BF938091D8039091D903A0914B
:1015C000DA03B091DB033091D70323E0230F2D37EB
:1015D00020F40196A11DB11D05C026E8230F029637
:1015E000A11DB11D2093D7038093D8039093D903F5
:1015F000A093DA03B093DB038091DC039091DD03C9
:10160000A091DE03B091DF030196A11DB11D80936F
:10161000DC039093DD03A093DE03B093DF03BF915F
:10162000AF919F918F913F912F910F900FBE0F908F
:101630001F9018953FB7F8948091DC039091DD03DB
:10164000A091DE03B091DF0326B5A89B05C02F3F14
:1016500019F00196A11DB11D3FBF6627782F892F74
:101660009A2F620F711D811D911D42E0660F771F39
:10167000881F991F4A95D1F70895CF92DF92EF9274
:10168000FF92CF93DF936B017C01D4DFEB01C11498
:10169000D104E104F10479F0CCD4CCDF6C1B7D0BD8
:1016A000683E7340A0F381E0C81AD108E108F10850
:1016B000C851DC4FECCFDF91CF91FF90EF90DF90DE
:1016C000CF9008958230910538F0880F991F880FC8
:1016D000991F05970197F1F70895789484B5826072
:1016E00084BD84B5816084BD85B5826085BD85B5C6
:1016F000816085BDEEE6F0E0808181608083E1E875
:10170000F0E01082808182608083808181608083AC
:10171000E0E8F0E0808181608083E1EBF0E08081AF
:1017200084608083E0EBF0E0808181608083E1E988
:10173000F0E0808182608083808181608083E0E945
:10174000F0E0808181608083E1EAF0E08081826066
:101750008083808181608083E0EAF0E08081816025
:101760008083E1E2F1E0808182608083808181601A
:101770008083E0E2F1E0808181608083EAE7F0E04D
:1017800080818460808380818260808380818160A9
:1017900080838081806880831092C100089590E0EA
:1017A000FC013197E231F10508F04BC0E758FF4FDB
:1017B00048C6809180008F7703C0809180008F7D24
:1017C00080938000089580918000877FF9CF84B551
:1017D0008F7702C084B58F7D84BD08958091B0005D
:1017E0008F7703C08091B0008F7D8093B000089503
:1017F000809190008F7707C0809190008F7D03C00B
:1018000080919000877F8093900008958091A00040
:101810008F7707C08091A0008F7D03C08091A000CA
:10182000877F8093A0000895809120018F7707C063
:10183000809120018F7D03C080912001877F80935C
:1018400020010895CF93DF9390E0FC01E45AFE4F0E
:101850002491FC01EE55FE4F8491882349F190E0DC
:10186000880F991FFC01EE5FFD4FA591B49188513F
:101870009E4FFC01C591D4919FB7611108C0F894A7
:101880008C91209582238C93888182230AC06230B8
:1018900051F4F8948C91322F309583238C93888166
:1018A000822B888304C0F8948C91822B8C939FBFE9
:1018B000DF91CF9108950F931F93CF93DF931F92E2
:1018C000CDB7DEB7282F30E0F901EA5EFE4F8491F4
:1018D000F901E45AFE4F1491F901EE55FE4F0491BF
:1018E0000023C1F0882319F0698359DF6981E02F53
:1018F000F0E0EE0FFF1FE851FE4FA591B4919FB7A6
:10190000F8948C91611103C01095812301C0812B43
:101910008C939FBF0F90DF91CF911F910F910895EE
:10192000FC01818D228D90E0805C9F4F821B91098C
:101930008F7399270895FC01918D828D981731F04E
:10194000828DE80FF11D858D90E008958FEF9FEF58
:101950000895FC01918D828D981761F0828DDF01D1
:10196000A80FB11D5D968C91928D9F5F9F73928F92
:1019700090E008958FEF9FEF08958EE59EE0892B0C
:1019800039F080E090E0892B19F098D1811125C0C1
:1019900080E090E0892B41F080E090E0892B21F0FD
:1019A0000E94000081111CC080E090E0892B41F072
:1019B00080E090E0892B21F00E940000811113C08B
:1019C00080E090E0892BA1F080E090E0892B81F00D
:1019D0000E94000081110AC008950E940000D8CF23
:1019E0000E940000E1CF0E940000EACF0C940000AA
:1019F0000895FC01848DDF01A80FB11DA35ABF4FCC
:101A00002C91848D90E001968F739927848FA689FD
:101A1000B7892C93A089B1898C9180648C93938D24
:101A2000848D981306C00288F389E02D80818F7D14
:101A300080830895CF93DF93EC01888D8823C1F0D4
:101A4000EA89FB89808185FD05C0A889B9898C91C7
:101A500086FD0EC00FB607FCF5CF808185FFF2CF63
:101A6000A889B9898C9185FFEDCFCE01C2DFE8CF7F
:101A7000DF91CF910895CF92DF92FF920F931F9342
:101A8000CF93DF931F92CDB7DEB76C0181E0D60113
:101A900058968C9358975B969C915B975C968C912B
:101AA0005C97981307C05096ED91FC9151978081F7
:101AB00085FD2DC0F601038D10E00F5F1F4F0F73E2
:101AC0001127F02EF601848DF81210C00FB607FC16
:101AD000F9CFD6015096ED91FC915197808185FF09
:101AE000F1CFC601698385DF6981ECCF838DE80F73
:101AF000F11DE35AFF4F6083D6015B960C935B9711
:101B00005296ED91FC915397808180620CC0D60172
:101B10005696ED91FC91579760835096ED91FC910C
:101B2000519780818064808381E090E00F90DF9105
:101B3000CF911F910F91FF90DF90CF900895BF92AA
:101B4000CF92DF92EF92FF92CF93DF93EC016A0185
:101B50007B01B22EE889F98982E08083411581EE0C
:101B600058076105710599F060E079E08DE390E038
:101B7000A701960128D421503109410951095695F0
:101B8000479537952795211580E1380790F0E8892A
:101B9000F989108260E874E88EE190E0A70196016F
:101BA00012D421503109410951095695479537956D
:101BB0002795EC85FD853083EE85FF852083188E83
:101BC000EC89FD89B082EA89FB898081806180830C
:101BD000EA89FB89808188608083EA89FB8980812A
:101BE00080688083EA89FB8980818F7D8083DF9193
:101BF000CF91FF90EF90DF90CF90BF9008951F920C
:101C00000F920FB60F9211240BB60F922F938F9352
:101C10009F93EF93FF93E091F003F091F1038081A4
:101C2000E091F603F091F70382FD12C0908180915C
:101C3000F9038F5F8F732091FA03821751F0E091BF
:101C4000F903F0E0E052FC4F958F8093F90301C057
:101C50008081FF91EF919F918F912F910F900BBEFB
:101C60000F900FBE0F901F9018951F920F920FB6F6
:101C70000F9211240BB60F922F933F934F935F93C4
:101C80006F937F938F939F93AF93BF93EF93FF9344
:101C900080EE93E0AEDEFF91EF91BF91AF919F9107
:101CA0008F917F916F915F914F913F912F910F9005
:101CB0000BBE0F900FBE0F901F90189580EE93E013
:101CC0002FDE21E0892B09F420E0822F0895109265
:101CD000E3031092E20388EE93E0A0E0B0E080938B
:101CE000E4039093E503A093E603B093E70386E44F
:101CF00092E09093E1038093E00385EC90E0909371
:101D0000ED038093EC0384EC90E09093EF038093D9
:101D1000EE0380EC90E09093F1038093F00381EC6C
:101D200090E09093F3038093F20382EC90E0909321
:101D3000F5038093F40386EC90E09093F70380938F
:101D4000F6031092F9031092FA031092FB0310921B
:101D5000FC0308950895C1DCFDDF0E948804CDEBEB
:101D6000DCE00E94BC042097E1F307DEFACFCF92BB
:101D7000DF92EF92FF920F931F93CF93DF936C014B
:101D80007A01EB01E60EF71E00E010E0CE15DF054C
:101D900061F06991D601ED91FC910190F081E02D07
:101DA000C6011995080F191FF1CFC801DF91CF9116
:101DB0001F910F91FF90EF90DF90CF9008956115E4
:101DC000710581F0DB010D900020E9F7AD01415074
:101DD0005109461B570BDC01ED91FC910280F38108
:101DE000E02D199480E090E00895DC01ED91FC91E4
:101DF0000190F081E02D199462E572E0E0CF8F92BE
:101E00009F92AF92BF92CF92DF92EF92FF920F9389
:101E10001F93CF93DF93CDB7DEB7A1970FB6F8949A
:101E2000DEBF0FBECDBF7C01C42EE52FCB01D22E6D
:101E300019A221E02D1510F02AE0D22E8E010F5D9F
:101E40001F4F8D2C912CA12CB12C6C2D7E2FA50118
:101E50009401B9D28C2DD29E801911240150110900
:101E60008A3014F4805D01C0895CF80180832115FB
:101E700031054105510521F0C22EE32FCA01E5CFFE
:101E8000B801C7019CDFA1960FB6F894DEBF0FBE64
:101E9000CDBFDF91CF911F910F91FF90EF90DF9019
:101EA000CF90BF90AF909F908F900895CF92DF9288
:101EB000EF92FF920F931F93CF93DF93EC016A0190
:101EC0007B012115310579F4E881F9810190F081D8
:101ED000E02D642FDF91CF911F910F91FF90EF9034
:101EE000DF90CF9019942A303105D9F477FF18C0CC
:101EF0006DE27BDF8C0144275527BA014C195D093F
:101F00006E097F092AE0CE017ADF800F911FDF91F1
:101F1000CF911F910F91FF90EF90DF90CF90089598
:101F20002AE0B701A601CE01DF91CF911F910F9159
:101F3000FF90EF90DF90CF9062CF0F931F93CF93DE
:101F4000DF93EC019A01AB01662757FD6095762F70
:101F5000ADDF8C01CE0150DF800F911FDF91CF915B
:101F60001F910F9108952115310541F4DC01ED9188
:101F7000FC910190F081E02D642F199440CF0F93D4
:101F80001F93CF93DF93EC019A01462F50E060E05E
:101F900070E0E9DF8C01CE012FDF800F911FDF9110
:101FA000CF911F910F9108954F925F926F927F9200
:101FB000AF92BF92CF92DF92EF92FF920F931F9357
:101FC000CF93DF93CDB7DEB729013A01621B730BC4
:101FD000840B950B2A893B894C895D892A193B0919
:101FE0004C095D092A8B3B8B4C8B5D8B9B01AC01B3
:101FF0006A897B898C899D89CBD1E418F50806090B
:102000001709A801970101D22A0D3B1D4C1D5D1D2A
:10201000CA01B901DF91CF911F910F91FF90EF900D
:10202000DF90CF90BF90AF907F906F905F904F9078
:10203000089508955058BB27AA270ED008C1F9D09B
:1020400030F0FED020F031F49F3F11F41EF4EEC0CA
:102050000EF4E095E7FBE4C0E92F0AD180F3BA174C
:10206000620773078407950718F071F49EF522C183
:102070000EF4E0950B2EBA2FA02D0B01B9019001A3
:102080000C01CA01A0011124FF27591B99F0593FE7
:1020900050F4503E68F11A16F040A22F232F342F2F
:1020A0004427585FF3CF469537952795A795F0407D
:1020B0005395C9F77EF41F16BA0B620B730B840B92
:1020C000BAF09150A1F0FF0FBB1F661F771F881F4A
:1020D000C2F70EC0BA0F621F731F841F48F48795A2
:1020E00077956795B795F7959E3F08F0B3CF939591
:1020F000880F08F09927EE0F9795879508956CD073
:1021000008F481E00895BCD088F09F5790F0B92F73
:102110009927B751A0F0D1F0660F771F881F991F3C
:102120001AF0BA95C9F712C0B13081F0C3D0B1E04E
:102130000895C0C0672F782F8827B85F39F0B93F5E
:10214000CCF3869577956795B395D9F73EF490953E
:102150008095709561957F4F8F4F9F4F0895E894BC
:1021600009C097FB3EF490958095709561957F4FDF
:102170008F4F9F4F9923A9F0F92F96E9BB2793958D
:10218000F695879577956795B795F111F8CFFAF49D
:10219000BB0F11F460FF1BC06F5F7F4F8F4F9F4FCE
:1021A00016C0882311F096E911C0772321F09EE82C
:1021B000872F762F05C0662371F096E8862F70E092
:1021C00060E02AF09A95660F771F881FDAF7880F6C
:1021D0009695879597F90895990F0008550FAA0BC2
:1021E000E0E8FEEF16161706E807F907C0F012162A
:1021F0001306E407F50798F0621B730B840B950B2D
:1022000039F40A2661F0232B242B252B21F4089581
:102210000A2609F4A140A6958FEF811D811D08951E
:1022200097F99F6780E870E060E008959FEF80EC89
:10223000089500240A94161617061806090608952C
:1022400000240A9412161306140605060895092E92
:102250000394000C11F4882352F0BB0F40F4BF2B01
:1022600011F460FF04C06F5F7F4F8F4F9F4F089541
:1022700057FD9058440F551F59F05F3F71F0479537
:10228000880F97FB991F61F09F3F79F0879508951C
:10229000121613061406551FF2CF4695F1DF08C03B
:1022A000161617061806991FF1CF86957105610558
:1022B00008940895E894BB2766277727CB0197F900
:1022C00008958ADF08F48FEF08950BD0C0CFB1DFF7
:1022D00028F0B6DF18F0952309F0A2CFA7CF11247C
:1022E000EACFC6DFA0F3959FD1F3950F50E0551FBD
:1022F000629FF001729FBB27F00DB11D639FAA275B
:10230000F00DB11DAA1F649F6627B00DA11D661FA9
:10231000829F2227B00DA11D621F739FB00DA11DCA
:10232000621F839FA00D611D221F749F3327A00D84
:10233000611D231F849F600D211D822F762F6A2F20
:1023400011249F5750408AF0E1F088234AF0EE0FA5
:10235000FF1FBB1F661F771F881F91505040A9F7B2
:102360009E3F510570F05CCFA6CF5F3FECF3983EE7
:10237000DCF3869577956795B795F795E7959F5F19
:10238000C1F7FE2B880F911D9695879597F90895B3
:10239000DB018F939F935BD0BF91AF91A29F800D84
:1023A000911DA39F900DB29F900D11240895991B2C
:1023B00079E004C0991F961708F0961B881F7A953C
:1023C000C9F780950895A1E21A2EAA1BBB1BFD0137
:1023D0000DC0AA1FBB1FEE1FFF1FA217B307E40704
:1023E000F50720F0A21BB30BE40BF50B661F771F5C
:1023F000881F991F1A9469F760957095809590953C
:102400009B01AC01BD01CF010895052E97FB16F489
:1024100000940FD057FD05D0D6DF07FC02D046F45C
:1024200008C050954095309521953F4F4F4F5F4FD5
:10243000089590958095709561957F4F8F4F9F4F30
:102440000895EE0FFF1F0590F491E02D19940DD023
:10245000A59F900DB49F900DA49F800D911D1124F8
:1024600008950790F691E02D1994A29FB001B39FB3
:10247000C001A39F700D811D1124911DB29F700D8D
:10248000811D1124911D08950F931F93CF93DF9306
:10249000E0917F04F0918004238121FF1BC0EC01B7
:1024A00000E010E0899160917F0470918004DB016D
:1024B0001896ED91FC911997882331F01995892B85
:1024C00089F30FEF1FEFEECF8AE01995892B11F4F6
:1024D000C80102C08FEF9FEFDF91CF911F910F9145
:0624E0000895F894FFCFFF
:1024E60001000000050AD7233C6666663F9A999963
:1024F6003F644D435032353135204E4F5420636F83
:102506006E666967757265642070726F7065726C4D
:10251600790000000000A10875084A0852086508FD
:102526007408000000003B0DB70E900CA90C9B0C24
:102536001A0D0D0A006E616E00696E66006F766692
:04254600002E000063
:00000001FF
