:100000000C9433010C9450010C9450010C94500149
:100010000C9450010C9450010C9450010C9450011C
:100020000C9450010C9450010C9450010C9450010C
:100030000C9450010C9450010C9450010C945001FC
:100040000C9450010C9450010C9450010C945001EC
:100050000C9450010C9450010C9450010C945001DC
:100060000C9450010C9450010C9450010C945001CC
:100070007C098209880991099A09A309AC09BB097D
:10008000B509C109C709D009CD0900000000000069
:10009000005E0000000E000E00287C287C2808541A
:1000A0007C54202610086400285428400000000ECC
:1000B0000000003C42000000423C00000054385464
:1000C0000010107C10100080602000101010100034
:1000D00000606000002010080400003C423C00006A
:1000E000447E40004462524C00224A4A36001814B2
:1000F0007E10002E4A4A32003C4A4A300002621A00
:100100000600344A4A34000C52523C00006C6C0029
:1001100000806C2C000000102844002828282800AB
:1001200000442810000004520C003C425A1C007C81
:1001300012127C007E4A4A34003C424224007E4235
:10014000423C007E4A4A42007E0A0A02003C425279
:1001500074007E08087E0000427E42002040403E3F
:10016000007E182442007E404040007E0C0C7E0041
:100170007E0C307E003C42423C007E12120C003C61
:100180006242BC007E12324C00244A52240000021B
:100190007E02003E40403E001E60601E007E303009
:1001A0007E006618186600000E700E0062524A4605
:1001B00000007E42420004081020000042427E00FF
:1001C00000040204004040404000000204000030EF
:1001D000482878007E4848300030484800003048C1
:1001E000487E003068581000107C12040050A8A807
:1001F00098007E0808700000487A40000040807A2D
:10020000007E1028400000427E40007810187000E8
:1002100078080870003048483000F848483000300E
:100220004848F80078080810005058682800083E30
:10023000484000384040780000384038007860601E
:100240007800483030480018A040380048685848C6
:100250000000083C420000007E000000423C080014
:1002600004020402000011241FBECFEFD4E0DEBF61
:10027000CDBF11E0A0E0B1E0E0E1FDE102C00590FA
:100280000D92AC3AB107D9F721E0ACEAB1E001C078
:100290001D92AD3BB207E1F70E9493040C94860EC9
:1002A0000C9400008093001489EF90E00197F1F71F
:1002B00000C000008091001490E008950E942B037C
:1002C0004FEF64E680E60E94510340E060EE8FE06D
:1002D0000E9451030895BF92CF92DF92EF92FF9256
:1002E0000F931F93CF93DF93CDB7DEB72A970FB647
:1002F000F894DEBF0FBECDBF0983C12E1A832B83B6
:100300003C834D835E836F83788789879A87102F1C
:1003100080E30E941103982F9870B92E83FD2DC0A1
:10032000612F6295660F607E82E30E943D03612F1C
:1003300066956695669581E30E943D036C2D6F700E
:1003400085E30E943D03D12C1C141D0494F47E010E
:10035000E3E0EE0EF11C00E010E0F70161917F0197
:1003600086E3800F0E943D030F5F1F4F0C151D0594
:10037000A4F381E00E946B0302C0BB24B3948B2DD5
:100380002A960FB6F894DEBF0FBECDBFDF91CF9196
:100390001F910F91FF90EF90DF90CF90BF90089545
:1003A000EF92FF920F931F93CF93DF938C018CE218
:1003B0000E94110380FF34C040E061E08CE20E94A3
:1003C000510381E60E941103C82FCC0FCC0FCC0F34
:1003D000F801C08382E60E9411038295869587709A
:1003E000C82BF801C08385E60E9411038F70F801C5
:1003F00081838823B9F07801F2E0EF0EF11CC0E0B0
:10040000D0E08C2F8A590E941103F70181937F015C
:100410002196F801818190E0C817D90794F304C0B0
:1004200082E003C080E001C080E0DF91CF911F91A6
:100430000F91FF90EF9008950F931F93CF93DF9349
:10044000CDB7DEB72A970FB6F894DEBF0FBECDBF8B
:1004500001E016E0282F392F89859A850E946B01CB
:100460002A960FB6F894DEBF0FBECDBFDF91CF91B5
:100470001F910F9108950F931F93CF93DF93CDB7E3
:10048000DEB72A970FB6F894DEBF0FBECDBF02E0ED
:1004900011E0282F3C814D815E816F8178858985AF
:1004A0009A850E946B012A960FB6F894DEBF0FBEA4
:1004B000CDBFDF91CF911F910F910895EF92FF92E1
:1004C0000F931F93CF93DF93CDB7DEB72A970FB665
:1004D000F894DEBF0FBECDBFFC0100832A960FB695
:1004E000F894DEBF0FBECDBFDF91CF911F910F916A
:1004F000FF90EF900895CF9385E00E945201C82F9E
:1005000084E00E945201982F8C2FCF91089585315D
:1005100010F424E001C021E0953110F434E001C072
:1005200032E0891708F4232F822F0895CF9385E0B6
:100530000E945201C82F84E00E94520191E8980F56
:1005400081E88C0FCF910895CF9386E00E945201ED
:10055000C82F87E00E945201782F859B02C091E04E
:1005600001C090E0849B02C081E001C080E06C2F5C
:10057000CF910895823020F084E0809307010895A0
:1005800090910701981719F080930701089584E06E
:1005900008959EEF980F923020F084E0809306013A
:1005A000089590910601981719F080930601089517
:1005B00084E008952091AF01211105C0913019F414
:1005C0009093AF010CC02091AF01213029F491111B
:1005D00005C01092AF0103C090E001C090E02091EF
:1005E000AE01211105C0813019F48093AE01089548
:1005F0002091AE01213029F4811105C01092AE0185
:10060000089580E0089580E00895C4980895C49AFC
:1006100008950E94050380EC0E9407050E940703CD
:1006200008951F93CF93DF931F92CDB7DEB7182F96
:100630000E94050383E00E940705812F0E940705A1
:100640000E940B0589830E94070389810F90DF9127
:10065000CF911F9108950E9401050E9409038EE029
:100660000E941103807E803831F088E091E00E9482
:10067000600A81E0089580E00895CF93DF93D82F3A
:10068000C62F0E94050382E00E9407058D2F0E945D
:1006900007058C2F0E9407050E940703DF91CF9169
:1006A00008951F93CF93DF93182FD62FC42F0E9446
:1006B000050385E00E940705812F0E9407058D2F05
:1006C0000E9407058C2F0E9407050E940703DF91F7
:1006D000CF911F910895CF93C82F0E9405038C2FAF
:1006E000877080680E9407050E940703CF910895D4
:1006F000E0E0F0E18EEA808381EA80838AED808306
:1007000082E1808388EC808388EA80838FE3808322
:1007100085ED808380E8808381E8808380E5808325
:1007200089ED808381E2808380E2808310828BED7B
:10073000808380E380838DEA8083108284EA8083D3
:1007400086EA80838FEA80830895E0E0F0E181E229
:10075000808310828FE7808382E28083108287E02B
:10076000808308950E94A503E0E0F8E1A0E0B2E1F3
:1007700081918C93E1158CE1F807D1F70895E0E0C1
:10078000F8E11192E1158CE1F807D9F70895CF93BC
:10079000DF93C091B001D091B101282F30E02052F9
:1007A0003109C901880F991F880F991F280F391F18
:1007B00026573F4F84E090E0BE016C5F774EDB012F
:1007C000A81BB90BF901459154914C9301972F5FE8
:1007D0003F4F0097A1F72496D093B101C093B00189
:1007E000DF91CF910895CF93DF93C091B001D09165
:1007F000B101282F30E020523109C901880F991F1B
:10080000880F991F280F391F26573F4F84E090E02B
:10081000BE016C5F774EDB01A81BB90BF901459156
:10082000549140954C9301972F5F3F4F009799F754
:100830002496D093B101C093B001DF91CF91089578
:1008400081329105C0F469307105C0F4660F771FDD
:1008500062957295707F7627607F7627860F971F47
:10086000880F991F880F991F9093B1018093B00151
:1008700080E090E0089581E090E0089581E090E0CC
:100880000895EF92FF920F931F93CF93DF93FC0194
:1008900001900020E9F731977F01E81AF90A1E1448
:1008A0001F0464F48C01C0E0D0E0F80181918F0155
:1008B0000E94C7032196EC16FD06B9F780E090E090
:1008C000DF91CF911F910F91FF90EF90089590E8E5
:1008D000899FF0011124CF0180589F4F9F012E5F07
:1008E0003F4F2817390754F4EF5FF74E8150984E69
:1008F000208120952193E817F907D1F708958FE11A
:1009000090E00E941B0568E275E082E295E00E949B
:10091000010A85B7806885BFB89AC0980E9478039D
:100920000E942D050895CF93DF93CDB7DEB72C97A6
:100930000FB6F894DEBF0FBECDBF8B988A980E9489
:100940007F0419820E9496026C010E945E010E943F
:10095000BF030E94A5030E94BF030E94B20388E266
:1009600091E00E94600A0F2EF3E08F2EF02D689424
:10097000992491F80F2EFEE2AF2EF1E0BF2EF02D5C
:1009800061E0C6010E946609C6010E947B028C01DB
:100990000E94A402AB01BC01C8010E941C028CECA5
:1009A00094E00197F1F700C00000CE0102960E948A
:1009B000D0018111E5CF1F928F921F929F921F92BB
:1009C00081E08F93BF92AF920E944C0AEA80FB8035
:1009D0000C811D812E813F81488559856A857B85E3
:1009E000CE010C960E945E028C850FB6F894DEBF95
:1009F0000FBECDBF873021F66CE0C6010E946609AC
:100A0000BFCF87B3806B87BB81E58DB908958FB960
:100A1000779BFECF0895CF93DF931F92CDB7DEB7BC
:100A20008FEF8FB9779BFECF8FB1898389810F902C
:100A3000DF91CF91089590BD89B988ED8AB986E894
:100A400080BD08955D9BFECF8CB980E090E0089555
:100A50005F9BFECF8CB190E0089581E48093001CF1
:100A60008093011C8093021C8093031C8093041CC0
:100A700008954F925F926F927F928F929F92AF9262
:100A8000BF92CF92DF92EF92FF920F931F93CF937B
:100A9000DF9300D000D01F92CDB7DEB75C01DE013E
:100AA0001196E0E0FCE181918D93E5308CE1F8074F
:100AB000D1F7C5010E947B020E948702182F0E9475
:100AC000C902812F0E94BA0260E070E08CE090E0E1
:100AD0000E9420048CE891E00E94410480E00E9482
:100AE000670464E070E084E090E00E942004712CD0
:100AF0006894442442F80F2EF5E08F2E912CF02DAF
:100B0000512C612CC5010E947B020E948702182F84
:100B10000E94C902082F812F0E94BA02813049F435
:100B2000272D30E0C9010196B4010E94D309782E27
:100B300007C0811105C0772011F07A9401C0742C90
:100B40000230B1F4872D90E0E1E0F0E0EC0FFD1F02
:100B5000E80FF91F20812A3511F02F5F01C021E431
:100B6000E1E0F0E0EC0FFD1FE80FF91F208317C054
:100B70000330A9F4872D90E0E1E0F0E0EC0FFD1FD9
:100B8000E80FF91F2081213411F0215001C02AE51E
:100B9000E1E0F0E0EC0FFD1FE80FF91F208364E0B7
:100BA00070E08AE090E00E942004052D162DE72CCD
:100BB000F12CCC24C394D12CCC0EDD1ECE0CDF1C2A
:100BC000E016F10629F4F60180810E94F30309C0C2
:100BD000E1E0F0E0EC0FFD1FE00FF11F80810E94CB
:100BE000C70380E20E94C7030F5F1F4F0530110546
:100BF00039F70E94B2030E94A4020E94DA028823FD
:100C000009F480CFDE011196E0E0FCE18D91819343
:100C1000E5308CE1F807D1F781E00F900F900F904D
:100C20000F900F90DF91CF911F910F91FF90EF9058
:100C3000DF90CF90BF90AF909F908F907F906F90FC
:100C40005F904F900895EF92FF920F931F93CF9371
:100C5000DF93EC010E947B020E948702182F0E9402
:100C6000C902812F0E94BA0260E070E08DE090E03E
:100C70000E9420048CE391E00E94410480E00E94E5
:100C8000670462E070E083E090E00E94200485E465
:100C900091E00E94410463E070E083E090E00E94F4
:100CA00020048EE491E00E94410464E070E083E05F
:100CB00090E00E94200483E591E00E94410465E0F9
:100CC00070E083E090E00E9420048AE591E00E94B9
:100CD000410466E070E083E090E00E9420048FE52C
:100CE00091E00E94410410E00DECCE010E947B02D5
:100CF0000E948702F82E0E94C902E82E8F2D0E94C2
:100D0000BA02813009F47AC0882309F479C082E0FC
:100D1000E81217C0109F812D112486958695982F73
:100D2000990F990F890F612F681B70E06E5F7F4FDD
:100D300081E090E00E94200480E20E94C7031150ED
:100D400019C083E0E81216C0109F812D11248695EA
:100D50008695982F990F990F890F612F681B70E066
:100D60006E5F7F4F81E090E00E94200480E20E944D
:100D7000C7031F5F109F812D112486958695982F9C
:100D8000990F990F890F612F681B70E06E5F7F4F7D
:100D900081E090E00E94200483E20E94C7030E9449
:100DA000A4020E94DA02882331F11230A9F028F45B
:100DB000112341F0113059F01EC0133091F014305E
:100DC000A9F019C081E00E943B0282E01AC082E0D3
:100DD0000E943B0283E015C083E00E943B0284E056
:100DE00010C084E00E943B0285E00BC085E00E94B9
:100DF0003B0286E006C00E94B20377CF87E001C0C5
:100E000088E0DF91CF911F910F91FF90EF900895AF
:100E1000CF93DF93EC010E947B020E9487020E9425
:100E2000BA0260E070E089E090E00E94200486E66B
:100E300091E00E94410480E00E9467040E94B20396
:100E4000CE010E947B020E9487020E94BA0281307A
:100E500019F08111F5CF02C081E001C087E0DF9178
:100E6000CF910895EF92FF920F931F93CF93DF934B
:100E7000EC010E947B020E948702182F0E94C90287
:100E8000812F0E94BA0260E070E08CE090E00E9446
:100E9000200482E791E00E94410480E00E94670400
:100EA00063E070E083E090E00E9420048AE791E034
:100EB0000E94410464E070E083E090E00E9420041E
:100EC0008FE791E00E94410465E070E083E090E0EC
:100ED0000E94200485E891E00E94410410E00F2E5A
:100EE000FBEAEF2EF02DCE010E947B020E948702CA
:100EF000F82E0E94C902082F8F2D0E94BA0281305D
:100F000009F456C0882309F455C00230A9F41E9D87
:100F1000812D11248695982F990F890F612F681BB9
:100F200070E06D5F7F4F81E090E00E94200480E2DE
:100F30000E94C703115016C00330A1F41E9D812DDD
:100F400011248695982F990F890F612F681B70E0E7
:100F50006D5F7F4F81E090E00E94200480E20E945C
:100F6000C7031F5F1E9D812D11248695982F990F11
:100F7000890F612F681B70E06D5F7F4F81E090E00B
:100F80000E94200483E20E94C7030E94A4020E94E0
:100F9000DA02882351F0113079F018F0123019F08C
:100FA00004C08AE00AC080E008C00E94B2039BCF60
:100FB00088E003C081E001C089E0DF91CF911F91FB
:100FC0000F91FF90EF900895BF92CF92DF92EF9232
:100FD000FF920F931F93CF93DF938C010E947B02AC
:100FE0000E9487020E94C90260E070E08EE090E0FB
:100FF0000E9420048AE791E00E94410480E00E9460
:10100000670463E070E083E090E00E94200485E9DB
:1010100091E00E94410465E070E083E090E00E946E
:10102000200483E591E00E94410463E070E081E0E8
:1010300090E00E94200483E20E94C703B12CC80103
:101040000E947B020E9487020E94C902823091F4B2
:10105000B0FAEE24E0F8F12CB701660F771F6D5F50
:101060007F4F81E090E00E94200480E20E94C7034D
:10107000BA9413C0833089F4B0FACC24C0F8D12CD0
:10108000B601660F771F6D5F7F4F81E090E00E9491
:10109000200480E20E94C703B3948B2D8170C82F77
:1010A00080E0D82FBE01660F771F6D5F7F4F81E014
:1010B00090E00E94200483E20E94C7030E94A402E1
:1010C0000E94DA02882351F0B1100BC086E00E9422
:1010D0003B0283E591E00E94600A03C00E94B203D4
:1010E000AECF87E0DF91CF911F910F91FF90EF90EE
:1010F000DF90CF90BF900895BF92CF92DF92EF9292
:10110000FF920F931F93CF93DF938C010E947B027A
:101110000E9487020E94C90260E070E08EE090E0C9
:101120000E9420048FE791E00E94410480E00E9429
:10113000670463E070E083E090E00E9420048DE9A2
:1011400091E00E94410465E070E083E090E00E943D
:10115000200480EA91E00E944104B12CC8010E9461
:101160007B020E9487020E94C902823091F4B0FA89
:10117000EE24E0F8F12CB701660F771F6D5F7F4F0B
:1011800081E090E00E94200480E20E94C703BA94AC
:1011900013C0833089F4B0FACC24C0F8D12CB60146
:1011A000660F771F6D5F7F4F81E090E00E94200403
:1011B00080E20E94C703B3948B2D8170C82F80E01A
:1011C000D82FBE01660F771F6D5F7F4F81E090E0E3
:1011D0000E94200483E20E94C7030E94A4020E948E
:1011E000DA02882381F0BB2021F081E0B81631F0CB
:1011F0000DC084EA91E00E94600A08C087EA91E08D
:101200000E94600A03C00E94B203A8CF87E0DF916A
:10121000CF911F910F91FF90EF90DF90CF90BF90F3
:10122000089560E070E08EE090E00E94200485E484
:1012300091E00E94410480E00E9467040E94B20392
:101240008BE0089560E070E08EE090E00E94200462
:101250008EE491E00E94410480E00E9467040E94B5
:10126000B2038BE0089560E070E08CE090E00E94B3
:10127000200483E591E00E94410480E00E9467041D
:101280000E94B2038BE0089560E070E08CE090E093
:101290000E9420048AE591E00E94410480E00E94BF
:1012A00067040E94B2038BE0089560E070E08CE078
:1012B00090E00E9420048FE591E00E94410480E0CC
:1012C0000E9467040E94B2038BE00895CF93DF93DE
:1012D000EC016C3019F48CE08093B2010E94BF03E2
:1012E0004091B20150E04D30510508F059C0FA016B
:1012F000E85CFF4F0C94E709CE010E94390580930A
:10130000B2014EC0CE010E9423068093B20148C0B4
:10131000CE010E9411098093B20181E00E943B023C
:101320003FC0CE010E9422098093B20182E00E9458
:101330003B0236C0CE010E9433098093B20183E0A4
:101340000E943B022DC0CE010E9444098093B2014D
:1013500084E00E943B0224C0CE010E945509809384
:10136000B20185E00E943B021BC0CE010E9408072B
:101370008093B20115C0CE010E9432078093B20162
:101380000FC0CE010E947C088093B20109C0CE013B
:101390000E94E4078093B20103C088E08093B20109
:1013A000DF91CF91089597FB072E16F4009407D094
:1013B00077FD09D00E94ED0907FC05D03EF4909519
:1013C00081959F4F0895709561957F4F0895EE0F19
:1013D000FF1F0590F491E02D0994AA1BBB1B51E15E
:1013E00007C0AA1FBB1FA617B70710F0A61BB70B95
:1013F000881F991F5A95A9F780959095BC01CD013A
:1014000008950F931F93CF93DF93EC018B01009707
:1014100031F46115710519F480E090E038C06EE098
:1014200070E081E090E00E945F0CFC010097A1F366
:1014300080E883830115110571F01387028781E825
:1014400083838091B3019091B401892B21F4F093AF
:10145000B401E093B3012097C9F0D187C08783819D
:10146000826083838091B5019091B601892B71F4DC
:10147000F093B601E093B5018091B7019091B80166
:10148000892B21F4F093B801E093B701CF01DF91EC
:10149000CF911F910F910895A0E0B0E0E2E5FAE04E
:1014A0000C945F0EFE01359661917191AF018091B0
:1014B000B5019091B6010E948D0AE2E00C947B0E7A
:1014C0000F931F93CF93DF93E091B501F091B60195
:1014D000238121FF1BC0EC0100E010E089916091A5
:1014E000B5017091B601DB011896ED91FC91199749
:1014F000882331F00995892B89F30FEF1FEFEECF89
:101500008AE00995892B11F4C80102C08FEF9FEF83
:10151000DF91CF911F910F910895ACE0B0E0E3E926
:10152000FAE00C944F0E7C016B018A01FC011782DA
:101530001682838181FFBDC1CE0101964C01F70166
:101540009381F60193FD859193FF81916F0188232B
:1015500009F4ABC1853239F493FD859193FF8191F4
:101560006F01853229F4B70190E00E94BF0DE7CFEB
:10157000512C312C20E02032A0F48B3269F030F471
:10158000803259F0833269F420612CC08D3239F0F9
:10159000803339F4216026C02260246023C0286093
:1015A00021C027FD27C030ED380F3A3078F426FFF0
:1015B00006C0FAE05F9E300D1124532E13C08AE05E
:1015C000389E300D1124332E20620CC08E3221F44F
:1015D00026FD6BC1206406C08C3611F4206802C061
:1015E000883641F4F60193FD859193FF81916F0157
:1015F0008111C1CF982F9F7D9554933028F40C5FB3
:101600001F4FFFE3F9830DC0833631F0833771F04C
:10161000833509F05BC022C0F801808189830E5FA9
:101620001F4F44244394512C540115C03801F2E05B
:101630006F0E711CF801A080B18026FF03C0652DDC
:1016400070E002C06FEF7FEFC5012C870E94B40DE0
:101650002C0183012C852F77222E17C03801F2E050
:101660006F0E711CF801A080B18026FF03C0652DAC
:1016700070E002C06FEF7FEFC5012C870E94A20DC2
:101680002C012C852068222E830123FC1BC0832D76
:1016900090E048165906B0F4B70180E290E00E944D
:1016A000BF0D3A94F4CFF50127FC859127FE819177
:1016B0005F01B70190E00E94BF0D31103A94F1E054
:1016C0004F1A51084114510471F7E5C0843611F0E6
:1016D000893639F5F80127FF07C060817181828161
:1016E00093810C5F1F4F08C060817181882777FD4F
:1016F0008095982F0E5F1F4F2F76B22E97FF09C04F
:1017000090958095709561957F4F8F4F9F4F206882
:10171000B22E2AE030E0A4010E94F10DA82EA818F4
:1017200044C0853729F42F7EB22E2AE030E025C050
:10173000F22FF97FBF2E8F36C1F018F4883579F07B
:10174000B4C0803719F0883721F0AFC02F2F206147
:10175000B22EB4FE0DC08B2D8460B82E09C024FFBC
:101760000AC09F2F9660B92E06C028E030E005C061
:1017700020E130E002C020E132E0F801B7FE07C00E
:1017800060817181828193810C5F1F4F06C06081EF
:10179000718180E090E00E5F1F4FA4010E94F10D67
:1017A000A82EA818FB2DFF77BF2EB6FE0BC02B2D41
:1017B0002E7FA51450F4B4FE0AC0B2FC08C02B2D35
:1017C0002E7E05C07A2C2B2D03C07A2C01C0752CDF
:1017D00024FF0DC0FE01EA0DF11D8081803311F45C
:1017E000297E09C022FF06C07394739404C0822F1F
:1017F000867809F0739423FD13C020FF06C05A2C8D
:10180000731418F4530C5718732C731468F4B7013D
:1018100080E290E02C870E94BF0D73942C85F5CF59
:10182000731410F4371801C0312C24FF12C0B70113
:1018300080E390E02C870E94BF0D2C8522FF17C00B
:1018400021FF03C088E590E002C088E790E0B7017F
:101850000CC0822F867859F021FD02C080E201C0C1
:101860008BE227FD8DE2B70190E00E94BF0DA51429
:1018700038F4B70180E390E00E94BF0D5A94F7CF8F
:10188000AA94F401EA0DF11D8081B70190E00E9455
:10189000BF0DA110F5CF332009F451CEB70180E27E
:1018A00090E00E94BF0D3A94F6CFF70186819781B0
:1018B00002C08FEF9FEF2C96E2E10C946B0E0F931A
:1018C0001F93CF93DF93869F8001879F100D969F74
:1018D000100D1124C8010E947B0CEC01009729F027
:1018E000A80160E070E00E94AD0DCE01DF91CF91C4
:1018F0001F910F910895CF93DF938230910510F4DB
:1019000082E090E0E091BB01F091BC0120E030E08A
:10191000A0E0B0E0309739F1408151814817590774
:10192000B8F04817590771F482819381109729F014
:1019300013969C938E9312972CC09093BC01809326
:10194000BB0127C02115310531F04217530718F0AC
:10195000A901DB0101C0EF019A01BD01DF01028095
:10196000F381E02DD7CF21153105F9F0281B390B74
:101970002430310580F48A819B816115710521F045
:10198000FB019383828304C09093BC018093BB01CD
:10199000FE01329644C0FE01E20FF31F8193919342
:1019A00022503109398328833AC02091B9013091FE
:1019B000BA01232B41F420910201309103013093AD
:1019C000BA012093B9012091000130910101211544
:1019D000310541F42DB73EB7409104015091050106
:1019E000241B350BE091B901F091BA01E217F3071E
:1019F000A0F42E1B3F0B2817390778F0AC014E5F7F
:101A00005F4F2417350748F04E0F5F1F5093BA0100
:101A10004093B9018193919302C0E0E0F0E0CF01DF
:101A2000DF91CF910895CF93DF93009709F487C09A
:101A3000FC01329713821282C091BB01D091BC018C
:101A4000209781F420813181280F391F8091B901BD
:101A50009091BA018217930779F5F093BA01E09358
:101A6000B9016DC0DE0120E030E0AE17BF0750F4D1
:101A700012964D915C9113979D014115510509F105
:101A8000DA01F3CFB383A28340815181840F951F84
:101A90008A179B0771F48D919C911197840F951F64
:101AA00002969183808312968D919C9113979383D4
:101AB00082832115310529F4F093BC01E093BB0129
:101AC0003EC0D9011396FC93EE9312974D915D9110
:101AD000A40FB51FEA17FB0779F480819181840F69
:101AE000951F0296D90111969C938E9382819381C2
:101AF00013969C938E931297E0E0F0E08A819B818D
:101B0000009719F0FE01EC01F9CFCE010296288171
:101B10003981820F931F2091B9013091BA012817A2
:101B2000390769F4309729F41092BC011092BB0177
:101B300002C013821282D093BA01C093B901DF911F
:101B4000CF910895FC010590615070400110D8F7C5
:101B5000809590958E0F9F1F0895DC0101C06D93B5
:101B600041505040E0F70895FC01615070400190F1
:101B70000110D8F7809590958E0F9F1F08950F93B1
:101B80001F93CF93DF93182F092FEB018B8181FDDA
:101B900003C08FEF9FEF20C082FF10C04E815F8196
:101BA0002C813D81421753077CF4E881F9819F0124
:101BB0002F5F3F4F39832883108306C0E885F9855E
:101BC000812F0995892B29F72E813F812F5F3F4F68
:101BD0003F832E83812F902FDF91CF911F910F9103
:101BE0000895FA01AA27283051F1203181F1E894B3
:101BF0006F936E7F6E5F7F4F8F4F9F4FAF4FB1E000
:101C00003ED0B4E03CD0670F781F891F9A1FA11DFA
:101C1000680F791F8A1F911DA11D6A0F711D811DFB
:101C2000911DA11D20D009F468943F912AE0269FC0
:101C300011243019305D3193DEF6CF010895462F1F
:101C40004770405D4193B3E00FD0C9F7F6CF462F00
:101C50004F70405D4A3318F0495D31FD4052419369
:101C600002D0A9F7EACFB4E0A69597958795779526
:101C70006795BA95C9F700976105710508959B01AD
:101C8000AC010A2E06945795479537952795BA9536
:101C9000C9F7620F731F841F951FA01D08952F920F
:101CA0003F924F925F926F927F928F929F92AF92EC
:101CB000BF92CF92DF92EF92FF920F931F93CF9339
:101CC000DF93CDB7DEB7CA1BDB0B0FB6F894DEBFD0
:101CD0000FBECDBF09942A88398848885F846E84F6
:101CE0007D848C849B84AA84B984C884DF80EE8040
:101CF000FD800C811B81AA81B981CE0FD11D0FB649
:101D0000F894DEBF0FBECDBFED010895F894FFCF6C
:101D10000000BD01200004044D4350323531352010
:101D20004E4F5420636F6E666967757265642070EC
:101D3000726F7065726C7900737461727400232520
:101D4000642E202573203A2025640A004E657720F2
:101D500067616D65005475746F7269616C004561EF
:101D60007379004E6F726D616C0048617264004956
:101D70006E73616E6500486967682053636F7265B2
:101D800073004F7074696F6E73004D6F646500531C
:101D90006F756E64004368616E6765205573657288
:101DA0006E616D650052657665727365004F6E00F9
:0C1DB0004F6666004F4E004F4646000094
:00000001FF
