S01B000050696E67506F6E674170706C69636174696F6E2E7372656373
S11300000C9438000C9455000C9455000C94550035
S11300100C9455000C9455000C9455000C94550008
S11300200C9455000C9455000C9455000C945500F8
S11300300C9455000C9455000C9455000C945500E8
S11300400C9455000C9455000C9455000C945500D8
S11300500C9455000C9455000C9455000C945500C8
S11300600C9455000C9455000C9455000C945500B8
S113007011241FBECFEFD4E0DEBFCDBF11E0A0E05E
S1130080B1E0E0E5FFE002C005900D92AA36B107A9
S1130090D9F721E0AAE6B1E001C01D92A437B20766
S11300A0E1F70E9480020C94A6070C940000809350
S11300B0001489EF90E00197F1F700C000008091EF
S11300C0001490E008950E94D0014FEF64E680E6AA
S11300D00E94F60140E060EE8FE00E94F601089570
S11300E0BF92CF92DF92EF92FF920F931F93CF9321
S11300F0DF93CDB7DEB72A970FB6F894DEBF0FBEF5
S1130100CDBF0983C12E1A832B833C834D835E8329
S11301106F83788789879A87102F80E30E94B601BE
S1130120982F9870B92E83FD2DC0612F6295660FAC
S1130130607E82E30E94E201612F66956695669572
S113014081E30E94E2016C2D6F7085E30E94E2015D
S1130150D12C1C141D0494F47E01E3E0EE0EF11C7A
S113016000E010E0F70161917F0186E3800F0E94B7
S1130170E2010F5F1F4F0C151D05A4F381E00E94DF
S1130180100202C0BB24B3948B2D2A960FB6F894A8
S1130190DEBF0FBECDBFDF91CF911F910F91FF90B6
S11301A0EF90DF90CF90BF900895EF92FF920F935E
S11301B01F93CF93DF938C018CE20E94B60180FFE2
S11301C034C040E061E08CE20E94F60181E60E94C6
S11301D0B601C82FCC0FCC0FCC0FF801C08382E638
S11301E00E94B601829586958770C82BF801C0835A
S11301F085E60E94B6018F70F80181838823B9F0E7
S11302007801F2E0EF0EF11CC0E0D0E08C2F8A59A7
S11302100E94B601F70181937F012196F801818143
S113022090E0C817D90794F304C082E003C080E0CB
S113023001C080E0DF91CF911F910F91FF90EF906B
S113024008950F931F93CF93DF93CDB7DEB72A970B
S11302500FB6F894DEBF0FBECDBF262F01E018E025
S113026030E040E050E0682F70E080E090E00E94D1
S113027070002A960FB6F894DEBF0FBECDBFDF9193
S1130280CF911F910F910895CF92DF92EF92FF9239
S113029085E00E9457006C0184E00E9457007C01B5
S11302A0C701B601FF90EF90DF90CF900895CF92F1
S11302B0DF92EF92FF9285E00E9457006C0184E088
S11302C00E9457007C018FE7C81AD1088FE7E81A0B
S11302D0F108C701B601FF90EF90DF90CF90089529
S11302E0CF93DF93CDB7DEB72C970FB6F894DEBF6C
S11302F00FBECDBF86E00E94570098878F8387E0AA
S11303000E9457009A878987859B03C081E08C8768
S113031001C01C86849B03C081E08B8701C01B86BF
S113032086E0FE013796DE01119601900D928A95C2
S1130330E1F729813A814B815C816D817E8180E086
S113034090E02C960FB6F894DEBF0FBECDBFDF91C0
S1130350CF910895C4980895C49A08950E94AA015B
S113036080EC0E94EF020E94AC0108951F93CF938A
S1130370DF931F92CDB7DEB7182F0E94AA0183E046
S11303800E94EF02812F0E94EF020E94F3028983F0
S11303900E94AC0189810F90DF91CF911F91089544
S11303A00E94E9020E94AE018EE00E94B601807EA6
S11303B0803831F086E091E00E94800381E0089566
S11303C080E00895CF93DF93D82FC62F0E94AA010F
S11303D082E00E94EF028D2F0E94EF028C2F0E9478
S11303E0EF020E94AC01DF91CF9108951F93CF9348
S11303F0DF93182FD62FC42F0E94AA0185E00E94F4
S1130400EF02812F0E94EF028D2F0E94EF028C2FAA
S11304100E94EF020E94AC01DF91CF911F910895D9
S1130420CF93C82F0E94AA018C2F877080680E94E6
S1130430EF020E94AC01CF910895E0E0F0E18EEA72
S1130440808381EA80838AED808382E1808388ECE3
S1130450808388EA80838FE3808385ED808380E8CE
S1130460808381E8808380E5808389ED808381E2D5
S1130470808380E2808310828BED808380E380839D
S11304808DEA8083108284EA808386EA80838FEAFF
S113049080830895E0E0F0E181E2808310828FE7B9
S11304A0808382E28083108287E0808308950E94A3
S11304B04A02E0E0F8E1A0E0B2E181918C93E11519
S11304C08CE1F807D1F70895E0E0F8E11192E11525
S11304D08CE1F807D9F708958FE190E00E940303B7
S11304E060E173E08AE093E00E94210385B78068AD
S11304F085BFB89AC0980E941D020E9415030895F2
S1130500CF93DF93CDB7DEB761970FB6F894DEBF14
S11305100FBECDBF8B988A980E946C0219820E94EC
S113052057016B017C010E9463000E9464020E94D7
S11305304A020E9464020E9457021886198686E2C3
S113054091E00E9480030F2EFFE3AF2EF1E0BF2E57
S1130550F02D03E511E02FEF8FEF92E02150804062
S11305609040E1F700C000C0CE0108960E94D5007B
S1130570811103C01886198604C08CE291E00E94A0
S11305808003C701B6010E944401662E772E882E8F
S1130590992E7F936F93BF92AF920E946C039F92A8
S11305A08F921F930F930E946C03662D772D882DD5
S11305B0992D0E9421010E9470012A833B834C8360
S11305C05D836E837F830FB6F894DEBF0FBECDBF0D
S11305D0C2CF87B3806B87BB81E58DB908958FB98E
S11305E0779BFECF0895CF93DF931F92CDB7DEB7ED
S11305F08FEF8FB9779BFECF8FB1898389810F905D
S1130600DF91CF91089590BD89B988ED8AB986E8C4
S113061080BD08955D9BFECF8CB980E090E0089585
S11306205F9BFECF8CB190E0089581E48093001C21
S11306308093011C8093021C8093031C8093041CF0
S113064008950F931F93CF93DF93EC018B010097D1
S113065031F46115710519F480E090E038C06EE062
S113066070E081E090E00E947F05FC010097A1F317
S113067080E883830115110571F01387028781E8EF
S1130680838380916A0190916B01892B21F4F0930B
S11306906B01E0936A012097C9F0D187C0878381F9
S11306A08260838380916C0190916D01892B71F438
S11306B0F0936D01E0936C0180916E0190916F0154
S11306C0892B21F4F0936F01E0936E01CF01DF9148
S11306D0CF911F910F910895A0E0B0E0E2E7F3E01D
S11306E00C947F07FE01359661917191AF01809161
S11306F06C0190916D010E94AD03E2E00C949B07A4
S11307000F931F93CF93DF93E0916C01F0916D01F0
S1130710238121FF1BC0EC0100E010E0899160916E
S11307206C0170916D01DB011896ED91FC911997A4
S1130730882331F00995892B89F30FEF1FEFEECF52
S11307408AE00995892B11F4C80102C08FEF9FEF4D
S1130750DF91CF911F910F910895ACE0B0E0E3EBEE
S1130760F3E00C946F077C016B018A01FC01178292
S11307701682838181FFBDC1CE0101964C01F70130
S11307809381F60193FD859193FF81916F018823F5
S113079009F4ABC1853239F493FD859193FF8191BE
S11307A06F01853229F4B70190E00E94DF06E7CF9C
S11307B0512C312C20E02032A0F48B3269F030F43B
S11307C0803259F0833269F420612CC08D3239F0C3
S11307D0803339F4216026C02260246023C028605D
S11307E021C027FD27C030ED380F3A3078F426FFBA
S11307F006C0FAE05F9E300D1124532E13C08AE028
S1130800389E300D1124332E20620CC08E3221F418
S113081026FD6BC1206406C08C3611F4206802C02A
S1130820883641F4F60193FD859193FF81916F0120
S11308308111C1CF982F9F7D9554933028F40C5F7C
S11308401F4FFFE3F9830DC0833631F0833771F016
S1130850833509F05BC022C0F801808189830E5F73
S11308601F4F44244394512C540115C03801F2E025
S11308706F0E711CF801A080B18026FF03C0652DA6
S113088070E002C06FEF7FEFC5012C870E94D40691
S11308902C0183012C852F77222E17C03801F2E01A
S11308A06F0E711CF801A080B18026FF03C0652D76
S11308B070E002C06FEF7FEFC5012C870E94C20673
S11308C02C012C852068222E830123FC1BC0832D40
S11308D090E048165906B0F4B70180E290E00E9417
S11308E0DF063A94F4CFF50127FC859127FE819128
S11308F05F01B70190E00E94DF0631103A94F1E005
S11309004F1A51084114510471F7E5C0843611F0AF
S1130910893639F5F80127FF07C06081718182812A
S113092093810C5F1F4F08C060817181882777FD18
S11309308095982F0E5F1F4F2F76B22E97FF09C018
S113094090958095709561957F4F8F4F9F4F20684C
S1130950B22E2AE030E0A4010E941107A82EA818A4
S113096044C0853729F42F7EB22E2AE030E025C01A
S1130970F22FF97FBF2E8F36C1F018F4883579F045
S1130980B4C0803719F0883721F0AFC02F2F206111
S1130990B22EB4FE0DC08B2D8460B82E09C024FF86
S11309A00AC09F2F9660B92E06C028E030E005C02B
S11309B020E130E002C020E132E0F801B7FE07C0D8
S11309C060817181828193810C5F1F4F06C06081B9
S11309D0718180E090E00E5F1F4FA4010E94110717
S11309E0A82EA818FB2DFF77BF2EB6FE0BC02B2D0B
S11309F02E7FA51450F4B4FE0AC0B2FC08C02B2DFF
S1130A002E7E05C07A2C2B2D03C07A2C01C0752CA8
S1130A1024FF0DC0FE01EA0DF11D8081803311F425
S1130A20297E09C022FF06C07394739404C0822FE8
S1130A30867809F0739423FD13C020FF06C05A2C56
S1130A40731418F4530C5718732C731468F4B70107
S1130A5080E290E02C870E94DF0673942C85F5CF0A
S1130A60731410F4371801C0312C24FF12C0B701DD
S1130A7080E390E02C870E94DF062C8522FF17C0BC
S1130A8021FF03C088E590E002C088E790E0B70149
S1130A900CC0822F867859F021FD02C080E201C08B
S1130AA08BE227FD8DE2B70190E00E94DF06A514DA
S1130AB038F4B70180E390E00E94DF065A94F7CF40
S1130AC0AA94F401EA0DF11D8081B70190E00E941F
S1130AD0DF06A110F5CF332009F451CEB70180E22F
S1130AE090E00E94DF063A94F6CFF7018681978161
S1130AF002C08FEF9FEF2C96E2E10C948B070F93CB
S1130B001F93CF93DF93869F8001879F100D969F3D
S1130B10100D1124C8010E949B05EC01009729F0D7
S1130B20A80160E070E00E94CD06CE01DF91CF9174
S1130B301F910F910895CF93DF938230910510F4A4
S1130B4082E090E0E0917201F091730120E030E0E6
S1130B50A0E0B0E0309739F140815181481759073E
S1130B60B8F04817590771F482819381109729F0DE
S1130B7013969C938E9312972CC090937301809339
S1130B80720127C02115310531F04217530718F0BF
S1130B90A901DB0101C0EF019A01BD01DF0102805F
S1130BA0F381E02DD7CF21153105F9F0281B390B3E
S1130BB02430310580F48A819B816115710521F00F
S1130BC0FB019383828304C0909373018093720129
S1130BD0FE01329644C0FE01E20FF31F819391930C
S1130BE022503109398328833AC020917001309111
S1130BF07101232B41F420910201309103013093C0
S1130C00710120937001209100013091010121159F
S1130C10310541F42DB73EB74091040150910501CF
S1130C20241B350BE0917001F0917101E217F30779
S1130C30A0F42E1B3F0B2817390778F0AC014E5F48
S1130C405F4F2417350748F04E0F5F1F5093710113
S1130C50409370018193919302C0E0E0F0E0CF01F2
S1130C60DF91CF910895CF93DF93009709F487C064
S1130C70FC01329713821282C0917201D0917301E8
S1130C80209781F420813181280F391F80917001D0
S1130C90909171018217930779F5F0937101E093B4
S1130CA070016DC0DE0120E030E0AE17BF0750F4E4
S1130CB012964D915C9113979D014115510509F1CF
S1130CC0DA01F3CFB383A28340815181840F951F4E
S1130CD08A179B0771F48D919C911197840F951F2E
S1130CE002969183808312968D919C91139793839E
S1130CF082832115310529F4F0937301E093720185
S1130D003EC0D9011396FC93EE9312974D915D91D9
S1130D10A40FB51FEA17FB0779F480819181840F32
S1130D20951F0296D90111969C938E93828193818B
S1130D3013969C938E931297E0E0F0E08A819B8156
S1130D40009719F0FE01EC01F9CFCE01029628813B
S1130D503981820F931F20917001309171012817FE
S1130D60390769F4309729F41092730110927201D3
S1130D7002C013821282D0937101C0937001DF917B
S1130D80CF910895FC010590615070400110D8F78F
S1130D90809590958E0F9F1F0895DC0101C06D937F
S1130DA041505040E0F70895FC01615070400190BB
S1130DB00110D8F7809590958E0F9F1F08950F937B
S1130DC01F93CF93DF93182F092FEB018B8181FDA4
S1130DD003C08FEF9FEF20C082FF10C04E815F8160
S1130DE02C813D81421753077CF4E881F9819F01EE
S1130DF02F5F3F4F39832883108306C0E885F98528
S1130E00812F0995892B29F72E813F812F5F3F4F31
S1130E103F832E83812F902FDF91CF911F910F91CC
S1130E200895FA01AA27283051F1203181F1E8947C
S1130E306F936E7F6E5F7F4F8F4F9F4FAF4FB1E0C9
S1130E403ED0B4E03CD0670F781F891F9A1FA11DC4
S1130E50680F791F8A1F911DA11D6A0F711D811DC5
S1130E60911DA11D20D009F468943F912AE0269F8A
S1130E7011243019305D3193DEF6CF010895462FE9
S1130E804770405D4193B3E00FD0C9F7F6CF462FCA
S1130E904F70405D4A3318F0495D31FD4052419333
S1130EA002D0A9F7EACFB4E0A695979587957795F0
S1130EB06795BA95C9F700976105710508959B0177
S1130EC0AC010A2E06945795479537952795BA9500
S1130ED0C9F7620F731F841F951FA01D08952F92D9
S1130EE03F924F925F926F927F928F929F92AF92B6
S1130EF0BF92CF92DF92EF92FF920F931F93CF9303
S1130F00DF93CDB7DEB7CA1BDB0B0FB6F894DEBF99
S1130F100FBECDBF09942A88398848885F846E84BF
S1130F207D848C849B84AA84B984C884DF80EE8009
S1130F30FD800C811B81AA81B981CE0FD11D0FB612
S1130F40F894DEBF0FBECDBFED010895F894FFCF36
S1130F500000740120004D435032353135204E4F8E
S1130F605420636F6E666967757265642070726F72
S1130F707065726C79007374617274004E6F74687A
S1130F80696E6720746F20726563656976650054C5
S1130F90686520782D617869732069733A20256427
S1130FA0202000202054686520792D617869732001
S10D0FB069733A202564200A20002A
S9030000FC
