:100000000C9433010C9450010C9450010C94500149
:100010000C9450010C9450010C9450010C9450011C
:100020000C9450010C9450010C9450010C9450010C
:100030000C9450010C9450010C9450010C945001FC
:100040000C9450010C9450010C9450010C945001EC
:100050000C9450010C9450010C9450010C945001DC
:100060000C9450010C9450010C9450010C945001CC
:10007000AC09B109B609BE09C709D009D909E70910
:10008000E209EC09F109F609FB0900000000000093
:10009000005E0000000E000E00287C287C2808541A
:1000A0007C54202610086400285428400000000ECC
:1000B0000000003C42000000423C00000054385464
:1000C0000010107C10100080602000101010100034
:1000D00000606000002010080400003C423C00006A
:1000E000447E40004462524C00224A4A36001814B2
:1000F0007E10002E4A4A32003C4A4A300002621A00
:100100000600344A4A34000C52523C00006C6C0029
:1001100000806C2C000000102844002828282800AB
:1001200000442810000004520C003C425A1C007C81
:1001300012127C007E4A4A34003C424224007E4235
:10014000423C007E4A4A42007E0A0A02003C425279
:1001500074007E08087E0000427E42002040403E3F
:10016000007E182442007E404040007E0C0C7E0041
:100170007E0C307E003C42423C007E12120C003C61
:100180006242BC007E12324C00244A52240000021B
:100190007E02003E40403E001E60601E007E303009
:1001A0007E006618186600000E700E0062524A4605
:1001B00000007E42420004081020000042427E00FF
:1001C00000040204004040404000000204000030EF
:1001D000482878007E4848300030484800003048C1
:1001E000487E003068581000107C12040050A8A807
:1001F00098007E0808700000487A40000040807A2D
:10020000007E1028400000427E40007810187000E8
:1002100078080870003048483000F848483000300E
:100220004848F80078080810005058682800083E30
:10023000484000384040780000384038007860601E
:100240007800483030480018A040380048685848C6
:100250000000083C420000007E000000423C080014
:1002600004020402000011241FBECFEFD4E0DEBF61
:10027000CDBF12E0A0E0B1E0E2EEF7E102C00590F0
:100280000D92AE33B107D9F722E0AEE3B2E001C080
:100290001D92AF34B207E1F70E9486040C94EF0B75
:1002A0000C9400008093001489EF90E00197F1F71F
:1002B00000C000008091001490E008950E941E0389
:1002C0004FEF64E680E60E94440340E060EE8FE07A
:1002D0000E9444030895BF92CF92DF92EF92FF9263
:1002E0000F931F93CF93DF93CDB7DEB72A970FB647
:1002F000F894DEBF0FBECDBF0983C12E1A832B83B6
:100300003C834D835E836F83788789879A87102F1C
:1003100080E30E940403982F9870B92E83FD2DC0AE
:10032000612F6295660F607E82E30E943003612F29
:1003300066956695669581E30E9430036C2D6F701B
:1003400085E30E943003D12C1C141D0494F47E011B
:10035000E3E0EE0EF11C00E010E0F70161917F0197
:1003600086E3800F0E9430030F5F1F4F0C151D05A1
:10037000A4F381E00E945E0302C0BB24B3948B2DE2
:100380002A960FB6F894DEBF0FBECDBFDF91CF9196
:100390001F910F91FF90EF90DF90CF90BF90089545
:1003A000EF92FF920F931F93CF93DF938C018CE218
:1003B0000E94040380FF34C040E061E08CE20E94B0
:1003C000440381E60E940403C82FCC0FCC0FCC0F4E
:1003D000F801C08382E60E940403829586958770A7
:1003E000C82BF801C08385E60E9404038F70F801D2
:1003F00081838823B9F07801F2E0EF0EF11CC0E0B0
:10040000D0E08C2F8A590E940403F70181937F0169
:100410002196F801818190E0C817D90794F304C0B0
:1004200082E003C080E001C080E0DF91CF911F91A6
:100430000F91FF90EF9008950F931F93CF93DF9349
:10044000CDB7DEB72A970FB6F894DEBF0FBECDBF8B
:1004500001E016E0282F392F89859A850E946B01CB
:100460002A960FB6F894DEBF0FBECDBFDF91CF91B5
:100470001F910F9108950F931F93CF93DF93CDB7E3
:10048000DEB72A970FB6F894DEBF0FBECDBF02E0ED
:1004900011E0282F3C814D815E816F8178858985AF
:1004A0009A850E946B012A960FB6F894DEBF0FBEA4
:1004B000CDBFDF91CF911F910F910895CF9385E02C
:1004C0000E945201C82F84E00E945201982F8C2F65
:1004D000CF910895682F8D3D20F4843120F480E081
:1004E00003C081E001C084E09D3D20F4943120F4FC
:1004F000E3E003C0E2E001C0E4E0292F30E021594D
:100500003109A901332324F444275527421B530BF7
:1005100070E0675871099B01772324F42227332761
:10052000261B370B241735070CF48E2F0895CF9315
:1005300086E00E945201C82F87E00E945201782F66
:10054000859B02C091E001C090E0849B02C081E0E5
:1005500001C080E06C2FCF910895823020F084E0BC
:1005600080930701089590910701981719F08093DF
:100570000701089584E008959EEF980F923020F0CF
:1005800084E080930601089590910601981719F070
:1005900080930601089584E008952091410221117D
:1005A00005C0913019F4909341020CC02091410292
:1005B000213029F4911105C01092410203C090E04E
:1005C00001C090E020914002211105C0813019F452
:1005D00080934002089520914002213029F4811136
:1005E00005C010924002089580E0089580E00895CB
:1005F000C4980895C49A08950E94F80280EC0E945D
:10060000A1040E94FA0208951F93CF93DF931F92D3
:10061000CDB7DEB7182F0E94F80283E00E94A10434
:10062000812F0E94A1040E94A50489830E94FA02DE
:1006300089810F90DF91CF911F9108950E949B04B3
:100640000E94FC028EE00E940403807E803831F01C
:1006500088E091E00E94780A81E0089580E00895A2
:10066000CF93DF93D82FC62F0E94F80282E00E941A
:10067000A1048D2F0E94A1048C2F0E94A1040E942E
:10068000FA02DF91CF9108951F93CF93DF93182F34
:10069000D62FC42F0E94F80285E00E94A104812F6A
:1006A0000E94A1048D2F0E94A1048C2F0E94A104FE
:1006B0000E94FA02DF91CF911F910895CF93C82F26
:1006C0000E94F8028C2F877080680E94A1040E940B
:1006D000FA02CF910895E0E0F0E18EEA808381EAAA
:1006E00080838AED808382E1808388EC808388EA3E
:1006F00080838FE3808385ED808380E8808381E839
:10070000808380E5808389ED808381E2808380E23D
:10071000808310828BED808380E380838DEA8083E9
:10072000108284EA808386EA80838FEA808308953A
:10073000E0E0F0E181E2808310828FE7808382E253
:100740008083108287E0808308950E949803E0E010
:10075000F8E1A0E0B2E181918C93E1158CE1F8071A
:10076000D1F70895E0E0F8E11192E1158CE1F80786
:10077000D9F70895CF93DF93C0914202D0914302FD
:10078000282F30E020523109C901880F991F880FA6
:10079000991F280F391F26573F4F84E090E0BE0174
:1007A0006C5F774EDB01A81BB90BF90145915491A1
:1007B0004C9301972F5F3F4F0097A1F72496D0935A
:1007C0004302C0934202DF91CF910895CF93DF930C
:1007D000C0914202D0914302282F30E020523109CB
:1007E000C901880F991F880F991F280F391F265795
:1007F0003F4F84E090E0BE016C5F774EDB01A81BA9
:10080000B90BF9014591549140954C9301972F5F95
:100810003F4F009799F72496D0934302C09342022A
:10082000DF91CF91089581329105C0F4693071054F
:10083000C0F4660F771F62957295707F7627607F90
:100840007627860F971F880F991F880F991F9093FF
:1008500043028093420280E090E0089581E090E0BE
:10086000089581E090E00895EF92FF920F931F9317
:10087000CF93DF93FC0101900020E9F731977F01CE
:10088000E81AF90A1E141F0464F48C01C0E0D0E0D9
:10089000F80181918F010E94BA032196EC16FD06A2
:1008A000B9F780E090E0DF91CF911F910F91FF9019
:1008B000EF90089590E8899FF0011124CF018058AE
:1008C0009F4F9F012E5F3F4F2817390754F4EF5F6A
:1008D000F74E8150984E208120952193E817F90713
:1008E000D1F708958FE190E00E94B50462EC74E0C6
:1008F0008CEB94E00E942D0A85B7806885BFB89A7A
:10090000C0980E946B030E94C70408958B988A9830
:100910000E9472040E945E010E94B2030E9498032A
:100920000E94B2030E94A50388E291E00E94780A27
:100930000E949E09FDCF87B3806B87BB81E58DB98F
:1009400008958FB9779BFECF0895CF93DF931F92C1
:10095000CDB7DEB78FEF8FB9779BFECF8FB189838D
:1009600089810F90DF91CF91089590BD89B988ED6D
:100970008AB986E880BD08955D9BFECF8CB980E082
:1009800090E008955F9BFECF8CB190E0089581E4E4
:100990008093001C8093011C8093021C8093031C95
:1009A0008093041C08956F927F928F929F92AF92D2
:1009B000BF92CF92DF92EF92FF920F931F93CF934C
:1009C000DF9300D000D01F92CDB7DEB7DE011196C5
:1009D000E0E0FCE181918D93E5308CE1F807D1F7FF
:1009E0000E945E020E946A02182F0E94BC02812FA0
:1009F0000E94AD0260E070E08CE090E00E94130481
:100A00008EE791E00E94340480E00E945A0464E082
:100A100070E084E090E00E941304912C68946624B6
:100A200062F80F2EF5E0EF2EF12CF02D712C812CB9
:100A30000E945E020E946A02182F0E94BC02082FC8
:100A4000812F0E94AD02813049F4292D30E0C90187
:100A50000196B7010E94FF09982E07C0811105C0B9
:100A6000992011F09A9401C0962C0230B1F4892D8E
:100A700090E0E1E0F0E0EC0FFD1FE80FF91F2081AE
:100A80002A3511F02F5F01C021E4E1E0F0E0EC0F26
:100A9000FD1FE80FF91F208317C00330A9F4892D2B
:100AA00090E0E1E0F0E0EC0FFD1FE80FF91F20817E
:100AB000213411F0215001C02AE5E1E0F0E0EC0F13
:100AC000FD1FE80FF91F208364E070E08AE090E0EA
:100AD0000E941304072D182DC92CD12CAA24A394ED
:100AE000B12CAC0EBD1EAC0CBD1CC016D10629F439
:100AF000F50180810E94E60309C0E1E0F0E0EC0F1F
:100B0000FD1FE00FF11F80810E94BA0380E20E9466
:100B1000BA030F5F1F4F0530110539F70E94A50377
:100B20000E9497020E94CD02882309F481CFDE0142
:100B30001196E0E0FCE18D918193E5308CE1F807BE
:100B4000D1F781E00F900F900F900F900F90DF91F1
:100B5000CF911F910F91FF90EF90DF90CF90BF90BA
:100B6000AF909F908F907F906F9008950F931F93F9
:100B7000CF93DF930E945E020E946A02C82F0E94F8
:100B8000BC028C2F0E94AD0260E070E08DE090E02E
:100B90000E9413048EE291E00E94340480E00E94DF
:100BA0005A0462E070E083E090E00E94130487E35F
:100BB00091E00E94340463E070E083E090E00E94E2
:100BC000130480E491E00E94340464E070E083E068
:100BD00090E00E94130485E491E00E94340465E0F3
:100BE00070E083E090E00E9413048CE491E00E94A6
:100BF000340466E070E083E090E00E94130481E535
:100C000091E00E943404C0E0DDEC0E945E020E948C
:100C10006A02182F0E94BC02082F812F0E94AD0289
:100C2000813009F478C0882309F477C00230B9F420
:100C3000CD9F812D112486958695982F990F990F18
:100C4000890F6C2F681B70E06E5F7F4F81E090E032
:100C50000E94130480E20E94BA03C15018C00330FE
:100C6000B1F4CD9F812D112486958695982F990FEB
:100C7000990F890F6C2F681B70E06E5F7F4F81E0CA
:100C800090E00E94130480E20E94BA03CF5FCD9FE0
:100C9000812D112486958695982F990F990F890F8C
:100CA0006C2F681B70E06E5F7F4F81E090E00E94C8
:100CB000130483E20E94BA030E9497020E94CD02AD
:100CC000882331F1C230A9F028F4CC2341F0C1309F
:100CD00059F01EC0C33091F0C430A9F019C081E0B2
:100CE0000E943B0282E01AC082E00E943B0283E045
:100CF00015C083E00E943B0284E010C084E00E94A3
:100D00003B0285E00BC085E00E943B0286E006C006
:100D10000E94A5037ACF87E001C088E0DF91CF91E0
:100D20001F910F9108950E945E020E946A020E9424
:100D3000AD0260E070E089E090E00E94130488E575
:100D400091E00E94340480E00E945A040E94A503AE
:100D50000E945E020E946A020E94AD02813019F078
:100D60008111F6CF02C081E0089587E008950F93C6
:100D70001F93CF93DF930E945E020E946A02C82FE6
:100D80000E94BC028C2F0E94AD0260E070E08CE0FB
:100D900090E00E94130484E691E00E94340480E015
:100DA0000E945A0463E070E083E090E00E94130424
:100DB0008CE691E00E94340464E070E083E090E00F
:100DC0000E94130481E791E00E94340465E070E022
:100DD00083E090E00E94130487E791E00E943404CE
:100DE000C0E0DBEA0E945E020E946A02182F0E94A5
:100DF000BC02082F812F0E94AD02813009F456C039
:100E0000882309F455C00230A9F4CD9F812D112407
:100E10008695982F990F890F6C2F681B70E06D5F76
:100E20007F4F81E090E00E94130480E20E94BA03A9
:100E3000C15016C00330A1F4CD9F812D1124869599
:100E4000982F990F890F6C2F681B70E06D5F7F4F93
:100E500081E090E00E94130480E20E94BA03CF5F19
:100E6000CD9F812D11248695982F990F890F6C2F76
:100E7000681B70E06D5F7F4F81E090E00E9413047B
:100E800083E20E94BA030E9497020E94CD02882347
:100E900051F0C13079F018F0C23019F004C08AE086
:100EA0000AC080E008C00E94A5039CCF88E003C070
:100EB00081E001C089E0DF91CF911F910F910895EA
:100EC000DF92EF92FF920F931F93CF93DF930E94D5
:100ED0005E020E946A020E94BC0260E070E08EE046
:100EE00090E00E9413048CE691E00E94340480E0BC
:100EF0000E945A0463E070E083E090E00E941304D3
:100F000087E891E00E94340465E070E083E090E0BF
:100F10000E94130485E491E00E94340463E070E0D1
:100F200081E090E00E94130483E20E94BA03D12C76
:100F30000E945E020E946A020E94BC02823089F412
:100F40000D2D017010E0B801660F771F6D5F7F4FA8
:100F500081E090E00E94130480E20E94BA03DA94D8
:100F600013C0833089F4D0FAEE24E0F8F12CB701F5
:100F7000660F771F6D5F7F4F81E090E00E94130442
:100F800080E20E94BA03D3948D2D8170C82F80E037
:100F9000D82FBE01660F771F6D5F7F4F81E090E015
:100FA0000E94130483E20E94BA030E9497020E94E7
:100FB000CD02882351F0D1100BC086E00E943B0285
:100FC00085E491E00E94780A03C00E94A503B0CF97
:100FD00087E0DF91CF911F910F91FF90EF90DF900D
:100FE0000895DF92EF92FF920F931F93CF93DF93B9
:100FF0000E945E020E946A020E94BC0260E070E0F1
:101000008EE090E00E94130481E791E00E94340496
:1010100080E00E945A0463E070E083E090E00E9468
:1010200013048FE891E00E94340465E070E083E0EF
:1010300090E00E94130482E991E00E943404D12CD4
:101040000E945E020E946A020E94BC02823089F401
:101050000D2D017010E0B801660F771F6D5F7F4F97
:1010600081E090E00E94130480E20E94BA03DA94C7
:1010700013C0833089F4D0FAEE24E0F8F12CB701E4
:10108000660F771F6D5F7F4F81E090E00E94130431
:1010900080E20E94BA03D3948D2D8170C82F80E026
:1010A000D82FBE01660F771F6D5F7F4F81E090E004
:1010B0000E94130483E20E94BA030E9497020E94D6
:1010C000CD02882381F0DD2021F081E0D81631F0B7
:1010D0000DC086E991E00E94780A08C089E991E094
:1010E0000E94780A03C00E94A503AACF87E0DF917F
:1010F000CF911F910F91FF90EF90DF900895EF92A5
:10110000FF920F931F93CF93DF9360E070E08EE028
:1011100090E00E94130487E391E00E94340480E091
:101120000E945A0466E070E080E090E00E941304A0
:101130008DE991E00E9434040E94A50361E070E013
:1011400080E090E00E9413048EEB91E00E94340452
:101150000E94A5030E945E02EC010E949702072FE5
:10116000192F4FE7572F60E0792FCE010E941C0204
:101170006FE7702F80E0912F0E94CD02992351F3E9
:1011800061E070E080E090E00E9413048AED91E05D
:101190000E9434040E94A5030E949702E62E072FA6
:1011A000192F462F572F60E0792FCE010E941C0285
:1011B0006E2D702F80E0912F0E94CD02992361F354
:1011C00061E070E080E090E00E9413048BEF91E01A
:1011D0000E9434040E94A5030E949702072FF82E54
:1011E000192F4FE7572F682F792FCE010E941C022D
:1011F0006FE7702F8F2D912F0E94CD02992361F3FD
:1012000061E070E080E090E00E9413048CE192E0E5
:101210000E9434040E94A5030E949702E62E072F25
:10122000F82E192F0E945E024E2D502F6F2D712F18
:101230000E941C026E2D702F8F2D912F0E94CD02C7
:10124000992351F381E0DF91CF911F910F91FF908E
:10125000EF9008958330A1F018F4823031F030C05F
:101260008430C9F0853011F12BC060E070E08EE071
:1012700090E00E94130480E491E00E94340420C0B6
:1012800060E070E08CE090E00E94130485E491E05F
:101290000E94340415C060E070E08CE090E00E9491
:1012A00013048CE491E00E9434040AC060E070E012
:1012B0008CE090E00E94130481E591E00E943404E8
:1012C00080E00E945A040E94A5038BE00895FF92DB
:1012D0000F931F93CF93DF93CDB7DEB72A970FB647
:1012E000F894DEBF0FBECDBFFF24FA940E945E02C9
:1012F0008C010E949702AB01BC01C8010E941C0234
:1013000089EF90E00197F1F700C00000CE0101964F
:101310000E94D001882311F0F982E8CF89818530BD
:1013200029F78CE02A960FB6F894DEBF0FBECDBF2A
:10133000DF91CF911F910F91FF9008950E94B2030A
:101340008091440290E08D30910508F057C0FC0177
:10135000E85CFF4F0C94130A0E94D304809344026C
:1013600008950E94B60580934402089581E00E948A
:101370003B020E947F0880934402089582E00E940D
:101380003B0282E00E942A0980934402089583E090
:101390000E943B0283E00E942A0980934402089540
:1013A00084E00E943B0284E00E942A098093440268
:1013B000089585E00E943B0285E00E942A098093FF
:1013C000440208950E9493068093440208950E9467
:1013D000B7068093440208950E94F1078093440267
:1013E00008950E9460078093440208950E9467094F
:1013F00080934402089588E080934402089597FB07
:10140000072E16F4009407D077FD09D00E94190A20
:1014100007FC05D03EF4909581959F4F08957095F7
:1014200061957F4F0895EE0FFF1F0590F491E02D19
:101430000994AA1BBB1B51E107C0AA1FBB1FA6171B
:10144000B70710F0A61BB70B881F991F5A95A9F76D
:1014500080959095BC01CD0108950F931F93CF9374
:10146000DF93EC018B01009731F46115710519F4DC
:1014700080E090E038C06EE070E081E090E00E9493
:10148000A50AFC010097A1F380E8838301151105EB
:1014900071F01387028781E88383809145029091E0
:1014A0004602892B21F4F0934602E09345022097EF
:1014B000C9F0D187C087838182608383809147028E
:1014C00090914802892B71F4F0934802E09347020F
:1014D0008091490290914A02892B21F4F0934A02AB
:1014E000E0934902CF01DF91CF911F910F910895B1
:1014F0000F931F93CF93DF93E0914702F09148023F
:10150000238121FF1BC0EC0100E010E08991609174
:10151000470270914802DB011896ED91FC911997F2
:10152000882331F00995892B89F30FEF1FEFEECF58
:101530008AE00995892B11F4C80102C08FEF9FEF53
:10154000DF91CF911F910F9108950F931F93CF9328
:10155000DF93869F8001879F100D969F100D1124A9
:10156000C8010E94C10AEC01009729F0A80160E0BF
:1015700070E00E94E80BCE01DF91CF911F910F9197
:101580000895CF93DF938230910510F482E090E0CC
:10159000E0914D02F0914E0220E030E0A0E0B0E09A
:1015A000309739F14081518148175907B8F04817F1
:1015B000590771F482819381109729F013969C93B7
:1015C0008E9312972CC090934E0280934D0227C0A9
:1015D0002115310531F04217530718F0A901DB013D
:1015E00001C0EF019A01BD01DF010280F381E02D0E
:1015F000D7CF21153105F9F0281B390B24303105DF
:1016000080F48A819B816115710521F0FB01938330
:10161000828304C090934E0280934D02FE01329665
:1016200044C0FE01E20FF31F8193919322503109D0
:10163000398328833AC020914B0230914C02232BEE
:1016400041F4209102013091030130934C02209328
:101650004B0220910001309101012115310541F427
:101660002DB73EB74091040150910501241B350B65
:10167000E0914B02F0914C02E217F307A0F42E1B0D
:101680003F0B2817390778F0AC014E5F5F4F2417E6
:10169000350748F04E0F5F1F50934C0240934B02AA
:1016A0008193919302C0E0E0F0E0CF01DF91CF9110
:1016B0000895CF93DF93009709F487C0FC01329718
:1016C00013821282C0914D02D0914E02209781F474
:1016D00020813181280F391F80914B0290914C025B
:1016E0008217930779F5F0934C02E0934B026DC09B
:1016F000DE0120E030E0AE17BF0750F412964D91A6
:101700005C9113979D014115510509F1DA01F3CF61
:10171000B383A28340815181840F951F8A179B0751
:1017200071F48D919C911197840F951F029691836E
:10173000808312968D919C911397938382832115B8
:10174000310529F4F0934E02E0934D023EC0D901D9
:101750001396FC93EE9312974D915D91A40FB51FD4
:10176000EA17FB0779F480819181840F951F029617
:10177000D90111969C938E938281938113969C93A9
:101780008E931297E0E0F0E08A819B81009719F038
:10179000FE01EC01F9CFCE01029628813981820F3A
:1017A000931F20914B0230914C022817390769F49E
:1017B000309729F410924E0210924D0202C013820B
:1017C0001282D0934C02C0934B02DF91CF910895C7
:1017D000DC0101C06D9341505040E0F70895F8944A
:0217E000FFCF39
:1017E20000004F02200004044D43503235313520B1
:1017F2004E4F5420636F6E66696775726564207020
:10180200726F7065726C79007374617274004E65E8
:10181200772067616D65005475746F7269616C0041
:1018220045617379004E6F726D616C00486172643C
:1018320000496E73616E6500486967682053636F83
:10184200726573004F7074696F6E73004D6F6465DB
:1018520000536F756E64004368616E67652055734F
:1018620065726E616D650052657665727365004FD3
:101872006E004F6666004F4E004F4646005072653E
:101882007373204C45465420425554544F4E207495
:101892006F20636F6E74696E75652E2E2E00546F05
:1018A200206D6F766520736572766F206D6F766539
:1018B200206A6F79737469636B00546F206D6F7661
:1018C20065206D6F746F7220746F75636820524962
:1018D20047485420534C49444552002020546F201D
:1018E20073686F6F7420746F75636820524947483C
:1018F2005420425554544F4E2020200020202020B6
:101902005472792065766572797468696E6720749D
:0E1912006F6765746865722020202020000039
:00000001FF
