S01B000050696E67506F6E674170706C69636174696F6E2E7372656373
S11300000C9438000C944A000C944A000C944A0056
S11300100C944A000C944A000C944A000C944A0034
S11300200C944A000C944A000C944A000C944A0024
S11300300C944A000C944A000C944A000C944A0014
S11300400C944A000C944A000C944A000C945700F7
S11300500C944A000C944A000C944A000C947E00C0
S11300600C944A000C944A000C944A000C944A00E4
S113007011241FBECFEFD4E0DEBFCDBF21E0A0E04E
S1130080B1E001C01D92A130B207E1F70E948C00DB
S11300900C94A7000C94000090BD89B988ED8AB92E
S11300A086E880BD08955D9BFECF8CB908951F92AC
S11300B00F920FB60F9211242F933F934F935F9398
S11300C06F937F938F939F93AF93BF93EF93FF931C
S11300D08CB1809300010E945300FF91EF91BF9176
S11300E0AF919F918F917F916F915F914F913F91CC
S11300F02F910F900FBE0F901F9018951F920F9283
S11301000FB60F9211248F938FEF85BB8F910F90B1
S11301100FBE0F901F9018958FEF84BB15BA78947B
S11301208FE190E00E944C002FE986E891E0215095
S113013080409040E1F700C000002FE986E891E09C
S1130140215080409040E1F700C00000EDCFF894CA
S1050150FFCFDB
S9030000FC
