:100000000C9433010C9450010C9450010C94500149
:100010000C9450010C9450010C9450010C9450011C
:100020000C9450010C9450010C9450010C9450010C
:100030000C9450010C94BA070C9450010C9450018C
:100040000C9450010C9450010C9450010C945001EC
:100050000C9450010C9450010C9450010C945001DC
:100060000C9450010C9450010C9450010C945001CC
:10007000F40DF90DFE0D060E0F0E180E210E2F0EAB
:100080002A0E340E390E3E0E430E00000000000012
:10009000005E0000000E000E00287C287C2808541A
:1000A0007C54202610086400285428400000000ECC
:1000B0000000003C42000000423C00000054385464
:1000C0000010107C10100080602000101010100034
:1000D00000606000002010080400003C423C00006A
:1000E000447E40004462524C00224A4A36001814B2
:1000F0007E10002E4A4A32003C4A4A300002621A00
:100100000600344A4A34000C52523C00006C6C0029
:1001100000806C2C000000102844002828282800AB
:1001200000442810000004520C003C425A1C007C81
:1001300012127C007E4A4A34003C424224007E4235
:10014000423C007E4A4A42007E0A0A02003C425279
:1001500074007E08087E0000427E42002040403E3F
:10016000007E182442007E404040007E0C0C7E0041
:100170007E0C307E003C42423C007E12120C003C61
:100180006242BC007E12324C00244A52240000021B
:100190007E02003E40403E001E60601E007E303009
:1001A0007E006618186600000E700E0062524A4605
:1001B00000007E42420004081020000042427E00FF
:1001C00000040204004040404000000204000030EF
:1001D000482878007E4848300030484800003048C1
:1001E000487E003068581000107C12040050A8A807
:1001F00098007E0808700000487A40000040807A2D
:10020000007E1028400000427E40007810187000E8
:1002100078080870003048483000F848483000300E
:100220004848F80078080810005058682800083E30
:10023000484000384040780000384038007860601E
:100240007800483030480018A040380048685848C6
:100250000000083C420000007E000000423C080014
:1002600004020402000011241FBECFEFD4E0DEBF61
:10027000CDBF13E0A0E0B1E0E8E7F6E202C00590F0
:100280000D92AE36B107D9F723E0AEE6B3E001C078
:100290001D92A638B207E1F70E9410070C943A139A
:1002A0000C9400008093001489EF90E00197F1F71F
:1002B00000C000008091001408950E9415034FEFC4
:1002C00064E680E60E943B0340E060EE8FE00E941F
:1002D0003B030895DF92EF92FF920F931F93CF930A
:1002E000DF93CDB7DEB72A970FB6F894DEBF0FBE07
:1002F000CDBF0983E12E1A832B833C834D835E831C
:100300006F83788789879A8780E30E94FB02982F02
:100310009870D92E83FD2BC0602F6295660F607E8A
:1003200082E30E942703602F66956695669581E3B8
:100330000E9427036E2D6F7085E30E942703EE2035
:1003400091F08E010D5F1F4FE6E3EE0E0F2EF6E3E8
:10035000FF2EF02DF80161918F018F2D0E94270350
:10036000F394FE10F7CF81E00E94550302C0DD2414
:10037000D3948D2D2A960FB6F894DEBF0FBECDBF55
:10038000DF91CF911F910F91FF90EF90DF90089533
:100390001F93CF93DF93EC018CE20E94FB0280FF5E
:1003A0002AC040E061E08CE20E943B0381E60E94AB
:1003B000FB02182F110F110F110F188382E60E94F4
:1003C000FB02829586958770182B188385E60E941C
:1003D000FB028F708983882381F010E086E6810F0D
:1003E0000E94FB02FE01E10FF11D82831F5F8981E4
:1003F0001817A0F304C082E003C080E001C080E0D1
:10040000DF91CF911F9108950F931F93CF93DF93A7
:10041000CDB7DEB72A970FB6F894DEBF0FBECDBFBB
:1004200001E016E0282F392F89859A850E946A01FC
:100430002A960FB6F894DEBF0FBECDBFDF91CF91E5
:100440001F910F9108950F931F93CF93DF93CDB713
:10045000DEB72A970FB6F894DEBF0FBECDBF02E01D
:1004600011E0282F3C814D815E816F8178858985DF
:100470009A850E946A012A960FB6F894DEBF0FBED5
:10048000CDBFDF91CF911F910F910895E199FECFDC
:100490009FBB8EBB6DBBE29AE19A0895E199FECFB6
:1004A0009FBB8EBBE09A8DB30895CF9385E00E94E9
:1004B0005201C82F84E00E945201982F8C2FCF91B7
:1004C0000895682F8D3D20F4843120F480E003C02E
:1004D00081E001C084E09D3D20F4943120F4E3E00C
:1004E00003C0E2E001C0E4E0292F30E021593109E6
:1004F000A901332324F444275527421B530B70E0F2
:10050000675871099B01772324F422273327261B80
:10051000370B241735070CF48E2F0895CF9386E000
:100520000E945201C82F87E00E945201782F859BBC
:1005300002C091E001C090E0849B02C081E001C054
:1005400080E06C2FCF910895823020F084E080937A
:100550000701089590910701981719F080930701FA
:10056000089584E008959EEF980F923020F084E083
:1005700080930601089590910601981719F08093D1
:100580000601089584E0089520917103211105C0AA
:10059000913019F4909371030CC0209171032130B4
:1005A00029F4911105C01092710303C090E001C0BD
:1005B00090E020917003211105C0813019F48093DF
:1005C0007003089520917003213029F4811105C032
:1005D00010927003089580E0089580E00895C49813
:1005E0000895C49A08950E94EF0280EC0E948F073C
:1005F0000E94F10208951F93CF93DF931F92CDB70E
:10060000DEB7182F0E94EF0283E00E948F07812F30
:100610000E948F070E94930789830E94F1028981BB
:100620000F90DF91CF911F9108950E9489070E943A
:10063000F3028EE00E94FB02807E803831F08FE072
:1006400091E00E94E40E81E0089580E00895CF9348
:10065000DF93D82FC62F0E94EF0282E00E948F07FF
:100660008D2F0E948F078C2F0E948F070E94F1020E
:10067000DF91CF9108951F93CF93DF93182FD62F3B
:10068000C42F0E94EF0285E00E948F07812F0E94F5
:100690008F078D2F0E948F078C2F0E948F070E943B
:1006A000F102DF91CF911F910895CF93C82F0E943F
:1006B000EF028C2F877080680E948F070E94F102E2
:1006C000CF910895E0E0F0E18EEA808381EA8083B3
:1006D0008AED808382E1808388EC808388EA80834E
:1006E0008FE3808385ED808380E8808381E8808349
:1006F00080E5808389ED808381E2808380E280834E
:1007000010828BED808380E380838DEA808310826A
:1007100084EA808386EA80838FEA80830895E0E01C
:10072000F0E181E2808310828FE7808382E2808320
:10073000108287E0808308950E948F03E0E0F8E153
:10074000A0E0B2E181918C93E1158CE1F807D1F73B
:100750000895E0E0F8E11192E1158CE1F807D9F78E
:1007600008958823E4F06134E0F4E62FE695E695F9
:10077000E69540E8E49FF0011124E80FF11DF85ED2
:100780002081677081E090E0AC0102C0440F551FEA
:100790006A95E2F7BA01622B608380E0089581E0F8
:1007A000089581E008958823ECF06134E8F4E62FA1
:1007B000E695E695E69540E8E49FF0011124E80F00
:1007C000F11DF85E2081677081E090E0AC0102C00D
:1007D000440F551F6A95E2F7BA0160956223608362
:1007E00080E0089581E0089581E0089560917203AA
:1007F0007091730390E080979C01220F331F220FAA
:10080000331F820F931F86579F4FDB01B85EAB01EA
:100810004C5F574EFC01259134912D930196A417FE
:10082000B507C1F76C5F7F4F7093730360937203DA
:100830000895609172037091730390E080979C011A
:10084000220F331F220F331F820F931F86579F4F94
:10085000DB01B85EAB014C5F574EFC012591349132
:1008600020952D930196A417B507B9F76C5F7F4FBC
:1008700070937303609372030895813290F469302A
:1008800090F490E020E2629F800D911D1124880F6A
:10089000991F880F991F909373038093720380E0D0
:1008A000089581E0089581E008950F931F93CF93F9
:1008B000DF93FC0101900020E9F731971E2F181BF0
:1008C00051F0082FC02FD92F89910E94F6038C2F49
:1008D000801B8117C8F380E0DF91CF911F910F91AA
:1008E0000895482F4795442747954E5F282F30E0BD
:1008F0002F5F3F4F3695322F222737952795842F2C
:1009000090E0821793076CF4E42FF0E0E150F84E8A
:100910008081809580834F5F842F90E082179307BA
:100920009CF30895FF920F931F93CF93DF93F82EBC
:10093000882319F1D0E800E022C06C2F8D2F0E948F
:10094000B103CF5FC034C9F70E949C03C12F6C2F45
:100950008D2F0E94D303CF5FC034C9F7F11002C0BE
:10096000DF5F01C0D15083EC99E00197F1F700C03F
:1009700000000D1731F0C12FE0CFD0E000E810E00B
:10098000FACFDF91CF911F910F91FF9008958FE1E2
:1009900090E00E94EB0767EF77E082EF97E00E941C
:1009A000850E85B7806885BFB89AC0980E9462039B
:1009B0000E94FB070895B09B02C0C0980895C09A9A
:1009C00008958F929F92AF92BF92CF92DF92EF9253
:1009D000FF920F931F93CF93DF93CDB7DEB7A3970B
:1009E0000FB6F894DEBF0FBECDBF5C01C12CD12C79
:1009F000812C912C14C0C8018C0D9D1D0E944E02AB
:100A0000F70181937F010F5F1F4F0530110599F7A3
:100A1000F5E0CF0ED11C89E1C816D10451F0EE24C7
:100A2000E394F12CEC0EFD1EEC0CFD1C082D192D91
:100A3000E2CF7E01EAE1EE0EF11C09E110E0C8010F
:100A40000E944E02D82EC80101960E944E022D2D02
:100A500030E0322F2227282BF701219331937F0199
:100A60000E5F1F4F0332110551F783E2FE013196ED
:100A7000D50101900D928A95E1F7C501A3960FB6B5
:100A8000F894DEBF0FBECDBFDF91CF911F910F91C4
:100A9000FF90EF90DF90CF90BF90AF909F908F909E
:100AA00008958F929F92AF92BF92CF92DF92EF9272
:100AB000FF920F931F93CF93DF93CDB7DEB7CE0195
:100AC0000F965C01C12CD12C812C912C17C0F70101
:100AD00061917F01C8018C0D9D1D0E9446020F5F30
:100AE0001F4F0530110599F7F5E0AF0EB11C85E0F9
:100AF000C80ED11C99E1C916D10421F07501082D49
:100B0000192DE5CF7E01E8E2EE0EF11C09E110E0BF
:100B1000F701D0806181F2E0EF0EF11CC8010E9464
:100B200046026D2DC80101960E9446020E5F1F4FBE
:100B30000332110569F7DF91CF911F910F91FF905B
:100B4000EF90DF90CF90BF90AF909F908F900895DF
:100B50002F923F924F925F926F927F928F929F92CD
:100B6000AF92BF92CF92DF92EF92FF920F931F93BB
:100B7000CF93DF93CDB7DEB7AC970FB6F894DEBF57
:100B80000FBECDBFCE0107960E94E1043E0120E2D8
:100B9000620E711CCE0107962C01C12CD12C08E0ED
:100BA00010E0DE0111967D01A12C912C6894BB24EC
:100BB000B5F80F2EF5E02F2E312CF02DACA78F2C91
:100BC0008DE09CE1FC01EA1BFB0BFBA7EAA7D3012C
:100BD0008C9111969C91B2E06B0E711C9F938F9338
:100BE000A5E1B2E0BF93AF931F92F6E0FF93FF92AF
:100BF000EF920E94110FF70101900020E9F7319761
:100C0000AF014E195F09642F0FB6F894DEBF0FBE17
:100C1000CDBFF2018A2D992D96012B5F334ED9015C
:100C2000A80FB91F71917C93019685309105B9F792
:100C3000F601E65FF34EB0823196B0823196B08213
:100C4000C101841B9109181619067CF42A2D392D2F
:100C500040E0200F311FF901EB5FF34EB0824F5F90
:100C6000242F30E028173907A4F3662389F0ECA578
:100C7000F82D2AA53BA52C0D3D1D820F931FDC01ED
:100C8000AE0FBF1F21912C932E2F2E192617B8F3CC
:100C9000035F1F4F3DE0C30ED11C85E0480E511C81
:100CA00091E4C916D10409F092CFAC960FB6F8942E
:100CB000DEBF0FBECDBFDF91CF911F910F91FF908F
:100CC000EF90DF90CF90BF90AF909F908F907F90EC
:100CD0006F905F904F903F902F900895BF92CF926A
:100CE000DF92EF92FF920F931F93CF93DF93CDB7D5
:100CF000DEB7A3970FB6F894DEBF0FBECDBFD82ED8
:100D0000E92E8B01CE0101960E94E1048A8D9B8D14
:100D10008017910788F480E090E0F12CAE014E5DE1
:100D20005F4F9E01205F3F4F6894CC24C2F80F2E86
:100D3000F5E0BF2EF02D10C0FE017C9621E030E0E2
:100D4000F22EC901419151914017510708F051C04D
:100D500023E02F1518F713C0FA0172916291AF01C9
:100D600073836283D9011596F9016B2D71917D937F
:100D70006150E1F7CA9425503109FC1468F3FC0175
:100D8000EE0FFF1F21E030E02C0F3D1FE20FF31F9D
:100D9000128F018FED2DFE2DDC01AA0FBB1FAA0FB4
:100DA000BB1F8A0F9B1FD901A80FB91F85E0919126
:100DB0009D938150E1F78DB79EB783970FB6F89456
:100DC0009EBF0FBE8DBFADB7BEB7119683E2FE01C9
:100DD000319601900D928A95E1F70E9451050FB668
:100DE000F894DEBF0FBECDBF0E94A80581E08F0D35
:100DF00007C02F5F3F4F2530310509F0A1CF80E0BC
:100E0000A3960FB6F894DEBF0FBECDBFDF91CF9192
:100E10001F910F91FF90EF90DF90CF90BF900895BA
:100E2000CF93DF93CDB7DEB7A3970FB6F894DEBFAD
:100E30000FBECDBF8B988A980E94C7040E94A3075B
:100E40000E945D010E94A9030E948F030E949C03DF
:100E500088E192E00E94E40E1F9282E08F938EE17F
:100E600092E09F938F930E94D00E86E0E8E0F1E03D
:100E7000DE01119601900D928A95E1F786E0E8E097
:100E8000F1E0DE01169601900D928A95E1F786E079
:100E9000E8E0F1E0DE011B9601900D928A95E1F702
:100EA00086E0E8E0F1E0DE01509601900D928A952F
:100EB000E1F786E0E8E0F1E0DE01559601900D9261
:100EC0008A95E1F71B8E1A8E1D8E1C8E1F8E1E8E2C
:100ED00019A218A21BA21AA28DB79EB783970FB6AC
:100EE000F8949EBF0FBE8DBFADB7BEB7119683E21B
:100EF000FE01319601900D928A95E1F70E9451050D
:100F000078940FB6F894DEBF0FBECDBF0E94E80DF7
:100F1000FDCF87B3806B87BB81E58DB908958FB90D
:100F2000779BFECF0895CF93DF931F92CDB7DEB7A7
:100F30008FEF8FB9779BFECF8FB1898389810F9017
:100F4000DF91CF9108951FBC8DE08EBD1DBC1CBCF0
:100F500080EC92E19BBD8ABD89B7806489BF08950A
:100F60001092750310927403089580917403909108
:100F7000750308951F920F920FB60F9211242F93AD
:100F80003F934F935F936F937F938F939F93AF9311
:100F9000BF93EF93FF93F89480917403909175033E
:100FA000019690937503809374031DBC1CBC0E9432
:100FB000DB047894FF91EF91BF91AF919F918F9156
:100FC0007F916F915F914F913F912F910F900FBE45
:100FD0000F901F90189590BD89B988E18AB986E86D
:100FE00080BD08955D9BFECF8CB980E008955F9B26
:100FF000FECF8CB1089581E48093001C8093011C86
:101000008093021C8093031C8093041C0E94A805FB
:1010100008954F925F926F927F928F929F92AF92BC
:10102000BF92CF92DF92EF92FF920F931F93CF93D5
:10103000DF9300D000D01F92CDB7DEB70E94A90386
:10104000CE0101966C01DC01E0E0FCE181918D9321
:10105000E5309CE1F907D1F70E9455020E94610238
:10106000182F0E94B302812F0E94A40260E08CE03E
:101070000E943D0482E792E00E94550480E00E94B5
:10108000710464E084E00E943D04912C68948824FB
:1010900082F80F2EF5E0AF2EB12CF02D5C2C6D2CCC
:1010A000712C0E9455020E946102182F0E94B30207
:1010B000082F812F0E94A402813049F4292D30E0AD
:1010C000C9010196B5010E945C0E982E07C08111DE
:1010D00005C0992011F09A9401C0982C0230B1F407
:1010E000892D90E0E1E0F0E0EC0FFD1FE80FF91F23
:1010F00020812A3511F02F5F01C021E4E1E0F0E00A
:10110000EC0FFD1FE80FF91F208317C00330A9F46F
:10111000892D90E0E1E0F0E0EC0FFD1FE80FF91FF2
:101120002081213411F0215001C02AE5E1E0F0E0F6
:10113000EC0FFD1FE80FF91F2083682D8AE00E9445
:101140003D04052D162D472CEE24E394F12CEC0ED6
:10115000FD1EE90CF11C491005C0F70180810E94B9
:10116000190404C0F80180810E94F60380E20E9405
:10117000F60343940F5F1F4FF5E04F12ECCF0E9430
:101180009C030E948E020E94C402882309F489CF26
:10119000D601E0E0FCE18D918193E5308CE1F80728
:1011A000D1F781E00F900F900F900F900F90DF918B
:1011B000CF911F910F91FF90EF90DF90CF90BF9054
:1011C000AF909F908F907F906F905F904F90089519
:1011D0000F931F93CF93DF930E94A9030E945502A0
:1011E0000E946102C82F0E94B3028C2F0E94A402A9
:1011F00060E08DE00E943D0482E292E00E9455048E
:1012000080E00E94710462E083E00E943D048BE272
:1012100092E00E94550463E083E00E943D0484E371
:1012200092E00E94550464E083E00E943D0489E35B
:1012300092E00E94550465E083E00E943D0480E452
:1012400092E00E94550466E083E00E943D0485E43C
:1012500092E00E945504C0E00DEC0E9455020E94ED
:101260006102D82F0E94B302182F8D2F0E94A40272
:10127000813009F46FC0882309F46EC01230A1F4E4
:10128000C09F812D112486958695982F990F990FCF
:10129000890F6C2F681B6E5F81E00E943D0480E225
:1012A0000E94F603C15015C0133099F4C09F812DE0
:1012B000112486958695982F990F990F890F6C2F79
:1012C000681B6E5F81E00E943D0480E20E94F6038D
:1012D000CF5FC09F812D112486958695982F990FF9
:1012E000990F890F6C2F681B6E5F81E00E943D048F
:1012F00083E20E94F6030E948E020E94C4028823A9
:1013000031F1C230A9F028F4CC2341F0C13059F0BA
:101310001EC0C33091F0C430A9F019C081E00E9412
:10132000230282E01AC082E00E94230283E015C0FB
:1013300083E00E94230284E010C084E00E94230224
:1013400085E00BC085E00E94230286E006C00E9473
:101350009C0383CF87E001C088E0DF91CF911F918C
:101360000F910895BF92CF92DF92EF92FF920F9369
:101370001F93CF93DF930E94A9030E9455020E94FE
:1013800061020E94A40260E089E00E943D048CE4B6
:1013900092E00E94550480E00E947104E12CF12C3F
:1013A0006894DD24D1F8B12CC12C6D2D88E00E9409
:1013B0003D04CB2DDC2D87010B5F134EF801EC0FA4
:1013C000FD1F80810E94F6032196CD30D105B1F733
:1013D000D3948DE0E80EF11C87E0D812E6CF0E948E
:1013E0009C030E9455020E9461020E94A402813067
:1013F00019F08111F6CF02C081E001C087E0DF91D2
:10140000CF911F910F91FF90EF90DF90CF90BF9001
:1014100008950F931F93CF93DF930E94A9030E9417
:1014200055020E946102C82F0E94B3028C2F0E94B5
:10143000A40260E08CE00E943D0488E592E00E94F6
:10144000550480E00E94710463E083E00E943D0443
:1014500080E692E00E94550464E083E00E943D042F
:1014600085E692E00E94550465E083E00E943D0419
:101470008BE692E00E945504C0E00BEA0E94550200
:101480000E946102D82F0E94B302182F8D2F0E9454
:10149000A402813009F44DC0882309F44CC01230F5
:1014A00091F4C09F812D11248695982F990F890F53
:1014B0006C2F681B6D5F81E00E943D0480E20E94FA
:1014C000F603C15013C0133089F4C09F812D11243D
:1014D0008695982F990F890F6C2F681B6D5F81E09F
:1014E0000E943D0480E20E94F603CF5FC09F812DE1
:1014F00011248695982F990F890F6C2F681B6D5FAB
:1015000081E00E943D0483E20E94F6030E948E0265
:101510000E94C402882351F0C13079F018F0C23023
:1015200019F004C08AE00AC080E008C00E949C0351
:10153000A5CF88E003C081E001C089E0DF91CF91B1
:101540001F910F910895CF930E94A9030E94550205
:101550000E9461020E94B30260E08EE00E943D049E
:1015600080E692E00E94550480E00E94710463E0EE
:1015700083E00E943D048BE792E00E94550465E001
:1015800083E00E943D0489E392E00E94550463E0F9
:1015900081E00E943D0483E20E94F603C0E00E94C5
:1015A00055020E9461020E94B302823061F46C2FE6
:1015B0006170660F6D5F81E00E943D0480E20E94D1
:1015C000F603C1500DC0833059F46C2F6170660F63
:1015D0006D5F81E00E943D0480E20E94F603CF5FD0
:1015E0006C2F6170660F6D5F81E00E943D0483E2A5
:1015F0000E94F6030E948E020E94C4028823A9F072
:10160000CC2319F0C13049F013C087E00E942302B7
:1016100089E392E00E94E40E0BC086E00E94230260
:101620008BE792E00E94E40E03C00E949C03B7CFB8
:1016300087E0CF910895CF930E94A9030E9455029D
:101640000E9461020E94B30260E08EE00E943D04AD
:1016500085E692E00E94550480E00E94710463E0F8
:1016600083E00E943D0483E892E00E94550465E017
:1016700083E00E943D0486E892E00E945504C0E0A9
:101680000E9455020E9461020E94B302823061F4FE
:101690006C2F6170660F6D5F81E00E943D0480E2F7
:1016A0000E94F603C1500DC0833059F46C2F617055
:1016B000660F6D5F81E00E943D0480E20E94F603A8
:1016C000CF5F6C2F6170660F6D5F81E00E943D04FB
:1016D00083E20E94F6030E948E020E94C4028823C5
:1016E00079F0CC2319F0C13031F00DC08AE892E0D6
:1016F0000E94E40E08C08DE892E00E94E40E03C050
:101700000E949C03BDCF87E0CF910895EF92FF9296
:101710000F931F93CF93DF930E94A90360E08EE0A5
:101720000E943D048BE292E00E94550480E00E94FA
:10173000710466E080E00E943D0481E992E00E942D
:1017400055040E949C0361E080E00E943D0482EB0E
:1017500092E00E9455040E949C0319E80E945502E1
:10176000F82EE12E0E948E02D72FC92F4FE7572F58
:1017700060E0792F8F2D912F0E9404026FE77D2F5B
:1017800080E09C2F0E94C402992341F361E080E035
:101790000E943D048EEC92E00E9455040E949C033E
:1017A0000E948E02062FD72FC92F462F572F60E099
:1017B000792F8F2D9E2D0E940402602F7D2F80E0B7
:1017C0009C2F0E94C402992359F361E080E00E949B
:1017D0003D048FEE92E00E9455040E949C030E94FB
:1017E0008E02D72F182FC92F4FE7572F682F792F29
:1017F0008F2D9E2D0E9404026FE77D2F812F9C2F3D
:101800000E94C402992359F361E080E00E943D04E4
:1018100080E193E00E9455040E949C030E948E0286
:10182000062FD72F182FC92F0E945502402F5D2F4A
:10183000612F7C2F0E940402602F7D2F812F9C2F0F
:101840000E94C402992351F381E0DF91CF911F914F
:101850000F91FF90EF900895CF93C82F0E94A90396
:10186000C0937703C33091F018F4C23031F028C030
:10187000C430A9F0C530E1F023C060E08EE00E94E2
:101880003D0484E392E00E9455041AC060E08CE0BD
:101890000E943D0489E392E00E94550411C060E07B
:1018A0008CE00E943D0480E492E00E94550408C050
:1018B00060E08CE00E943D0485E492E00E945504C3
:1018C00080E00E9471040E949C038BE0CF910895F8
:1018D0003F924F925F926F927F928F929F92AF92C0
:1018E000BF92CF92DF92EF92FF920F931F93CF930D
:1018F000DF93CDB7DEB763970FB6F894DEBF0FBEA8
:10190000CDBF64E08DE00E943D0481E393E00E943E
:1019100055040E949C030E948E020E94C402811101
:1019200006C00E948E020E94C4028823D1F364E0A4
:101930008DE00E943D048BE293E00E9455040E94DA
:101940009C030E94B0070E94B5078C010F2EFCE398
:101950004F2EF02D0F2EF0E18F2EFEE09F2EF02D5A
:101960000F2EFCE3AF2EF3E0BF2EF02D0F2EF9E08B
:101970005F2EF02D7E014BE0E40EF11C0F2EF1E501
:101980006F2EF3E07F2EF02D33243A9401C08601B0
:101990000E9455026C010E948E02AB01BC01C6017F
:1019A0000E94040289EF90E00197F1F700C0000067
:1019B0000E94B5076C018017910709F46BC098016C
:1019C000220F331FC801880F991F880F991F880F96
:1019D000991F820F931F909379038093780362E09D
:1019E0008DE00E943D0487E393E00E945504980136
:1019F000A9E8B8E80E94760E96958795929582950B
:101A00008F7089279F708927489E9001499E300DCD
:101A10001124A801421B530B9A013F934F939F93AC
:101A20008F93C801B4010E94480E7F936F93BF92B9
:101A3000AF921F925F92FF92EF920E94110F63E0AC
:101A40008BE00E943D04C7010E94550464E08DE0D4
:101A50000E943D048BE493E00E9455048091790339
:101A60008F93809178038F937F926F921F925F92F2
:101A7000FF92EF920E94110F65E08DE00E943D04FD
:101A8000C7010E9455040E949C030FB6F894DEBF64
:101A90000FBECDBFCE0101960E94C801882311F070
:101AA000398275CF8981853009F071CF8CE06396DA
:101AB0000FB6F894DEBF0FBECDBFDF91CF911F915F
:101AC0000F91FF90EF90DF90CF90BF90AF909F90DD
:101AD0008F907F906F905F904F903F9008950F93FD
:101AE0001F93CF93DF93CDB7DEB761970FB6F8940E
:101AF000DEBF0FBECDBFDE011196E0E0FCE18191BB
:101B00008D93E5308CE1F807D1F71E826091780360
:101B100070917903CE0101960E946E06182F80E025
:101B20000E9492040E94A90363E08AE00E943D049F
:101B300086E593E00E9455041123E1F064E08AE019
:101B40000E943D041F921F9381E693E09F938F9321
:101B50001F928BE08F938E01095F1F4F1F930F938E
:101B60000E94110FC8010E9455040FB6F894DEBF01
:101B70000FBECDBF0E949C030E94B50790937B03CC
:101B800080937A038C010D5F1F4F80917A039091AF
:101B90007B030817190768F00E94B50790937B0331
:101BA00080937A0320917A0330917B030217130705
:101BB00098F781E00E94920488E061960FB6F8944D
:101BC000DEBF0FBECDBFDF91CF911F910F91089562
:101BD0008091760390E08D30910508F058C0FC01AB
:101BE000E85CFF4F0C94700E0E9409088093760306
:101BF00008950E94E80880937603089581E00E948A
:101C000023020E94860B80937603089582E00E944F
:101C1000230282E00E942C0C80937603089583E0D7
:101C20000E94230283E00E942C0C80937603089587
:101C300084E00E94230284E00E942C0C80937603AF
:101C4000089585E00E94230285E00E942C0C809379
:101C5000760308950E94B2098093760308950E9446
:101C6000090A8093760308950E941B0B80937603E4
:101C700008950E94A30A8093760308950E94680C39
:101C80008093760308950E946F0D809376030895E4
:101C9000AA1BBB1B51E107C0AA1FBB1FA617B70792
:101CA00010F0A61BB70B881F991F5A95A9F78095AE
:101CB0009095BC01CD01089597FB072E16F4009472
:101CC00007D077FD09D00E94480E07FC05D03EF4EE
:101CD000909581959F4F0895709561957F4F0895D8
:101CE000EE0FFF1F0590F491E02D0994A29FB00123
:101CF000B39FC001A39F700D811D1124911DB29F40
:101D0000700D811D1124911D08950F931F93CF9382
:101D1000DF93EC018B01009731F46115710519F423
:101D200080E090E038C06EE070E081E090E00E94DA
:101D30001311FC010097A1F380E8838301151105BD
:101D400071F01387028781E8838380917C039091EF
:101D50007D03892B21F4F0937D03E0937C0320978E
:101D6000C9F0D187C08783818260838380917E039D
:101D700090917F03892B71F4F0937F03E0937E03AE
:101D80008091800390918103892B21F4F09381034A
:101D9000E0938003CF01DF91CF911F910F910895C0
:101DA000A0E0B0E0E6EDFEE00C941313FE013596E2
:101DB00061917191AF0180917E0390917F030E94A8
:101DC000410FE2E00C942F130F931F93CF93DF93F7
:101DD000E0917E03F0917F03238121FF1BC0EC0182
:101DE00000E010E0899160917E0370917F03DB0138
:101DF0001896ED91FC911997882331F00995892B5C
:101E000089F30FEF1FEFEECF8AE00995892B11F4CC
:101E1000C80102C08FEF9FEFDF91CF911F910F910B
:101E20000895AEE0B0E0E7E1FFE00C9411130D89F6
:101E30001E898F89988D26E02C831A83098397FF4A
:101E400002C080E090E801979E838D83AE01455EDD
:101E50005F4F698D7A8DCE0101960E94410F4D81B1
:101E60005E8157FD0AC02F813885421753070CF455
:101E70009A01F801E20FF31F10822E96E4E00C9411
:101E80002D13ACE0B0E0E7E4FFE00C9403137C0119
:101E90006B018A01FC0117821682838181FFBDC11B
:101EA000CE0101964C01F7019381F60193FD8591D6
:101EB00093FF81916F01882309F4ABC1853239F416
:101EC00093FD859193FF81916F01853229F4B701CC
:101ED00090E00E947312E7CF512C312C20E0203289
:101EE000A0F48B3269F030F4803259F0833269F417
:101EF00020612CC08D3239F0803339F4216026C046
:101F00002260246023C0286021C027FD27C030ED57
:101F1000380F3A3078F426FF06C0FAE05F9E300DA5
:101F20001124532E13C08AE0389E300D1124332E15
:101F300020620CC08E3221F426FD6BC1206406C0E5
:101F40008C3611F4206802C0883641F4F60193FD06
:101F5000859193FF81916F018111C1CF982F9F7D52
:101F60009554933028F40C5F1F4FFFE3F9830DC0A5
:101F7000833631F0833771F0833509F05BC022C0BE
:101F8000F801808189830E5F1F4F44244394512CB4
:101F9000540115C03801F2E06F0E711CF801A080E9
:101FA000B18026FF03C0652D70E002C06FEF7FEFA8
:101FB000C5012C870E9468122C0183012C852F7784
:101FC000222E17C03801F2E06F0E711CF801A080BC
:101FD000B18026FF03C0652D70E002C06FEF7FEF78
:101FE000C5012C870E9456122C012C852068222EB8
:101FF000830123FC1BC0832D90E048165906B0F4E2
:10200000B70180E290E00E9473123A94F4CFF50198
:1020100027FC859127FE81915F01B70190E00E9426
:10202000731231103A94F1E04F1A510841145104DF
:1020300071F7E5C0843611F0893639F5F80127FFCC
:1020400007C060817181828193810C5F1F4F08C03E
:1020500060817181882777FD8095982F0E5F1F4FD3
:102060002F76B22E97FF09C0909580957095619557
:102070007F4F8F4F9F4F2068B22E2AE030E0A4019F
:102080000E94A512A82EA81844C0853729F42F7ED7
:10209000B22E2AE030E025C0F22FF97FBF2E8F3616
:1020A000C1F018F4883579F0B4C0803719F088375A
:1020B00021F0AFC02F2F2061B22EB4FE0DC08B2DAA
:1020C0008460B82E09C024FF0AC09F2F9660B92EE5
:1020D00006C028E030E005C020E130E002C020E189
:1020E00032E0F801B7FE07C060817181828193817F
:1020F0000C5F1F4F06C06081718180E090E00E5F31
:102100001F4FA4010E94A512A82EA818FB2DFF772F
:10211000BF2EB6FE0BC02B2D2E7FA51450F4B4FE9F
:102120000AC0B2FC08C02B2D2E7E05C07A2C2B2DA8
:1021300003C07A2C01C0752C24FF0DC0FE01EA0DEE
:10214000F11D8081803311F4297E09C022FF06C071
:102150007394739404C0822F867809F0739423FDDE
:1021600013C020FF06C05A2C731418F4530C5718D0
:10217000732C731468F4B70180E290E02C870E94FE
:10218000731273942C85F5CF731410F4371801C0B3
:10219000312C24FF12C0B70180E390E02C870E940D
:1021A00073122C8522FF17C021FF03C088E590E041
:1021B00002C088E790E0B7010CC0822F867859F002
:1021C00021FD02C080E201C08BE227FD8DE2B70154
:1021D00090E00E947312A51438F4B70180E390E0F8
:1021E0000E9473125A94F7CFAA94F401EA0DF11DDC
:1021F0008081B70190E00E947312A110F5CF3320C7
:1022000009F451CEB70180E290E00E9473123A9433
:10221000F6CFF7018681978102C08FEF9FEF2C9652
:10222000E2E10C941F130F931F93CF93DF93869FCC
:102230008001879F100D969F100D1124C8010E94E8
:102240002F11EC01009729F0A80160E070E00E94D6
:102250006112CE01DF91CF911F910F910895CF931D
:10226000DF938230910510F482E090E0E0918403E6
:10227000F091850320E030E0A0E0B0E0309739F144
:102280004081518148175907B8F04817590771F430
:1022900082819381109729F013969C938E931297C5
:1022A0002CC0909385038093840327C021153105AA
:1022B00031F04217530718F0A901DB0101C0EF010B
:1022C0009A01BD01DF010280F381E02DD7CF2115F6
:1022D0003105F9F0281B390B2430310580F48A814F
:1022E0009B816115710521F0FB019383828304C0FA
:1022F0009093850380938403FE01329644C0FE01CF
:10230000E20FF31F8193919322503109398328837F
:102310003AC02091820330918303232B41F4209112
:1023200002013091030130938303209382032091B3
:102330000001309101012115310541F42DB73EB75F
:102340004091040150910501241B350BE09182035B
:10235000F0918303E217F307A0F42E1B3F0B28171D
:10236000390778F0AC014E5F5F4F2417350748F00E
:102370004E0F5F1F50938303409382038193919389
:1023800002C0E0E0F0E0CF01DF91CF910895CF935C
:10239000DF93009709F487C0FC0132971382128201
:1023A000C0918403D0918503209781F420813181ED
:1023B000280F391F8091820390918303821793071E
:1023C00079F5F0938303E09382036DC0DE0120E092
:1023D00030E0AE17BF0750F412964D915C91139701
:1023E0009D014115510509F1DA01F3CFB383A283B1
:1023F00040815181840F951F8A179B0771F48D913D
:102400009C911197840F951F029691838083129659
:102410008D919C911397938382832115310529F423
:10242000F0938503E09384033EC0D9011396FC9397
:10243000EE9312974D915D91A40FB51FEA17FB071C
:1024400079F480819181840F951F0296D9011196AC
:102450009C938E938281938113969C938E93129773
:10246000E0E0F0E08A819B81009719F0FE01EC0129
:10247000F9CFCE01029628813981820F931F2091D6
:102480008203309183032817390769F4309729F4C0
:10249000109285031092840302C013821282D0939B
:1024A0008303C0938203DF91CF910895FC010590CF
:1024B000615070400110D8F7809590958E0F9F1F46
:1024C0000895DC0101C06D9341505040E0F708953C
:1024D000FC016150704001900110D8F780959095F3
:1024E0008E0F9F1F08950F931F93CF93DF93182F85
:1024F000092FEB018B8181FD03C08FEF9FEF20C07F
:1025000082FF10C04E815F812C813D8142175307AD
:102510007CF4E881F9819F012F5F3F4F3983288345
:10252000108306C0E885F985812F0995892B29F745
:102530002E813F812F5F3F4F3F832E83812F902F2E
:10254000DF91CF911F910F910895FA01AA272830AA
:1025500051F1203181F1E8946F936E7F6E5F7F4F70
:102560008F4F9F4FAF4FB1E03ED0B4E03CD0670FEC
:10257000781F891F9A1FA11D680F791F8A1F911D3F
:10258000A11D6A0F711D811D911DA11D20D009F48F
:1025900068943F912AE0269F11243019305D3193D1
:1025A000DEF6CF010895462F4770405D4193B3E0BA
:1025B0000FD0C9F7F6CF462F4F70405D4A3318F061
:1025C000495D31FD4052419302D0A9F7EACFB4E012
:1025D000A6959795879577956795BA95C9F70097CA
:1025E0006105710508959B01AC010A2E069457956B
:1025F000479537952795BA95C9F7620F731F841FC2
:10260000951FA01D08952F923F924F925F926F9257
:102610007F928F929F92AF92BF92CF92DF92EF9272
:10262000FF920F931F93CF93DF93CDB7DEB7CA1BF3
:10263000DB0B0FB6F894DEBF0FBECDBF09942A881E
:10264000398848885F846E847D848C849B84AA84C6
:10265000B984C884DF80EE80FD800C811B81AA8153
:10266000B981CE0FD11D0FB6F894DEBF0FBECDBF1E
:08267000ED010895F894FFCF7D
:1026780000008603200004044B5552564100004DCB
:10268800435032353135204E4F5420636F6E6669A2
:1026980067757265642070726F7065726C7900532B
:1026A80074617274696E67205352414D207465736A
:1026B800742E2E2E0D005352414D206572726F728A
:1026C80020287772697465207068617365293A20DB
:1026D8006578745F72616D5B25645D203D202530EF
:1026E8003258202873686F756C642062650925303C
:1026F8003258290D0A005352414D206572726F728B
:10270800202872656164207068617365293A2065C4
:1027180078745F72616D5B25645D203D20253032E1
:1027280058202873686F756C6420626520253032E4
:1027380058290D0A005352414D2074657374206363
:102748006F6D706C657465642077697468202564A2
:10275800206572726F727320696E20777269746572
:1027680020706861736520616E642025642065723D
:10277800726F727320696E2072656164207068617F
:1027880073650D0A00257500737461727400256401
:102798000A004E65772067616D65005475746F7225
:1027A80069616C0045617379004E6F726D616C00F0
:1027B8004861726400496E73616E650048696768B4
:1027C8002053636F726573004F7074696F6E730086
:1027D8004D6F646500536F756E64004368616E6782
:1027E8006520557365726E616D6500526576657218
:1027F8007365004F6E004F6666004F4E004F4646A9
:10280800005072657373204C454654204255545409
:102818004F4E20746F20636F6E74696E75652E2E2F
:102828002E00546F206D6F766520736572766F2069
:102838006D6F7665206A6F79737469636B00546F86
:10284800206D6F7665206D6F746F7220746F75637D
:102858006820524947485420534C49444552002067
:1028680020546F2073686F6F7420746F75636820CD
:10287800524947485420425554544F4E2020200076
:1028880020202020547279206576657279746869F1
:102898006E6720746F676574686572202020202039
:1028A8000053484F4F540054696D65002530326419
:1028B8003A253032643A253032640053636F7265CA
:1028C80000253035640047414D45204F564552217B
:0E28D80000596F752061726520232564000091
:00000001FF
