:100000000C9431010C944E010C944E010C944E0151
:100010000C944E010C944E010C944E010C944E0124
:100020000C944E010C944E010C944E010C944E0114
:100030000C944E010C944E010C944E010C944E0104
:100040000C944E010C944E010C944E010C944E01F4
:100050000C944E010C944E010C944E010C944E01E4
:100060000C944E010C944E010C944E010C944E01D4
:10007000CC0AD30ADA0AE10AE80AEF0AF60A040B04
:10008000FD0A0B0B120B000000000000005E0000D8
:10009000000E000E00287C287C2808547C54202662
:1000A00010086400285428400000000E0000003CA6
:1000B00042000000423C0000005438540010107C04
:1000C0001010008060200010101010000060600010
:1000D000002010080400003C423C0000447E400028
:1000E0004462524C00224A4A360018147E10002EF8
:1000F0004A4A32003C4A4A300002621A0600344A38
:100100004A34000C52523C00006C6C0000806C2C95
:100110000000001028440028282828000044281047
:10012000000004520C003C425A1C007C12127C005D
:100130007E4A4A34003C424224007E42423C007ED9
:100140004A4A42007E0A0A02003C425274007E087B
:10015000087E0000427E42002040403E007E18247F
:1001600042007E404040007E0C0C7E007E0C307EC3
:10017000003C42423C007E12120C003C6242BC0039
:100180007E12324C00244A52240000027E02003EBD
:1001900040403E001E60601E007E30307E006618CB
:1001A000186600000E700E0062524A4600007E4241
:1001B000420004081020000042427E0000040204B5
:1001C0000040404040000002040000304828780011
:1001D0007E4848300030484800003048487E0030B3
:1001E00068581000107C12040050A8A898007E08DF
:1001F00008700000487A40000040807A007E102895
:10020000400000427E4000781018700078080870A6
:10021000003048483000F848483000304848F8007E
:1002200078080810005058682800083E48400038F8
:1002300040407800003840380078606078004830EE
:1002400030480018A0403800486858480000083C72
:10025000420000007E000000423C0800040204024C
:10026000000011241FBECFEFD4E0DEBFCDBF11E0F0
:10027000A0E0B1E0E4EAFFE102C005900D92A63CE7
:10028000B107D9F721E0A6ECB1E001C01D92A93D6C
:10029000B207E1F70E94D1040C94D00F0C94000037
:1002A0008093001489EF90E00197F1F700C00000FF
:1002B0008091001490E008950E9469034FEF64E676
:1002C00080E60E948F0340E460EE8FE00E948F037F
:1002D0000895BF92CF92DF92EF92FF920F931F93F8
:1002E000CF93DF93CDB7DEB72A970FB6F894DEBF72
:1002F0000FBECDBF0983C12E1A832B833C834D8350
:100300005E836F83788789879A87102F80E30E94A6
:100310004F03982F9870B92E83FD2DC0612F6295E1
:10032000660F607E82E30E947B03612F669566956F
:10033000669581E30E947B036C2D6F7085E30E94BC
:100340007B03D12C1C141D0494F47E01E3E0EE0E1B
:10035000F11C00E010E0F70161917F0186E3800F5E
:100360000E947B030F5F1F4F0C151D05A4F381E056
:100370000E94A90302C0BB24B3948B2D2A960FB60A
:10038000F894DEBF0FBECDBFDF91CF911F910F91CB
:10039000FF90EF90DF90CF90BF900895EF92FF9283
:1003A0000F931F93CF93DF938C018CE20E944F0336
:1003B00080FF34C040E061E08CE20E948F0381E660
:1003C0000E944F03C82FCC0FCC0FCC0FF801C08375
:1003D00082E60E944F03829586958770C82BF801AC
:1003E000C08385E60E944F038F70F80181838823C4
:1003F000B9F07801F2E0EF0EF11CC0E0D0E08C2FF4
:100400008A590E944F03F70181937F012196F801D9
:10041000818190E0C817D90794F304C082E003C03B
:1004200080E001C080E0DF91CF911F910F91FF909C
:10043000EF9008958F929F92AF92BF92CF92DF92EA
:10044000EF92FF921F93CF93DF934B015C0185E006
:100450000E9450019C012819390914E6129FC0011D
:10046000139F900D1124CFEFD0E0BE010E941D0B11
:10047000625371096B01CC0CDD1C84E00E945001B9
:100480009C012A193B09129FC001139F900D112452
:10049000BE010E941D0B625371097B01EE0CFF1C13
:1004A000C701B601DF91CF911F91FF90EF90DF90D0
:1004B000CF90BF90AF909F908F9008956531710558
:1004C00034F46C3E2FEF720724F4E0E003C0E1E067
:1004D00001C0E4E08531910534F48C3E2FEF9207A2
:1004E00024F4F3E003C0F2E001C0F4E0AC0199238E
:1004F00024F444275527481B590B9B01772324F4E8
:1005000022273327261B370B241735070CF4EF2F30
:100510008E2F0895CF92DF92EF92FF9285E00E9496
:1005200050016C0184E00E9450017C018FE7C81AE1
:10053000D1088FE7E81AF108C701B601FF90EF90E4
:10054000DF90CF900895CF93DF93CDB7DEB72C9790
:100550000FB6F894DEBF0FBECDBF86E00E945001FB
:1005600098878F8387E00E9450019A878987859BAF
:1005700003C081E08C8701C01C86849B03C081E09E
:100580008B8701C01B8686E0FE013796DE0111963F
:1005900001900D928A95E1F729813A814B815C8126
:1005A0006D817E8180E090E02C960FB6F894DEBFDE
:1005B0000FBECDBFDF91CF910895823020F084E04F
:1005C00080930701089590910701981719F080937F
:1005D0000701089584E008959EEF980F923020F06F
:1005E00084E080930601089590910601981719F010
:1005F00080930601089584E00895CF93DF9300D09F
:1006000000D000D0CDB7DEB749835A836B837C839B
:100610008D839E838091CB01811107C08E818130B3
:1006200021F48093CB0191E00EC08091CB01813009
:1006300039F48E81811106C01092CB0190E003C085
:1006400090E001C090E08091CA01811106C08D81C7
:10065000813019F48093CA010DC08091CA018130A4
:1006600031F48D81811105C01092CA0103C080E070
:1006700001C080E026960FB6F894DEBF0FBECDBF56
:10068000DF91CF910895C4980895C49A08950E9467
:10069000430380EC0E9440050E94450308951F9388
:1006A000CF93DF931F92CDB7DEB7182F0E9443037D
:1006B00083E00E944005812F0E9440050E9444056E
:1006C00089830E94450389810F90DF91CF911F910B
:1006D00008950E943A050E9447038EE00E944F034E
:1006E000807E803831F088E091E00E94AA0B81E0A2
:1006F000089580E00895CF93DF93D82FC62F0E94EE
:10070000430382E00E9440058D2F0E9440058C2FFC
:100710000E9440050E944503DF91CF9108951F93E9
:10072000CF93DF93182FD62FC42F0E94430385E069
:100730000E944005812F0E9440058D2F0E94400598
:100740008C2F0E9440050E944503DF91CF911F919D
:100750000895CF93C82F0E9443038C2F8770806821
:100760000E9440050E944503CF910895E0E0F0E12A
:100770008EEA808381EA80838AED808382E18083B0
:1007800088EC808388EA80838FE3808385ED808393
:1007900080E8808381E8808380E5808389ED8083A1
:1007A00081E2808380E2808310828BED808380E30E
:1007B00080838DEA8083108284EA808386EA808346
:1007C0008FEA80830895E0E0F0E181E28083108287
:1007D0008FE7808382E28083108287E080830895A0
:1007E0000E94E303E0E0F8E1A0E0B2E181918C93A4
:1007F000E1158CE1F807D1F70895E0E0F8E11192F6
:10080000E1158CE1F807D9F70895CF93DF93C091F4
:10081000CC01D091CD01282F30E020523109C901FF
:10082000880F991F880F991F280F391F2A573F4F8C
:1008300084E090E0BE016C5F774EDB01A81BB90B32
:10084000F901459154914C9301972F5F3F4F0097C9
:10085000A1F72496D093CD01C093CC01DF91CF9125
:100860000895CF93DF93C091CC01D091CD01282F73
:1008700030E020523109C901880F991F880F991F54
:10088000280F391F2A573F4F84E090E0BE016C5F6C
:10089000774EDB01A81BB90BF901459154914095A6
:1008A0004C9301972F5F3F4F009799F72496D09371
:1008B000CD01C093CC01DF91CF9108958132910594
:1008C000C0F469307105C0F4660F771F62957295A8
:1008D000707F7627607F7627860F971F880F991F76
:1008E000880F991F9093CD018093CC0180E090E018
:1008F000089581E090E0089581E090E00895EF92FE
:10090000FF920F931F93CF93DF93FC010190002080
:10091000E9F731977F01E81AF90A1E141F0464F4FD
:100920008C01C0E0D0E0F80181918F010E940504A4
:100930002196EC16FD06B9F780E090E0DF91CF91AB
:100940001F910F91FF90EF90089590E8899FF0011B
:100950001124CF0180589F4F9F012E5F3F4F2817D2
:10096000390754F4EF5FF74E8150984E208120955F
:100970002193E817F907D1F708958FE190E00E94DD
:10098000540561E675E08BE595E00E944B0B85B759
:10099000806885BFB89AC0980E94B6030E94660519
:1009A0000895CF93DF93CDB7DEB765970FB6F89470
:1009B000DEBF0FBECDBF8B988A980E94BD041982FE
:1009C0000E948A026B017C010E945C010E94FD036F
:1009D0000E94E3030E94FD030E94F0038AEA8A83D7
:1009E00080E18C831C861D8688E291E00E94AA0B20
:1009F000992493940F2EFEE2AF2EF1E0BF2EF02D3E
:100A00009B820A81192D2C813D814E815F816885F1
:100A100079858A859B850E9469018FEF9FE2019706
:100A2000F1F700C00000CE010C960E94CE018111AA
:100A300013C08D851F928F938C851F928F93BF92C9
:100A4000AF920E94960B1C861D860F900F900F9000
:100A50000F900F900F9004C084E491E00E94AA0BC5
:100A6000939498E0991201C0912CC701B6010E949D
:100A7000B80AC6CF87B3806B87BB81E58DB908956F
:100A80008FB9779BFECF0895CF93DF931F92CDB799
:100A9000DEB78FEF8FB9779BFECF8FB189838981C6
:100AA0000F90DF91CF91089590BD89B988ED8AB9F3
:100AB00086E880BD08955D9BFECF8CB980E090E014
:100AC00008955F9BFECF8CB190E0089581E4809300
:100AD000001C8093011C8093021C8093031C809354
:100AE000041C08952F923F924F925F926F927F92D3
:100AF0008F929F92AF92BF92CF92DF92EF92FF922E
:100B00000F931F93CF93DF93CDB7DEB72B970FB61D
:100B1000F894DEBF0FBECDBF2B013C01DE0117965E
:100B2000E0E0FCE181918D93E5308CE1F807D1F7AD
:100B3000C301B2010E941A020E945E02182F0E9495
:100B4000EC02812F0E94DD0260E070E08CE090E01A
:100B50000E945E0487EA91E00E947F0480E00E9488
:100B6000A50464E070E084E090E00E945E04912CB3
:100B70006894222422F80F2EF5E0AF2EB12CF02D30
:100B8000312C812CC301B2010E941A020E945E0224
:100B9000182F0E94EC02082F812F0E94DD02813065
:100BA00049F4292D30E0C9010196B5010E941D0BC1
:100BB000982E07C0811105C0992011F09A9401C0A8
:100BC000922C0230B1F4892D90E0E7E0F0E0EC0FD8
:100BD000FD1FE80FF91F20812A3511F02F5F01C09A
:100BE00021E4E7E0F0E0EC0FFD1FE80FF91F2083A0
:100BF00017C00330A9F4892D90E0E7E0F0E0EC0F96
:100C0000FD1FE80FF91F2081213411F0215001C090
:100C10002AE5E7E0F0E0EC0FFD1FE80FF91F208365
:100C200064E070E08AE090E00E945E04032D182DDD
:100C3000E92CF12C0F2EF7E0CF2ED12CF02DCC0E7D
:100C4000DD1ECE0CDF1CE016F10629F4F6018081D2
:100C50000E94310409C0E7E0F0E0EC0FFD1FE00F57
:100C6000F11F80810E94050480E20E9405040F5F4D
:100C70001F4F0530110539F70E94F0030E94A302AF
:100C8000F42FE52F862F972F29833A83FB83EC835C
:100C90006D837E83422F532F6F2F7E2F0E94FD0284
:100CA000882309F46FCFDE011796E0E0FCE18D9117
:100CB0008193E5308CE1F807D1F781E02B960FB6F0
:100CC000F894DEBF0FBECDBFDF91CF911F910F9182
:100CD000FF90EF90DF90CF90BF90AF909F908F905C
:100CE0007F906F905F904F903F902F900895AF92BC
:100CF000BF92CF92DF92EF92FF920F931F93CF9309
:100D0000DF9300D000D000D0CDB7DEB76B017C01FF
:100D10000E941A020E945E02182F0E94EC02812F8C
:100D20000E94DD0260E070E08DE090E00E945E04D1
:100D300087E591E00E947F0480E00E94A50462E0C4
:100D400070E083E090E00E945E0480E691E00E9403
:100D50007F0463E070E083E090E00E945E0489E637
:100D600091E00E947F0464E070E083E090E00E94E4
:100D70005E048EE691E00E947F0465E070E083E00F
:100D800090E00E945E0485E791E00E947F0466E0A7
:100D900070E083E090E00E945E048AE791E00E94A8
:100DA0007F0410E00DECC701B6010E941A020E94F8
:100DB0005E02B82E0E94EC02A82E8B2D0E94DD024E
:100DC000813009F471C0882309F470C082E0A81250
:100DD00017C0109F812D112486958695982F990F05
:100DE000990F890F612F681B70E06E5F7F4F81E064
:100DF00090E00E945E0480E20E940504115019C038
:100E000083E0A81216C0109F812D11248695869527
:100E1000982F990F990F890F612F681B70E06E5FF3
:100E20007F4F81E090E00E945E0480E20E94050412
:100E30001F5F109F812D112486958695982F990FFD
:100E4000990F890F612F681B70E06E5F7F4F81E003
:100E500090E00E945E0483E20E9405040E94A302C7
:100E6000F42FE52F862F972F422F532F6F2F7E2F92
:100E70000E94FD028823A9F0123069F028F41123A2
:100E800041F01130A9F00DC0133039F0143039F0B1
:100E900008C082E00EC084E00CC085E00AC086E095
:100EA00008C00E94F0037FCF87E003C088E001C044
:100EB00083E026960FB6F894DEBF0FBECDBFDF915C
:100EC000CF911F910F91FF90EF90DF90CF90BF9047
:100ED000AF900895CF92DF92EF92FF926B017C0169
:100EE0000E941A020E945E020E94DD0260E070E031
:100EF00089E090E00E945E0481E891E00E947F0416
:100F000080E00E94A5040E94F003C701B6010E9480
:100F10001A020E945E020E94DD02813019F08111E6
:100F2000F4CF02C081E001C087E0FF90EF90DF9036
:100F3000CF900895AF92BF92CF92DF92EF92FF923F
:100F40000F931F93CF93DF9300D000D000D0CDB785
:100F5000DEB76B017C010E941A020E945E02182F0C
:100F60000E94EC02812F0E94DD0260E070E08CE0C4
:100F700090E00E945E048DE891E00E947F0480E092
:100F80000E94A50463E070E083E090E00E945E04AC
:100F900085E991E00E947F0464E070E083E090E0E6
:100FA0000E945E048AE991E00E947F0465E070E09F
:100FB00083E090E00E945E0480EA91E00E947F045A
:100FC00010E00F2EFBEAAF2EF02DC701B6010E94F4
:100FD0001A020E945E02B82E0E94EC02082F8B2D8E
:100FE0000E94DD02813009F45EC0882309F45DC0EF
:100FF0000230A9F41A9D812D11248695982F990FFE
:10100000890F612F681B70E06D5F7F4F81E090E07A
:101010000E945E0480E20E940504115016C0033055
:10102000A1F41A9D812D11248695982F990F890F6F
:10103000612F681B70E06D5F7F4F81E090E00E9440
:101040005E0480E20E9405041F5F1A9D812D112419
:101050008695982F990F890F612F681B70E06D5F3F
:101060007F4F81E090E00E945E0483E20E940504CD
:101070000E94A302F42FE52F862F972F422F532F84
:101080006F2F7E2F0E94FD02882351F0113079F0DE
:1010900018F0123019F004C08AE00AC080E008C0DD
:1010A0000E94F00392CF88E003C081E001C089E094
:1010B00026960FB6F894DEBF0FBECDBFDF91CF915D
:1010C0001F910F91FF90EF90DF90CF90BF90AF9066
:1010D00008957F928F929F92AF92BF92CF92DF92AC
:1010E000EF92FF920F931F93CF93DF9300D000D026
:1010F00000D0CDB7DEB74B015C010E941A020E94FE
:101100005E020E94EC0260E070E08EE090E00E94DF
:101110005E0485E991E00E947F0480E00E94A504BE
:1011200063E070E083E090E00E945E0480EB91E079
:101130000E947F0465E070E083E090E00E945E041E
:101140008EE691E00E947F0463E070E081E090E031
:101150000E945E0483E20E940504712CC501B40163
:101160000E941A020E945E020E94EC02823091F4F8
:1011700070FAEE24E0F8F12CB701660F771F6D5F6F
:101180007F4F81E090E00E945E0480E20E940504AF
:101190007A9413C0833089F470FACC24C0F8D12C2F
:1011A000B601660F771F6D5F7F4F81E090E00E9470
:1011B0005E0480E20E9405047394072D017010E024
:1011C000B801660F771F6D5F7F4F81E090E00E944E
:1011D0005E0483E20E9405040E94A302F42FE52F1F
:1011E000862F972F422F532F6F2F7E2F0E94FD02A5
:1011F000882381F0772021F081E0781631F00DC04E
:101200008EE691E00E94AA0B08C080EB91E00E945C
:10121000AA0B03C00E94F003A1CF87E026960FB669
:10122000F894DEBF0FBECDBFDF91CF911F910F911C
:10123000FF90EF90DF90CF90BF90AF909F908F90F6
:101240007F9008957F928F929F92AF92BF92CF929C
:10125000DF92EF92FF920F931F93CF93DF9300D013
:1012600000D000D0CDB7DEB74B015C010E941A025E
:101270000E945E020E94EC0260E070E08EE090E06E
:101280000E945E048AE991E00E947F0480E00E944F
:10129000A50463E070E083E090E00E945E0488EBC8
:1012A00091E00E947F0465E070E083E090E00E949E
:1012B0005E048BEB91E00E947F04712CC501B401A8
:1012C0000E941A020E945E020E94EC02823091F497
:1012D00070FAEE24E0F8F12CB701660F771F6D5F0E
:1012E0007F4F81E090E00E945E0480E20E9405044E
:1012F0007A9413C0833089F470FACC24C0F8D12CCE
:10130000B601660F771F6D5F7F4F81E090E00E940E
:101310005E0480E20E9405047394072D017010E0C2
:10132000B801660F771F6D5F7F4F81E090E00E94EC
:101330005E0483E20E9405040E94A302F42FE52FBD
:10134000862F972F422F532F6F2F7E2F0E94FD0243
:10135000882381F0772021F081E0781631F00DC0EC
:101360008FEB91E00E94AA0B08C082EC91E00E94F2
:10137000AA0B03C00E94F003A1CF87E026960FB608
:10138000F894DEBF0FBECDBFDF91CF911F910F91BB
:10139000FF90EF90DF90CF90BF90AF909F908F9095
:1013A0007F900895CF93DF9300D000D000D0CDB7C9
:1013B000DEB760E070E08EE090E00E945E0480E6C0
:1013C00091E00E947F0480E00E94A5040E94F00347
:1013D0000E94A302F42FE52F862F972F422F532F21
:1013E0006F2F7E2F0E94FD02882391F381E02696C5
:1013F0000FB6F894DEBF0FBECDBFDF91CF91089539
:10140000CF93DF9300D000D000D0CDB7DEB760E03F
:1014100070E08EE090E00E945E0489E691E00E9418
:101420007F0480E00E94A5040E94F0030E94A302B2
:10143000F42FE52F862F972F422F532F6F2F7E2FBC
:101440000E94FD02882391F381E026960FB6F8945E
:10145000DEBF0FBECDBFDF91CF910895CF93DF9355
:1014600000D000D000D0CDB7DEB760E070E08CE0F7
:1014700090E00E945E048EE691E00E947F0480E08E
:101480000E94A5040E94F0030E94A302F42FE52FFE
:10149000862F972F422F532F6F2F7E2F0E94FD02F2
:1014A000882391F381E026960FB6F894DEBF0FBE35
:1014B000CDBFDF91CF910895CF93DF9300D000D0BF
:1014C00000D0CDB7DEB760E070E08CE090E00E9425
:1014D0005E0485E791E00E947F0480E00E94A504FD
:1014E0000E94F0030E94A302F42FE52F862F972F6E
:1014F000422F532F6F2F7E2F0E94FD02882391F3DE
:1015000081E026960FB6F894DEBF0FBECDBFDF9107
:10151000CF910895CF93DF9300D000D000D0CDB706
:10152000DEB760E070E08CE090E00E945E048AE745
:1015300091E00E947F0480E00E94A5040E94F003D5
:101540000E94A302F42FE52F862F972F422F532FAF
:101550006F2F7E2F0E94FD02882391F381E0269653
:101560000FB6F894DEBF0FBECDBFDF91CF910895C7
:10157000CF92DF92EF92FF926B017C010E94FD03FC
:101580008091CE0190E08B30910508F051C0FC01B4
:10159000E85CFF4F0C94310BC701B6010E94720545
:1015A0008093CE0145C0C701B6010E9477068093A3
:1015B000CE013EC0C701B6010E94D2098093CE0180
:1015C00037C0C701B6010E94000A8093CE0130C027
:1015D000C701B6010E942E0A8093CE0129C0C7011F
:1015E000B6010E945C0A8093CE0122C0C701B601F9
:1015F0000E948A0A8093CE011BC0C701B6010E94D7
:101600006A078093CE0114C0C701B6010E949A07F1
:101610008093CE010DC0C701B6010E9422098093BC
:10162000CE0106C0C701B6010E9469088093CE01B1
:10163000FF90EF90DF90CF90089597FB072E16F460
:10164000009407D077FD09D00E94370B07FC05D026
:101650003EF4909581959F4F0895709561957F4FC9
:101660000895EE0FFF1F0590F491E02D0994AA1B39
:10167000BB1B51E107C0AA1FBB1FA617B70710F07D
:10168000A61BB70B881F991F5A95A9F780959095AF
:10169000BC01CD0108950F931F93CF93DF93EC010D
:1016A0008B01009731F46115710519F480E090E029
:1016B00038C06EE070E081E090E00E94A90DFC016E
:1016C0000097A1F380E883830115110571F013875A
:1016D000028781E883838091CF019091D001892B8B
:1016E00021F4F093D001E093CF012097C9F0D18786
:1016F000C0878381826083838091D1019091D201E0
:10170000892B71F4F093D201E093D1018091D30140
:101710009091D401892B21F4F093D401E093D3016B
:10172000CF01DF91CF911F910F910895A0E0B0E01C
:10173000ECE9FBE00C94A90FFE01359661917191E3
:10174000AF018091D1019091D2010E94D70BE2E0CC
:101750000C94C50F0F931F93CF93DF93E091D101AA
:10176000F091D201238121FF1BC0EC0100E010E0C9
:1017700089916091D1017091D201DB011896ED91B0
:10178000FC911997882331F00995892B89F30FEF84
:101790001FEFEECF8AE00995892B11F4C80102C032
:1017A0008FEF9FEFDF91CF911F910F910895ACE0E4
:1017B000B0E0EDEDFBE00C94990F7C016B018A0128
:1017C000FC0117821682838181FFBDC1CE01019683
:1017D0004C01F7019381F60193FD859193FF81916F
:1017E0006F01882309F4ABC1853239F493FD8591EB
:1017F00093FF81916F01853229F4B70190E00E9437
:10180000090FE7CF512C312C20E02032A0F48B328D
:1018100069F030F4803259F0833269F420612CC0D1
:101820008D3239F0803339F4216026C02260246083
:1018300023C0286021C027FD27C030ED380F3A3083
:1018400078F426FF06C0FAE05F9E300D1124532E77
:1018500013C08AE0389E300D1124332E20620CC054
:101860008E3221F426FD6BC1206406C08C3611F443
:10187000206802C0883641F4F60193FD859193FFFC
:1018800081916F018111C1CF982F9F7D9554933025
:1018900028F40C5F1F4FFFE3F9830DC0833631F04E
:1018A000833771F0833509F05BC022C0F801808175
:1018B00089830E5F1F4F44244394512C540115C05B
:1018C0003801F2E06F0E711CF801A080B18026FF94
:1018D00003C0652D70E002C06FEF7FEFC5012C875C
:1018E0000E94FE0E2C0183012C852F77222E17C01B
:1018F0003801F2E06F0E711CF801A080B18026FF64
:1019000003C0652D70E002C06FEF7FEFC5012C872B
:101910000E94EC0E2C012C852068222E830123FCD2
:101920001BC0832D90E048165906B0F4B70180E241
:1019300090E00E94090F3A94F4CFF50127FC8591BD
:1019400027FE81915F01B70190E00E94090F3110DD
:101950003A94F1E04F1A51084114510471F7E5C06F
:10196000843611F0893639F5F80127FF07C0608108
:101970007181828193810C5F1F4F08C060817181EA
:10198000882777FD8095982F0E5F1F4F2F76B22EF8
:1019900097FF09C090958095709561957F4F8F4F07
:1019A0009F4F2068B22E2AE030E0A4010E943B0F36
:1019B000A82EA81844C0853729F42F7EB22E2AE01D
:1019C00030E025C0F22FF97FBF2E8F36C1F018F41A
:1019D000883579F0B4C0803719F0883721F0AFC06E
:1019E0002F2F2061B22EB4FE0DC08B2D8460B82E37
:1019F00009C024FF0AC09F2F9660B92E06C028E0B8
:101A000030E005C020E130E002C020E132E0F80122
:101A1000B7FE07C060817181828193810C5F1F4F87
:101A200006C06081718180E090E00E5F1F4FA401CD
:101A30000E943B0FA82EA818FB2DFF77BF2EB6FEE5
:101A40000BC02B2D2E7FA51450F4B4FE0AC0B2FC9F
:101A500008C02B2D2E7E05C07A2C2B2D03C07A2C8E
:101A600001C0752C24FF0DC0FE01EA0DF11D80811F
:101A7000803311F4297E09C022FF06C07394739449
:101A800004C0822F867809F0739423FD13C020FFD1
:101A900006C05A2C731418F4530C5718732C731473
:101AA00068F4B70180E290E02C870E94090F7394DC
:101AB0002C85F5CF731410F4371801C0312C24FF96
:101AC00012C0B70180E390E02C870E94090F2C859B
:101AD00022FF17C021FF03C088E590E002C088E71D
:101AE00090E0B7010CC0822F867859F021FD02C02A
:101AF00080E201C08BE227FD8DE2B70190E00E94F9
:101B0000090FA51438F4B70180E390E00E94090F93
:101B10005A94F7CFAA94F401EA0DF11D8081B70120
:101B200090E00E94090FA110F5CF332009F451CEA7
:101B3000B70180E290E00E94090F3A94F6CFF701D6
:101B40008681978102C08FEF9FEF2C96E2E10C9483
:101B5000B50F0F931F93CF93DF93869F8001879FCD
:101B6000100D969F100D1124C8010E94C50DEC01A7
:101B7000009729F0A80160E070E00E94F70ECE0106
:101B8000DF91CF911F910F910895CF93DF93823012
:101B9000910510F482E090E0E091D701F091D80136
:101BA00020E030E0A0E0B0E0309739F14081518191
:101BB00048175907B8F04817590771F48281938183
:101BC000109729F013969C938E9312972CC09093A4
:101BD000D8018093D70127C02115310531F0421774
:101BE000530718F0A901DB0101C0EF019A01BD0103
:101BF000DF010280F381E02DD7CF21153105F9F007
:101C0000281B390B2430310580F48A819B816115B2
:101C1000710521F0FB019383828304C09093D80166
:101C20008093D701FE01329644C0FE01E20FF31FFC
:101C30008193919322503109398328833AC02091AE
:101C4000D5013091D601232B41F42091020130912E
:101C500003013093D6012093D501209100013091EA
:101C600001012115310541F42DB73EB74091040122
:101C700050910501241B350BE091D501F091D6015F
:101C8000E217F307A0F42E1B3F0B2817390778F053
:101C9000AC014E5F5F4F2417350748F04E0F5F1FB2
:101CA0005093D6014093D5018193919302C0E0E017
:101CB000F0E0CF01DF91CF910895CF93DF930097AC
:101CC00009F487C0FC01329713821282C091D701B8
:101CD000D091D801209781F420813181280F391FBC
:101CE0008091D5019091D6018217930779F5F093F1
:101CF000D601E093D5016DC0DE0120E030E0AE17E3
:101D0000BF0750F412964D915C9113979D014115B8
:101D1000510509F1DA01F3CFB383A28340815181E8
:101D2000840F951F8A179B0771F48D919C911197D1
:101D3000840F951F02969183808312968D919C91BA
:101D40001397938382832115310529F4F093D801E9
:101D5000E093D7013EC0D9011396FC93EE931297FE
:101D60004D915D91A40FB51FEA17FB0779F48081AF
:101D70009181840F951F0296D90111969C938E93A1
:101D80008281938113969C938E931297E0E0F0E00A
:101D90008A819B81009719F0FE01EC01F9CFCE01F9
:101DA000029628813981820F931F2091D5013091AD
:101DB000D6012817390769F4309729F41092D80111
:101DC0001092D70102C013821282D093D601C09321
:101DD000D501DF91CF910895FC01059061507040CD
:101DE0000110D8F7809590958E0F9F1F0895DC0104
:101DF00001C06D9341505040E0F70895FC016150DF
:101E0000704001900110D8F7809590958E0F9F1F1C
:101E100008950F931F93CF93DF93182F092FEB0192
:101E20008B8181FD03C08FEF9FEF20C082FF10C028
:101E30004E815F812C813D81421753077CF4E881FC
:101E4000F9819F012F5F3F4F39832883108306C09C
:101E5000E885F985812F0995892B29F72E813F8106
:101E60002F5F3F4F3F832E83812F902FDF91CF91A4
:101E70001F910F910895FA01AA27283051F12031BE
:101E800081F1E8946F936E7F6E5F7F4F8F4F9F4F0E
:101E9000AF4FB1E03ED0B4E03CD0670F781F891F50
:101EA0009A1FA11D680F791F8A1F911DA11D6A0F1E
:101EB000711D811D911DA11D20D009F468943F91D1
:101EC0002AE0269F11243019305D3193DEF6CF01D0
:101ED0000895462F4770405D4193B3E00FD0C9F796
:101EE000F6CF462F4F70405D4A3318F0495D31FD03
:101EF0004052419302D0A9F7EACFB4E0A695979556
:101F0000879577956795BA95C9F70097610571052B
:101F100008959B01AC010A2E069457954795379575
:101F20002795BA95C9F7620F731F841F951FA01DCF
:101F300008952F923F924F925F926F927F928F926D
:101F40009F92AF92BF92CF92DF92EF92FF920F9348
:101F50001F93CF93DF93CDB7DEB7CA1BDB0B0FB652
:101F6000F894DEBF0FBECDBF09942A88398848880F
:101F70005F846E847D848C849B84AA84B984C884A5
:101F8000DF80EE80FD800C811B81AA81B981CE0F9C
:101F9000D11D0FB6F894DEBF0FBECDBFED01089581
:041FA000F894FFCFE3
:101FA4000000D901200004044D435032353135205E
:101FB4004E4F5420636F6E66696775726564207056
:101FC400726F7065726C7900737461727400496425
:101FD400203D2025642C206C656E677468203D20AC
:101FE40025640A004E6F7468696E6720746F2072EE
:101FF400656365697665004E65772067616D650088
:102004005475746F7269616C0045617379004E6F29
:10201400726D616C004861726400496E73616E6533
:1020240000486967682053636F726573004F70746A
:10203400696F6E73004D6F646500536F756E640055
:102044004368616E676520557365726E616D6500E6
:1020540052657665727365004F6E004F6666004F79
:062064004E004F4646004D
:00000001FF
