:100000000C9426010C9443010C9443010C9443017D
:100010000C9443010C9443010C9443010C94430150
:100020000C9443010C9443010C9443010C94430140
:100030000C9443010C9443010C9443010C94430130
:100040000C9443010C9443010C9443010C94430120
:100050000C9443010C9443010C9443010C94430110
:100060000C9443010C9443010C9443010C94430100
:10007000000000000000005E0000000E000E0028DE
:100080007C287C2808547C542026100864002854BE
:1000900028400000000E0000003C42000000423CEE
:1000A0000000005438540010107C101000806020B4
:1000B0000010101010000060600000201008040004
:1000C000003C423C0000447E40004462524C00220E
:1000D0004A4A360018147E10002E4A4A32003C4A22
:1000E0004A300002621A0600344A4A34000C525266
:1000F0003C00006C6C0000806C2C00000010284458
:1001000000282828280000442810000004520C0071
:100110003C425A1C007C12127C007E4A4A34003C4D
:10012000424224007E42423C007E4A4A42007E0A0D
:100130000A02003C425274007E08087E0000427EA3
:1001400042002040403E007E182442007E40404055
:10015000007E0C0C7E007E0C307E003C42423C0057
:100160007E12120C003C6242BC007E12324C002413
:100170004A52240000027E02003E40403E001E60C3
:10018000601E007E30307E006618186600000E701B
:100190000E0062524A4600007E42420004081020CF
:1001A000000042427E000004020400404040400043
:1001B000000204000030482878007E4848300030B3
:1001C000484800003048487E003068581000107CD5
:1001D00012040050A8A898007E0808700000487A11
:1001E00040000040807A007E1028400000427E409F
:1001F0000078101870007808087000304848300007
:10020000F848483000304848F80078080810005096
:1002100058682800083E48400038404078000038C0
:100220004038007860607800483030480018A040BE
:100230003800486858480000083C420000007E0032
:100240000000423C080004020402000011241FBE0A
:10025000CFEFD4E0DEBFCDBF11E0A0E0B1E0EEE132
:10026000F9E002C005900D92A033B107D9F721E063
:10027000A0E3B1E001C01D92AE33B207E1F70E94E6
:10028000C9020C948D040C9400008093001489EF33
:1002900090E00197F1F700C000008091001490E019
:1002A0000895CF92DF92EF92FF9285E00E94450180
:1002B0006C0184E00E9445017C018FE7C81AD108D7
:1002C0008FE7E81AF108C701B601FF90EF90DF90C1
:1002D000CF900895E0E0F0E18EEA808381EA8083A8
:1002E0008AED808382E1808388EC808388EA808342
:1002F0008FE3808385ED808380E8808381E880833D
:1003000080E5808389ED808381E2808380E2808341
:1003100010828BED808380E380838DEA808310825E
:1003200084EA808386EA80838FEA80830895E0E010
:10033000F0E181E2808310828FE7808382E2808314
:10034000108287E0808308950E949701E0E0F8E141
:10035000A0E0B2E181918C93E1158CE1F807D1F72F
:100360000895E0E0F8E11192E1158CE1F807D9F782
:1003700008958038910510F561347105F8F4FB019A
:10038000F695E795F695E795F695E795F695FE2FA0
:10039000EE27F795E7958E0F9F1FFC01F85E2081F1
:1003A0006770772781E090E0AC0102C0440F551FD1
:1003B0006A95E2F7BA01622B6083089581E090E0CC
:1003C00008958038910518F56134710500F5FB0139
:1003D000F695E795F695E795F695E795F695FE2F50
:1003E000EE27F795E7958E0F9F1FFC01F85E2081A1
:1003F0006770772781E090E0AC0102C0440F551F81
:100400006A95E2F7BA01609562236083089581E0FE
:1004100090E00895CF93DF93C0913201D0913301E2
:10042000282F30E020523109C901880F991F880F09
:10043000991F280F391F20593F4F84E090E0BE01DB
:100440006C5F774EDB01A81BB90BF9014591549104
:100450004C9301972F5F3F4F0097A1F72496D093BD
:100460003301C0933201DF91CF910895CF93DF9391
:100470008091310181110CC0809130018F5F809398
:10048000300191E08F3709F090E0909331012BC05B
:100490008091300181508093300191E0811101C041
:1004A00090E0909331011FC080913001BE0190E037
:1004B0000E94B9012196C034D105B1F70E94A40170
:1004C000C0E0D0E080913001BE0190E00E94E101E7
:1004D0002196C034D105B1F783EC99E00197F1F78B
:1004E00000C0000003C0C0E0D0E0DECFDF91CF91BC
:1004F000089581329105B0F46930710598F4660F62
:10050000771F62957295707F7627607F7627860FBA
:10051000971F880F991F880F991F9093330180931D
:100520003201089581E090E00895EF92FF920F93D9
:100530001F93CF93DF93FC0101900020E9F73197DF
:100540007F01E81AF90A1E141F0464F48C01C0E04C
:10055000D0E0F80181918F010E940A022196EC16E9
:10056000FD06B9F7DF91CF911F910F91FF90EF90AA
:1005700008958FE190E00E94E60263EF72E08DEE55
:1005800092E00E94F80285B7806885BFB89AC0984B
:1005900008958B988A980E94B9020E9451010E9486
:1005A0006A010E94B1010E94970186E091E00E94D9
:1005B000950262E070E081E090E00E94790284E1BF
:1005C00091E00E9495020E943602FDCF90BD89B94C
:1005D00088ED8AB986E880BD08955D9BFECF8CB911
:1005E00080E090E008955F9BFECF8CB190E008958D
:1005F0000F931F93CF93DF93EC018B01009731F49E
:100600006115710519F480E090E038C06EE070E08B
:1006100081E090E00E944303FC010097A1F380E891
:1006200083830115110571F01387028781E88383A5
:100630008091340190913501892B21F4F09335019B
:10064000E09334012097C9F0D187C087838182600D
:1006500083838091360190913701892B71F4F09357
:100660003701E09336018091380190913901892B4F
:1006700021F4F0933901E0933801CF01DF91CF915C
:100680001F910F9108950F931F93CF93DF93869F30
:100690008001879F100D969F100D1124C8010E94A4
:1006A0005F03EC01009729F0A80160E070E00E9470
:1006B0008604CE01DF91CF911F910F910895CF93C2
:1006C000DF938230910510F482E090E0E0913C01EC
:1006D000F0913D0120E030E0A0E0B0E0309739F14A
:1006E0004081518148175907B8F04817590771F4EC
:1006F00082819381109729F013969C938E93129781
:100700002CC090933D0180933C0127C021153105F9
:1007100031F04217530718F0A901DB0101C0EF01C6
:100720009A01BD01DF010280F381E02DD7CF2115B1
:100730003105F9F0281B390B2430310580F48A810A
:100740009B816115710521F0FB019383828304C0B5
:1007500090933D0180933C01FE01329644C0FE011E
:10076000E20FF31F8193919322503109398328833B
:100770003AC020913A0130913B01232B41F4209162
:1007800002013091030130933B0120933A01209103
:100790000001309101012115310541F42DB73EB71B
:1007A0004091040150910501241B350BE0913A0161
:1007B000F0913B01E217F307A0F42E1B3F0B281723
:1007C000390778F0AC014E5F5F4F2417350748F0CA
:1007D0004E0F5F1F50933B0140933A0181939193D9
:1007E00002C0E0E0F0E0CF01DF91CF910895CF9318
:1007F000DF93009709F487C0FC01329713821282BD
:10080000C0913C01D0913D01209781F4208131813C
:10081000280F391F80913A0190913B01821793076D
:1008200079F5F0933B01E0933A016DC0DE0120E0E1
:1008300030E0AE17BF0750F412964D915C911397BC
:100840009D014115510509F1DA01F3CFB383A2836C
:1008500040815181840F951F8A179B0771F48D91F8
:100860009C911197840F951F029691838083129615
:100870008D919C911397938382832115310529F4DF
:10088000F0933D01E0933C013EC0D9011396FC93E7
:10089000EE9312974D915D91A40FB51FEA17FB07D8
:1008A00079F480819181840F951F0296D901119668
:1008B0009C938E938281938113969C938E9312972F
:1008C000E0E0F0E08A819B81009719F0FE01EC01E5
:1008D000F9CFCE01029628813981820F931F209192
:1008E0003A0130913B012817390769F4309729F410
:1008F00010923D0110923C0102C013821282D093EB
:100900003B01C0933A01DF91CF910895DC0101C012
:0E0910006D9341505040E0F70895F894FFCFEA
:10091E0000003E0120002048656C6C6F20576F72FE
:10092E006C642000596F752061726520736F2062B0
:10093E00656175746966756C2E2E2E2E206A6B009D
:00000001FF
