:100000000C9438000C9455000C9455000C94550039
:100010000C9455000C9455000C9455000C9455000C
:100020000C9455000C9455000C9455000C945500FC
:100030000C9455000C9455000C9455000C945500EC
:100040000C9455000C9455000C9455000C945500DC
:100050000C9455000C9455000C9455000C945500CC
:100060000C9455000C9455000C9455000C945500BC
:1000700011241FBECFEFD4E0DEBFCDBF11E0A0E062
:10008000B1E0E2E1FEE002C005900D92A835B107B3
:10009000D9F721E0A8E5B1E001C01D92A236B20770
:1000A000E1F70E94FA010C9407070C94000080937A
:1000B000001489EF90E00197F1F700C000008091F3
:1000C000001490E008950E944A014FEF64E680E634
:1000D0000E94700140E060EE8FE00E947001089580
:1000E000BF92CF92DF92EF92FF920F931F93CF9325
:1000F000DF93CDB7DEB72A970FB6F894DEBF0FBEF9
:10010000CDBF0983C12E1A832B833C834D835E832D
:100110006F83788789879A87102F80E30E94300148
:10012000982F9870B92E83FD2DC0612F6295660FB0
:10013000607E82E30E945C01612F669566956695FC
:1001400081E30E945C016C2D6F7085E30E945C016D
:10015000D12C1C141D0494F47E01E3E0EE0EF11C7E
:1001600000E010E0F70161917F0186E3800F0E94BB
:100170005C010F5F1F4F0C151D05A4F381E00E9469
:100180008A0102C0BB24B3948B2D2A960FB6F89433
:10019000DEBF0FBECDBFDF91CF911F910F91FF90BA
:1001A000EF90DF90CF90BF9008950F931F93CF9360
:1001B000DF93CDB7DEB72A970FB6F894DEBF0FBE38
:1001C000CDBF01E016E0282F392F89859A850E943E
:1001D00070002A960FB6F894DEBF0FBECDBFDF9138
:1001E000CF911F910F910895CF9385E00E94570002
:1001F000C82F84E00E945700982F8C2FCF9108952C
:10020000CF9385E00E945700C82F84E00E945700DA
:1002100091E8980F81E88C0FCF910895CF9386E0F5
:100220000E945700C82F87E00E945700782F859BB7
:1002300002C091E001C090E0849B02C081E001C057
:1002400080E06C2FCF910895C4980895C49A0895C2
:100250000E94240180EC0E9450020E942601089511
:100260001F93CF93DF931F92CDB7DEB7182F0E9455
:10027000240183E00E945002812F0E9450020E94BC
:10028000540289830E94260189810F90DF91CF91CA
:100290001F9108950E944A020E9428018EE00E9448
:1002A0003001807E803831F086E091E00E94E102EA
:1002B00081E0089580E00895CF93DF93D82FC62F73
:1002C0000E94240182E00E9450028D2F0E94500261
:1002D0008C2F0E9450020E942601DF91CF91089539
:1002E0001F93CF93DF93182FD62FC42F0E94240182
:1002F00085E00E945002812F0E9450028D2F0E94A3
:1003000050028C2F0E9450020E942601DF91CF9153
:100310001F910895CF93C82F0E9424018C2F8770BE
:1003200080680E9450020E942601CF910895E0E06B
:10033000F0E18EEA808381EA80838AED808382E126
:10034000808388EC808388EA80838FE3808385EDD7
:10035000808380E8808381E8808380E5808389EDE5
:10036000808381E2808380E2808310828BED8083B2
:1003700080E380838DEA8083108284EA808386EA2A
:1003800080838FEA80830895E0E0F0E181E280835A
:1003900010828FE7808382E28083108287E08083EF
:1003A00008950E94C401E0E0F8E1A0E0B2E181918B
:1003B0008C93E1158CE1F807D1F70895E0E0F8E1BE
:1003C0001192E1158CE1F807D9F708958FE190E0DB
:1003D0000E94640261E772E08BE692E00E94820272
:1003E00085B7806885BFB89AC0980E9497010E941F
:1003F00076020895CF93DF931F92CDB7DEB78B9827
:100400008A980E94E60119820E9400016C010E94F4
:1004100063000E94DE010E94C4010E94DE010E946E
:10042000D10186E291E00E94E1020F2EFCE2EF2E64
:10043000F1E0FF2EF02D00E411E0C6010E94F4006F
:10044000682E792E0E940E014B015C011F926F9263
:10045000FF92EF920E94CD021F927F921F930F9303
:100460000E94CD02B501A401862D972D0E94D500D2
:100470008CEC94E00197F1F700C000008CEC94E064
:100480000197F1F700C000000FB6F894DEBF0FBE71
:10049000CDBFD3CF87B3806B87BB81E58DB908957E
:1004A0008FB9779BFECF0895CF93DF931F92CDB77F
:1004B000DEB78FEF8FB9779BFECF8FB189838981AC
:1004C0000F90DF91CF91089590BD89B988ED8AB9D9
:1004D00086E880BD08955D9BFECF8CB980E090E0FA
:1004E00008955F9BFECF8CB190E0089581E48093E6
:1004F000001C8093011C8093021C8093031C80933A
:10050000041C08950F931F93CF93DF93EC018B018D
:10051000009731F46115710519F480E090E038C05E
:100520006EE070E081E090E00E94E004FC01009742
:10053000A1F380E883830115110571F01387028709
:1005400081E883838091580190915901892B21F48E
:10055000F0935901E09358012097C9F0D187C087E3
:1005600083818260838380915A0190915B01892B02
:1005700071F4F0935B01E0935A0180915C019091DA
:100580005D01892B21F4F0935D01E0935C01CF01C3
:10059000DF91CF911F910F910895A0E0B0E0E3EDBE
:1005A000F2E00C94E006FE01359661917191AF0185
:1005B00080915A0190915B010E940E03E2E00C943D
:1005C000FC060F931F93CF93DF93E0915A01F091B4
:1005D0005B01238121FF1BC0EC0100E010E0899149
:1005E00060915A0170915B01DB011896ED91FC91CD
:1005F0001997882331F00995892B89F30FEF1FEFA5
:10060000EECF8AE00995892B11F4C80102C08FEF63
:100610009FEFDF91CF911F910F910895ACE0B0E073
:10062000E4E1F3E00C94D0067C016B018A01FC014B
:1006300017821682838181FFBDC1CE0101964C01D4
:10064000F7019381F60193FD859193FF81916F01ED
:10065000882309F4ABC1853239F493FD859193FF6A
:1006600081916F01853229F4B70190E00E94400624
:10067000E7CF512C312C20E02032A0F48B3269F0EE
:1006800030F4803259F0833269F420612CC08D320D
:1006900039F0803339F4216026C02260246023C001
:1006A000286021C027FD27C030ED380F3A3078F49C
:1006B00026FF06C0FAE05F9E300D1124532E13C0B2
:1006C0008AE0389E300D1124332E20620CC08E3209
:1006D00021F426FD6BC1206406C08C3611F420681D
:1006E00002C0883641F4F60193FD859193FF819114
:1006F0006F018111C1CF982F9F7D9554933028F4BD
:100700000C5F1F4FFFE3F9830DC0833631F0833751
:1007100071F0833509F05BC022C0F80180818983C4
:100720000E5F1F4F44244394512C540115C03801CF
:10073000F2E06F0E711CF801A080B18026FF03C0AB
:10074000652D70E002C06FEF7FEFC5012C870E941E
:1007500035062C0183012C852F77222E17C03801F6
:10076000F2E06F0E711CF801A080B18026FF03C07B
:10077000652D70E002C06FEF7FEFC5012C870E94EE
:1007800023062C012C852068222E830123FC1BC00C
:10079000832D90E048165906B0F4B70180E290E04E
:1007A0000E9440063A94F4CFF50127FC859127FE7C
:1007B00081915F01B70190E00E94400631103A94A8
:1007C000F1E04F1A51084114510471F7E5C0843625
:1007D00011F0893639F5F80127FF07C06081718172
:1007E000828193810C5F1F4F08C0608171818827CF
:1007F00077FD8095982F0E5F1F4F2F76B22E97FFB3
:1008000009C090958095709561957F4F8F4F9F4F50
:100810002068B22E2AE030E0A4010E947206A82EC1
:10082000A81844C0853729F42F7EB22E2AE030E084
:1008300025C0F22FF97FBF2E8F36C1F018F488350E
:1008400079F0B4C0803719F0883721F0AFC02F2F6E
:100850002061B22EB4FE0DC08B2D8460B82E09C06D
:1008600024FF0AC09F2F9660B92E06C028E030E012
:1008700005C020E130E002C020E132E0F801B7FE1F
:1008800007C060817181828193810C5F1F4F06C018
:100890006081718180E090E00E5F1F4FA4010E9493
:1008A0007206A82EA818FB2DFF77BF2EB6FE0BC030
:1008B0002B2D2E7FA51450F4B4FE0AC0B2FC08C044
:1008C0002B2D2E7E05C07A2C2B2D03C07A2C01C037
:1008D000752C24FF0DC0FE01EA0DF11D80818033CF
:1008E00011F4297E09C022FF06C07394739404C0DA
:1008F000822F867809F0739423FD13C020FF06C071
:100900005A2C731418F4530C5718732C731468F47E
:10091000B70180E290E02C870E94400673942C85FA
:10092000F5CF731410F4371801C0312C24FF12C016
:10093000B70180E390E02C870E9440062C8522FFBF
:1009400017C021FF03C088E590E002C088E790E06F
:10095000B7010CC0822F867859F021FD02C080E2D9
:1009600001C08BE227FD8DE2B70190E00E944006B6
:10097000A51438F4B70180E390E00E9440065A9431
:10098000F7CFAA94F401EA0DF11D8081B70190E040
:100990000E944006A110F5CF332009F451CEB701D3
:1009A00080E290E00E9440063A94F6CFF7018681FB
:1009B000978102C08FEF9FEF2C96E2E10C94EC063A
:1009C0000F931F93CF93DF93869F8001879F100D16
:1009D000969F100D1124C8010E94FC04EC010097A1
:1009E00029F0A80160E070E00E942E06CE01DF91A0
:1009F000CF911F910F910895CF93DF93823091058E
:100A000010F482E090E0E0916001F091610120E05B
:100A100030E0A0E0B0E0309739F1408151814817D3
:100A20005907B8F04817590771F4828193811097DC
:100A300029F013969C938E9312972CC0909361018A
:100A40008093600127C02115310531F0421753070B
:100A500018F0A901DB0101C0EF019A01BD01DF011E
:100A60000280F381E02DD7CF21153105F9F0281B45
:100A7000390B2430310580F48A819B816115710521
:100A800021F0FB019383828304C0909361018093E2
:100A90006001FE01329644C0FE01E20FF31F819314
:100AA000919322503109398328833AC020915E0105
:100AB00030915F01232B41F4209102013091030119
:100AC00030935F0120935E0120910001309101017C
:100AD0002115310541F42DB73EB7409104015091E5
:100AE0000501241B350BE0915E01F0915F01E217D7
:100AF000F307A0F42E1B3F0B2817390778F0AC0141
:100B00004E5F5F4F2417350748F04E0F5F1F50931D
:100B10005F0140935E018193919302C0E0E0F0E0B9
:100B2000CF01DF91CF910895CF93DF93009709F420
:100B300087C0FC01329713821282C0916001D0916C
:100B40006101209781F420813181280F391F809124
:100B50005E0190915F018217930779F5F0935F0131
:100B6000E0935E016DC0DE0120E030E0AE17BF070C
:100B700050F412964D915C9113979D0141155105CA
:100B800009F1DA01F3CFB383A28340815181840F4D
:100B9000951F8A179B0771F48D919C911197840F73
:100BA000951F02969183808312968D919C91139745
:100BB000938382832115310529F4F0936101E09339
:100BC00060013EC0D9011396FC93EE9312974D91AC
:100BD0005D91A40FB51FEA17FB0779F4808191811D
:100BE000840F951F0296D90111969C938E93828152
:100BF000938113969C938E931297E0E0F0E08A81A4
:100C00009B81009719F0FE01EC01F9CFCE0102960D
:100C100028813981820F931F20915E0130915F01FD
:100C20002817390769F4309729F41092610110925E
:100C3000600102C013821282D0935F01C0935E01F3
:100C4000DF91CF910895FC01059061507040011033
:100C5000D8F7809590958E0F9F1F0895DC0101C0F5
:100C60006D9341505040E0F70895FC016150704091
:100C700001900110D8F7809590958E0F9F1F0895D1
:100C80000F931F93CF93DF93182F092FEB018B81C5
:100C900081FD03C08FEF9FEF20C082FF10C04E8107
:100CA0005F812C813D81421753077CF4E881F981F3
:100CB0009F012F5F3F4F39832883108306C0E8854B
:100CC000F985812F0995892B29F72E813F812F5F87
:100CD0003F4F3F832E83812F902FDF91CF911F9124
:100CE0000F910895FA01AA27283051F1203181F19E
:100CF000E8946F936E7F6E5F7F4F8F4F9F4FAF4F24
:100D0000B1E03ED0B4E03CD0670F781F891F9A1F36
:100D1000A11D680F791F8A1F911DA11D6A0F711DEA
:100D2000811D911DA11D20D009F468943F912AE0F6
:100D3000269F11243019305D3193DEF6CF010895DE
:100D4000462F4770405D4193B3E00FD0C9F7F6CF0F
:100D5000462F4F70405D4A3318F0495D31FD4052D7
:100D6000419302D0A9F7EACFB4E0A695979587956D
:100D700077956795BA95C9F700976105710508954C
:100D80009B01AC010A2E06945795479537952795F8
:100D9000BA95C9F7620F731F841F951FA01D089590
:100DA0002F923F924F925F926F927F928F929F927B
:100DB000AF92BF92CF92DF92EF92FF920F931F9369
:100DC000CF93DF93CDB7DEB7CA1BDB0B0FB6F8941A
:100DD000DEBF0FBECDBF09942A88398848885F845A
:100DE0006E847D848C849B84AA84B984C884DF80CB
:100DF000EE80FD800C811B81AA81B981CE0FD11DAF
:100E00000FB6F894DEBF0FBECDBFED010895F89484
:020E1000FFCF12
:100E12000000620120004D435032353135204E4FE3
:100E22005420636F6E666967757265642070726FB5
:100E32007065726C79007374617274005468652015
:100E4200782D617869732069733A20256420200027
:100E5200202054686520792D617869732069733A7E
:080E6200202564200A20000095
:00000001FF
